{"abi":[{"type":"function","name":"PRECISION","inputs":[],"outputs":[{"name":"","type":"uint256","internalType":"uint256"}],"stateMutability":"pure"},{"type":"function","name":"getbaseGivenQuote","inputs":[{"name":"invariantLast","type":"int128","internalType":"int128"},{"name":"precBase","type":"uint256","internalType":"uint256"},{"name":"reserveQuote","type":"uint256","internalType":"uint256"},{"name":"strike","type":"uint256","internalType":"uint256"},{"name":"sigma","type":"uint256","internalType":"uint256"},{"name":"tau","type":"uint256","internalType":"uint256"}],"outputs":[{"name":"reserveBase","type":"int128","internalType":"int128"}],"stateMutability":"view"},{"type":"function","name":"name","inputs":[],"outputs":[{"name":"","type":"string","internalType":"string"}],"stateMutability":"pure"},{"type":"function","name":"scaleFactorBase","inputs":[],"outputs":[{"name":"","type":"uint256","internalType":"uint256"}],"stateMutability":"view"},{"type":"function","name":"scaleFactorQuote","inputs":[],"outputs":[{"name":"","type":"uint256","internalType":"uint256"}],"stateMutability":"view"},{"type":"function","name":"set","inputs":[{"name":"prec0","type":"uint256","internalType":"uint256"},{"name":"prec1","type":"uint256","internalType":"uint256"}],"outputs":[],"stateMutability":"nonpayable"},{"type":"function","name":"step0","inputs":[{"name":"strike","type":"uint256","internalType":"uint256"}],"outputs":[{"name":"K","type":"int128","internalType":"int128"}],"stateMutability":"view"},{"type":"function","name":"step1","inputs":[{"name":"sigma","type":"uint256","internalType":"uint256"},{"name":"tau","type":"uint256","internalType":"uint256"}],"outputs":[{"name":"vol","type":"int128","internalType":"int128"}],"stateMutability":"pure"},{"type":"function","name":"step2","inputs":[{"name":"reserveQuote","type":"uint256","internalType":"uint256"}],"outputs":[{"name":"reserve","type":"int128","internalType":"int128"}],"stateMutability":"view"},{"type":"function","name":"step3","inputs":[{"name":"reserve","type":"int128","internalType":"int128"}],"outputs":[{"name":"phi","type":"int128","internalType":"int128"}],"stateMutability":"pure"},{"type":"function","name":"step4","inputs":[{"name":"phi","type":"int128","internalType":"int128"},{"name":"vol","type":"int128","internalType":"int128"}],"outputs":[{"name":"input","type":"int128","internalType":"int128"}],"stateMutability":"pure"},{"type":"function","name":"step5","inputs":[{"name":"K","type":"int128","internalType":"int128"},{"name":"input","type":"int128","internalType":"int128"},{"name":"invariantLast","type":"int128","internalType":"int128"}],"outputs":[{"name":"reserveBase","type":"int128","internalType":"int128"}],"stateMutability":"pure"},{"type":"function","name":"testStep3","inputs":[{"name":"reserve","type":"uint256","internalType":"uint256"}],"outputs":[{"name":"phi","type":"int128","internalType":"int128"}],"stateMutability":"view"},{"type":"function","name":"testStep4","inputs":[{"name":"reserve","type":"uint256","internalType":"uint256"},{"name":"sigma","type":"uint256","internalType":"uint256"},{"name":"tau","type":"uint256","internalType":"uint256"}],"outputs":[{"name":"input","type":"int128","internalType":"int128"}],"stateMutability":"view"},{"type":"function","name":"testStep5","inputs":[{"name":"reserve","type":"uint256","internalType":"uint256"},{"name":"strike","type":"uint256","internalType":"uint256"},{"name":"sigma","type":"uint256","internalType":"uint256"},{"name":"tau","type":"uint256","internalType":"uint256"}],"outputs":[{"name":"reserveBase","type":"int128","internalType":"int128"}],"stateMutability":"view"},{"type":"error","name":"InverseOutOfBounds","inputs":[{"name":"value","type":"int128","internalType":"int128"}]}],"bytecode":{"object":"0x608060405234801561001057600080fd5b50611eb6806100206000396000f3fe608060405234801561001057600080fd5b50600436106100f55760003560e01c806385cbfc7511610097578063aaf5eb6811610066578063aaf5eb6814610217578063cb21537414610225578063e3c0986a14610238578063e5f2cfcb1461024157600080fd5b806385cbfc75146101c7578063886a4eba146101da5780639b48eda4146101f1578063a2e50a2b1461020457600080fd5b8063318f8e64116100d3578063318f8e641461017b57806343d763201461018e5780635eded84c146101a15780637b599b03146101b457600080fd5b806306fdde03146100fa5780631ab06ee51461013a5780632bf02fbe14610155575b600080fd5b60408051808201825260158152745465737447657462617365476976656e51756f746560581b602082015290516101319190611c43565b60405180910390f35b610153610148366004611c56565b600091909155600155565b005b610168610163366004611c8a565b610254565b604051600f9190910b8152602001610131565b610168610189366004611cbd565b6102e9565b61016861019c366004611cef565b610501565b6101686101af366004611d08565b610531565b6101686101c2366004611d23565b6105a8565b6101686101d5366004611d66565b6105d9565b6101e360015481565b604051908152602001610131565b6101686101ff366004611cef565b610637565b610168610212366004611db0565b610646565b670de0b6b3a76400006101e3565b610168610233366004611cef565b61067a565b6101e360005481565b61016861024f366004611c56565b610691565b600061027e6040518060400160405280600381526020016270686960e81b81525084600f0b6106a4565b6102a6604051806040016040528060038152602001621d9bdb60ea1b81525083600f0b6106a4565b6102b4600f84900b836106ed565b90506102e36040518060400160405280600881526020016738343496bb37b61d60c11b81525082600f0b6106a4565b92915050565b600080841161033f5760405162461bcd60e51b815260206004820181905260248201527f537472696b65206d7573742062652067726561746572207468616e207a65726f60448201526064015b60405180910390fd5b6000600154116103a55760405162461bcd60e51b815260206004820152602b60248201527f5363616c6520666163746f722062617365206d7573742062652067726561746560448201526a72207468616e207a65726f60a81b6064820152608401610336565b60006103b2868585610646565b90506103ee6040518060400160405280600681526020016524b7383aba1d60d11b8152506103df83610721565b67ffffffffffffffff1661073d565b60006104056001548761078290919063ffffffff16565b905061043a6040518060400160405280600e81526020016d29b1b0b632b21039ba3934b5b29d60911b8152506103df83610721565b600061044883600f0b6107a3565b90506104736040518060400160405280600481526020016321a2231d60e11b8152506103df83610721565b80600f0b6000036104b45760405162461bcd60e51b815260206004820152600b60248201526a434446206973207a65726f60a81b6044820152606401610336565b6104c2600f83900b82610840565b93506104f66040518060400160405280600d81526020016c2932b9b2b93b32903130b9b29d60991b8152506103df86610721565b505050949350505050565b60006102e361052961051e6000548561078290919063ffffffff16565b600160401b906106ed565b600f0b610876565b600061055f604051806040016040528060078152602001667265736572766560c81b81525083600f0b6106a4565b610570610529600160401b846106ed565b90506105a36040518060400160405280600c81526020016b4344465e312d3128312d782960a01b81525082600f0b6106a4565b919050565b60006105d1826105c86105bd86600f0b6107a3565b600f88900b90610840565b600f0b9061092b565b949350505050565b6000806105e58561067a565b90506000806105f48686610691565b9050600061060189610637565b9050600061060e82610531565b905061061a8184610254565b935050505061062a82828b6105a8565b9998505050505050505050565b600080546102e3908390610782565b60008061065285610501565b905060006106608585610691565b9050610670600f83900b826106ed565b9695505050505050565b60006102e36001548361078290919063ffffffff16565b600061069d838361095e565b9392505050565b6106e982826040516024016106ba929190611ddc565b60408051601f198184030181529190526020810180516001600160e01b0316631e53134760e11b17905261099b565b5050565b6000600f82810b9084900b0360016001607f1b03198112801590610718575060016001607f1b038113155b61069d57600080fd5b60008082600f0b121561073357600080fd5b50600f0b60401d90565b6106e98282604051602401610753929190611ddc565b60408051601f198184030181529190526020810180516001600160e01b0316632d839cb360e21b17905261099b565b60008061079783670de0b6b3a7640000611e14565b90506105d184826109a7565b6000806107bd600f84900b68016a09e667f3bcc9086109e1565b905060006107fb6107f06107e56107d685600f0b610a38565b6753dd02a4f5ee2e4690610840565b600160401b9061092b565b600160401b906109e1565b905060006108098383610a66565b9050600083600f0b12156108265761082381600f0b610b2b565b90505b6000610670610839600160401b8461092b565b6001603f1b905b6000600f83810b9083900b0260401d60016001607f1b03198112801590610718575060016001607f1b0381131561069d57600080fd5b6000600160401b600f83900b1215806108935750600082600f0b13155b156108b757604051630e59931d60e31b8152600f83900b6004820152602401610336565b67f999999999999999600f83900b138015906108df5750670666666666666666600f83900b12155b156108ed576102e382610b41565b670666666666666666600f83900b121561090a576102e382610bdd565b600061092261091d600160401b856106ed565b610bdd565b61069d90611e36565b6000600f83810b9083900b0160016001607f1b03198112801590610718575060016001607f1b0381131561069d57600080fd5b60008061097561096d84610ca7565b600f0b610cb7565b9050600061098285610cd9565b9050610992600f82900b83610840565b95945050505050565b6109a481610ce7565b50565b6000816000036109b657600080fd5b60006109c28484610d08565b905060016001607f1b036001600160801b038216111561069d57600080fd5b600081600f0b6000036109f357600080fd5b600082600f0b604085600f0b901b81610a0e57610a0e611dfe565b05905060016001607f1b03198112801590610718575060016001607f1b0381131561069d57600080fd5b60006001607f1b600f83900b01610a4e57600080fd5b600082600f0b12610a5f57816102e3565b5060000390565b600080610ac3610ab8610aa8610a9d610a8c600f88900b68010fb844255a12d72e610840565b68017401c57014c38f13199061092b565b600f87900b90610840565b68016a09e667f3bcc9089061092b565b600f85900b90610840565b90506000610aef610ae0610a9d6748d4c730f051a5fd198561092b565b67413c831bb169f8749061092b565b9050600061067061051e6105bd610b20610b18610b10600f8c900b8c610840565b600f0b610b2b565b600f0b610e6d565b600f86900b90610840565b60006001607f1b600f83900b01610a5f57600080fd5b600080610b56600f84900b6001603f1b6106ed565b90506000610b68600f83900b83610840565b90506000610992610ab8610bcd610ba56721d0a04b0e9b94f16105c8610b9767c2bf5d74c724e53e1989610840565b6105c8600f8a900b8a610840565b610bc46726a8f3c1f21b336e6105c86787c57e5da70d3c8f1989610840565b600f0b906109e1565b68015d71f5721242c7879061092b565b600080610bff61096d610bf76107f0600f87900b87610840565b600f0b610ec2565b90506000610c236707a1e70f720eca436105c86801000bf627fa1884101985610840565b90506000610c476810aeac93f55267a9a56105c868041ed34a256149023686610840565b90506000610c7c68072c7d592d021fb1db6105c8610c6e6808c27b4617f5f800ea88610840565b6105c8600f89900b89610840565b90506000610c9c610c91600f85900b846109e1565b600f86900b9061092b565b979650505050505050565b60006102e3826301e185586109a7565b60008082600f0b1215610cc957600080fd5b6102e3604083600f0b901b610efc565b60006102e3826127106109a7565b60006a636f6e736f6c652e6c6f679050600080835160208501845afa505050565b600081600003610d1757600080fd5b60006001600160c01b038411610d425782604085901b81610d3a57610d3a611dfe565b049050610e59565b60c084811c6401000000008110610d5b576020918201911c5b620100008110610d6d576010918201911c5b6101008110610d7e576008918201911c5b60108110610d8e576004918201911c5b60048110610d9e576002918201911c5b60028110610dad576001820191505b60bf820360018603901c6001018260ff0387901b81610dce57610dce611dfe565b0492506001600160801b03831115610de557600080fd5b608085901c83026001600160801b038616840260c088901c604089901b82811015610e11576001820391505b608084901b92900382811015610e28576001820391505b829003608084901c8214610e3e57610e3e611e6a565b888181610e4d57610e4d611dfe565b04870196505050505050505b6001600160801b0381111561069d57600080fd5b6000600160461b82600f0b12610e8257600080fd5b683fffffffffffffffff1982600f0b1215610e9f57506000919050565b6102e3608083600f0b700171547652b82fe1777d0ffda0d23a7d1202901d61106d565b60008082600f0b13610ed357600080fd5b6080610ede83611b22565b600f0b6fb17217f7d1cf79abc9e3b39803f2f6af02901c9050919050565b600081600003610f0e57506000919050565b816001600160801b8210610f275760809190911c9060401b5b600160401b8210610f3d5760409190911c9060201b5b6401000000008210610f545760209190911c9060101b5b620100008210610f695760109190911c9060081b5b6101008210610f7d5760089190911c9060041b5b60108210610f905760049190911c9060021b5b60088210610f9c5760011b5b6001818581610fad57610fad611dfe565b048201901c90506001818581610fc557610fc5611dfe565b048201901c90506001818581610fdd57610fdd611dfe565b048201901c90506001818581610ff557610ff5611dfe565b048201901c9050600181858161100d5761100d611dfe565b048201901c9050600181858161102557611025611dfe565b048201901c9050600181858161103d5761103d611dfe565b048201901c9050600081858161105557611055611dfe565b0490508082106110655780610992565b509392505050565b6000600160461b82600f0b1261108257600080fd5b683fffffffffffffffff1982600f0b121561109f57506000919050565b6001607f1b60006001603f1b8416600f0b13156110cd5770016a09e667f3bcc908b2fb1366ea957d3e0260801c5b60008367400000000000000016600f0b13156110fa577001306fe0a31b7152de8d5a46305c85edec0260801c5b60008367200000000000000016600f0b1315611127577001172b83c7d517adcdf7c8c50eb14a791f0260801c5b60008367100000000000000016600f0b13156111545770010b5586cf9890f6298b92b71842a983630260801c5b60008367080000000000000016600f0b1315611181577001059b0d31585743ae7c548eb68ca417fd0260801c5b60008367040000000000000016600f0b13156111ae57700102c9a3e778060ee6f7caca4f7a29bde80260801c5b60008367020000000000000016600f0b13156111db5770010163da9fb33356d84a66ae336dcdfa3f0260801c5b60008367010000000000000016600f0b131561120857700100b1afa5abcbed6129ab13ec11dc95430260801c5b600083668000000000000016600f0b13156112345770010058c86da1c09ea1ff19d294cf2f679b0260801c5b600083664000000000000016600f0b1315611260577001002c605e2e8cec506d21bfc89a23a00f0260801c5b600083662000000000000016600f0b131561128c57700100162f3904051fa128bca9c55c31e5df0260801c5b600083661000000000000016600f0b13156112b8577001000b175effdc76ba38e31671ca9397250260801c5b600083660800000000000016600f0b13156112e457700100058ba01fb9f96d6cacd4b180917c3d0260801c5b600083660400000000000016600f0b13156113105770010002c5cc37da9491d0985c348c68e7b30260801c5b600083660200000000000016600f0b131561133c577001000162e525ee054754457d59952920260260801c5b600083660100000000000016600f0b13156113685770010000b17255775c040618bf4a4ade83fc0260801c5b6000836580000000000016600f0b1315611393577001000058b91b5bc9ae2eed81e9b7d4cfab0260801c5b6000836540000000000016600f0b13156113be57700100002c5c89d5ec6ca4d7c8acc017b7c90260801c5b6000836520000000000016600f0b13156113e95770010000162e43f4f831060e02d839a9d16d0260801c5b6000836510000000000016600f0b131561141457700100000b1721bcfc99d9f890ea069117630260801c5b6000836508000000000016600f0b131561143f5770010000058b90cf1e6d97f9ca14dbcc16280260801c5b6000836504000000000016600f0b131561146a577001000002c5c863b73f016468f6bac5ca2b0260801c5b6000836502000000000016600f0b131561149557700100000162e430e5a18f6119e3c02282a50260801c5b6000836501000000000016600f0b13156114c0577001000000b1721835514b86e6d96efd1bfe0260801c5b60008364800000000016600f0b13156114ea57700100000058b90c0b48c6be5df846c5b2ef0260801c5b60008364400000000016600f0b13156115145770010000002c5c8601cc6b9e94213c72737a0260801c5b60008364200000000016600f0b131561153e577001000000162e42fff037df38aa2b219f060260801c5b60008364100000000016600f0b13156115685770010000000b17217fba9c739aa5819f44f90260801c5b60008364080000000016600f0b1315611592577001000000058b90bfcdee5acd3c1cedc8230260801c5b60008364040000000016600f0b13156115bc57700100000002c5c85fe31f35a6a30da1be500260801c5b60008364020000000016600f0b13156115e65770010000000162e42ff0999ce3541b9fffcf0260801c5b60008364010000000016600f0b131561161057700100000000b17217f80f4ef5aadda455540260801c5b600083638000000016600f0b13156116395770010000000058b90bfbf8479bd5a81b51ad0260801c5b600083634000000016600f0b1315611662577001000000002c5c85fdf84bd62ae30a74cc0260801c5b600083632000000016600f0b131561168b57700100000000162e42fefb2fed257559bdaa0260801c5b600083631000000016600f0b13156116b4577001000000000b17217f7d5a7716bba4a9ae0260801c5b600083630800000016600f0b13156116dd57700100000000058b90bfbe9ddbac5e109cce0260801c5b600083630400000016600f0b13156117065770010000000002c5c85fdf4b15de6f17eb0d0260801c5b600083630200000016600f0b131561172f577001000000000162e42fefa494f1478fde050260801c5b600083630100000016600f0b13156117585770010000000000b17217f7d20cf927c8e94c0260801c5b6000836280000016600f0b1315611780577001000000000058b90bfbe8f71cb4e4b33d0260801c5b6000836240000016600f0b13156117a857700100000000002c5c85fdf477b662b269450260801c5b6000836220000016600f0b13156117d05770010000000000162e42fefa3ae53369388c0260801c5b6000836210000016600f0b13156117f857700100000000000b17217f7d1d351a389d400260801c5b6000836208000016600f0b13156118205770010000000000058b90bfbe8e8b2d3d4ede0260801c5b6000836204000016600f0b1315611848577001000000000002c5c85fdf4741bea6e77e0260801c5b6000836202000016600f0b131561187057700100000000000162e42fefa39fe95583c20260801c5b6000836201000016600f0b1315611898577001000000000000b17217f7d1cfb72b45e10260801c5b60008361800016600f0b13156118bf57700100000000000058b90bfbe8e7cc35c3f00260801c5b60008361400016600f0b13156118e65770010000000000002c5c85fdf473e242ea380260801c5b60008361200016600f0b131561190d577001000000000000162e42fefa39f02b772c0260801c5b60008361100016600f0b13156119345770010000000000000b17217f7d1cf7d83c1a0260801c5b60008361080016600f0b131561195b577001000000000000058b90bfbe8e7bdcbe2e0260801c5b60008361040016600f0b131561198257700100000000000002c5c85fdf473dea871f0260801c5b60008361020016600f0b13156119a95770010000000000000162e42fefa39ef44d910260801c5b60008361010016600f0b13156119d057700100000000000000b17217f7d1cf79e9490260801c5b600083608016600f0b13156119f65770010000000000000058b90bfbe8e7bce5440260801c5b600083604016600f0b1315611a1c577001000000000000002c5c85fdf473de6eca0260801c5b600083602016600f0b1315611a4257700100000000000000162e42fefa39ef366f0260801c5b600083601016600f0b1315611a68577001000000000000000b17217f7d1cf79afa0260801c5b600083600816600f0b1315611a8e57700100000000000000058b90bfbe8e7bcd6d0260801c5b600083600416600f0b1315611ab45770010000000000000002c5c85fdf473de6b20260801c5b600083600216600f0b1315611ada577001000000000000000162e42fefa39ef3580260801c5b600083600116600f0b1315611b005770010000000000000000b17217f7d1cf79ab0260801c5b600f83810b60401d603f03900b1c60016001607f1b038111156102e357600080fd5b60008082600f0b13611b3357600080fd5b6000600f83900b600160401b8112611b4d576040918201911d5b6401000000008112611b61576020918201911d5b620100008112611b73576010918201911d5b6101008112611b84576008918201911d5b60108112611b94576004918201911d5b60048112611ba4576002918201911d5b60028112611bb3576001820191505b603f19820160401b600f85900b607f8490031b6001603f1b5b6000811315611bf25790800260ff81901c8281029390930192607f011c9060011d611bcc565b509095945050505050565b6000815180845260005b81811015611c2357602081850181015186830182015201611c07565b506000602082860101526020601f19601f83011685010191505092915050565b60208152600061069d6020830184611bfd565b60008060408385031215611c6957600080fd5b50508035926020909101359150565b8035600f81900b81146105a357600080fd5b60008060408385031215611c9d57600080fd5b611ca683611c78565b9150611cb460208401611c78565b90509250929050565b60008060008060808587031215611cd357600080fd5b5050823594602084013594506040840135936060013592509050565b600060208284031215611d0157600080fd5b5035919050565b600060208284031215611d1a57600080fd5b61069d82611c78565b600080600060608486031215611d3857600080fd5b611d4184611c78565b9250611d4f60208501611c78565b9150611d5d60408501611c78565b90509250925092565b60008060008060008060c08789031215611d7f57600080fd5b611d8887611c78565b9860208801359850604088013597606081013597506080810135965060a00135945092505050565b600080600060608486031215611dc557600080fd5b505081359360208301359350604090920135919050565b604081526000611def6040830185611bfd565b90508260208301529392505050565b634e487b7160e01b600052601260045260246000fd5b600082611e3157634e487b7160e01b600052601260045260246000fd5b500490565b600081600f0b60016001607f1b03198103611e6157634e487b7160e01b600052601160045260246000fd5b60000392915050565b634e487b7160e01b600052600160045260246000fdfea26469706673582212204ee8a29757373988ea2bee32b2b56e6ffd71a5e130bcb27ef4b5bb75bf51d21164736f6c63430008140033","linkReferences":{}},"methodIdentifiers":{"PRECISION()":"aaf5eb68","getbaseGivenQuote(int128,uint256,uint256,uint256,uint256,uint256)":"85cbfc75","name()":"06fdde03","scaleFactorBase()":"886a4eba","scaleFactorQuote()":"e3c0986a","set(uint256,uint256)":"1ab06ee5","step0(uint256)":"cb215374","step1(uint256,uint256)":"e5f2cfcb","step2(uint256)":"9b48eda4","step3(int128)":"5eded84c","step4(int128,int128)":"2bf02fbe","step5(int128,int128,int128)":"7b599b03","testStep3(uint256)":"43d76320","testStep4(uint256,uint256,uint256)":"a2e50a2b","testStep5(uint256,uint256,uint256,uint256)":"318f8e64"},"id":5}