{"abi":[{"type":"function","name":"PRECISION","inputs":[],"outputs":[{"name":"","type":"uint256","internalType":"uint256"}],"stateMutability":"pure"},{"type":"function","name":"getbaseGivenquote","inputs":[{"name":"invariantLast","type":"int128","internalType":"int128"},{"name":"precbase","type":"uint256","internalType":"uint256"},{"name":"reservequote","type":"uint256","internalType":"uint256"},{"name":"strike","type":"uint256","internalType":"uint256"},{"name":"sigma","type":"uint256","internalType":"uint256"},{"name":"tau","type":"uint256","internalType":"uint256"}],"outputs":[{"name":"reservebase","type":"int128","internalType":"int128"}],"stateMutability":"view"},{"type":"function","name":"name","inputs":[],"outputs":[{"name":"","type":"string","internalType":"string"}],"stateMutability":"pure"},{"type":"function","name":"scaleFactorbase","inputs":[],"outputs":[{"name":"","type":"uint256","internalType":"uint256"}],"stateMutability":"view"},{"type":"function","name":"scaleFactorquote","inputs":[],"outputs":[{"name":"","type":"uint256","internalType":"uint256"}],"stateMutability":"view"},{"type":"function","name":"set","inputs":[{"name":"prec0","type":"uint256","internalType":"uint256"},{"name":"prec1","type":"uint256","internalType":"uint256"}],"outputs":[],"stateMutability":"nonpayable"},{"type":"function","name":"step0","inputs":[{"name":"strike","type":"uint256","internalType":"uint256"}],"outputs":[{"name":"K","type":"int128","internalType":"int128"}],"stateMutability":"view"},{"type":"function","name":"step1","inputs":[{"name":"sigma","type":"uint256","internalType":"uint256"},{"name":"tau","type":"uint256","internalType":"uint256"}],"outputs":[{"name":"vol","type":"int128","internalType":"int128"}],"stateMutability":"pure"},{"type":"function","name":"step2","inputs":[{"name":"reservequote","type":"uint256","internalType":"uint256"}],"outputs":[{"name":"reserve","type":"int128","internalType":"int128"}],"stateMutability":"view"},{"type":"function","name":"step3","inputs":[{"name":"reserve","type":"int128","internalType":"int128"}],"outputs":[{"name":"phi","type":"int128","internalType":"int128"}],"stateMutability":"pure"},{"type":"function","name":"step4","inputs":[{"name":"phi","type":"int128","internalType":"int128"},{"name":"vol","type":"int128","internalType":"int128"}],"outputs":[{"name":"input","type":"int128","internalType":"int128"}],"stateMutability":"pure"},{"type":"function","name":"step5","inputs":[{"name":"K","type":"int128","internalType":"int128"},{"name":"input","type":"int128","internalType":"int128"},{"name":"invariantLast","type":"int128","internalType":"int128"}],"outputs":[{"name":"reservebase","type":"int128","internalType":"int128"}],"stateMutability":"pure"},{"type":"function","name":"testStep3","inputs":[{"name":"reserve","type":"uint256","internalType":"uint256"}],"outputs":[{"name":"phi","type":"int128","internalType":"int128"}],"stateMutability":"view"},{"type":"function","name":"testStep4","inputs":[{"name":"reserve","type":"uint256","internalType":"uint256"},{"name":"sigma","type":"uint256","internalType":"uint256"},{"name":"tau","type":"uint256","internalType":"uint256"}],"outputs":[{"name":"input","type":"int128","internalType":"int128"}],"stateMutability":"view"},{"type":"function","name":"testStep5","inputs":[{"name":"reserve","type":"uint256","internalType":"uint256"},{"name":"strike","type":"uint256","internalType":"uint256"},{"name":"sigma","type":"uint256","internalType":"uint256"},{"name":"tau","type":"uint256","internalType":"uint256"}],"outputs":[{"name":"reservebase","type":"int128","internalType":"int128"}],"stateMutability":"view"},{"type":"error","name":"InverseOutOfBounds","inputs":[{"name":"value","type":"int128","internalType":"int128"}]}],"bytecode":{"object":"0x608060405234801561001057600080fd5b50611afa806100206000396000f3fe608060405234801561001057600080fd5b50600436106100f55760003560e01c8063679cf5ce11610097578063a2e50a2b11610066578063a2e50a2b1461020d578063aaf5eb6814610220578063cb2153741461022e578063e5f2cfcb1461024157600080fd5b8063679cf5ce146101cb5780637b599b03146101d45780639706eecf146101e75780639b48eda4146101fa57600080fd5b8063318f8e64116100d3578063318f8e641461017b57806343d763201461018e57806348103881146101a15780635eded84c146101b857600080fd5b806306fdde03146100fa5780631ab06ee51461013a5780632bf02fbe14610155575b600080fd5b60408051808201825260158152745465737447657462617365476976656e71756f746560581b60208201529051610131919061186e565b60405180910390f35b6101536101483660046118bc565b600091909155600155565b005b6101686101633660046118f0565b610254565b604051600f9190910b8152602001610131565b610168610189366004611923565b61026b565b61016861019c366004611955565b6102ab565b6101aa60015481565b604051908152602001610131565b6101686101c636600461196e565b6102e1565b6101aa60005481565b6101686101e2366004611989565b6102f4565b6101686101f53660046119cc565b610325565b610168610208366004611955565b610383565b61016861021b366004611a16565b610392565b670de0b6b3a76400006101aa565b61016861023c366004611955565b6103bc565b61016861024f3660046118bc565b6103d3565b6000610264600f84900b836103df565b9392505050565b600080610279868585610392565b90506102a161028a82600f0b610413565b6001546102989088906104b4565b600f0b906104d5565b9695505050505050565b60006102db6102d36102c8600054856104b490919063ffffffff16565b600160401b906103df565b600f0b61050b565b92915050565b60006102db6102d3600160401b846103df565b600061031d8261031461030986600f0b610413565b600f88900b906104d5565b600f0b906105c9565b949350505050565b600080610331856103bc565b905060008061034086866103d3565b9050600061034d89610383565b9050600061035a826102e1565b90506103668184610254565b935050505061037682828b6102f4565b9998505050505050505050565b600080546102db9083906104b4565b60008061039e856102ab565b905060006103ac85856103d3565b90506102a1600f83900b826103df565b60006102db600154836104b490919063ffffffff16565b600061026483836105fc565b6000600f82810b9084900b0360016001607f1b0319811280159061040a575060016001607f1b038113155b61026457600080fd5b60008061042d600f84900b68016a09e667f3bcc908610639565b9050600061046b61046061045561044685600f0b610690565b6753dd02a4f5ee2e46906104d5565b600160401b906105c9565b600160401b90610639565b9050600061047983836106be565b9050600083600f0b12156104965761049381600f0b610783565b90505b60006102a16104a9600160401b846105c9565b6001603f1b906104d5565b6000806104c983670de0b6b3a7640000611a58565b905061031d8482610799565b6000600f83810b9083900b0260401d60016001607f1b0319811280159061040a575060016001607f1b0381131561026457600080fd5b6000600160401b600f83900b1215806105285750600082600f0b13155b1561055057604051630e59931d60e31b8152600f83900b600482015260240160405180910390fd5b67f999999999999999600f83900b138015906105785750670666666666666666600f83900b12155b15610586576102db826107d3565b670666666666666666600f83900b12156105a3576102db8261086f565b60006105bb6105b6600160401b856103df565b61086f565b61026490611a7a565b919050565b6000600f83810b9083900b0160016001607f1b0319811280159061040a575060016001607f1b0381131561026457600080fd5b60008061061361060b84610939565b600f0b610949565b905060006106208561096b565b9050610630600f82900b836104d5565b95945050505050565b600081600f0b60000361064b57600080fd5b600082600f0b604085600f0b901b8161066657610666611a42565b05905060016001607f1b0319811280159061040a575060016001607f1b0381131561026457600080fd5b60006001607f1b600f83900b016106a657600080fd5b600082600f0b126106b757816102db565b5060000390565b60008061071b6107106107006106f56106e4600f88900b68010fb844255a12d72e6104d5565b68017401c57014c38f1319906105c9565b600f87900b906104d5565b68016a09e667f3bcc908906105c9565b600f85900b906104d5565b905060006107476107386106f56748d4c730f051a5fd19856105c9565b67413c831bb169f874906105c9565b905060006102a16102c8610309610778610770610768600f8c900b8c6104d5565b600f0b610783565b600f0b610979565b600f86900b906104d5565b60006001607f1b600f83900b016106b757600080fd5b6000816000036107a857600080fd5b60006107b484846109ce565b905060016001607f1b036001600160801b038216111561026457600080fd5b6000806107e8600f84900b6001603f1b6103df565b905060006107fa600f83900b836104d5565b9050600061063061071061085f6108376721d0a04b0e9b94f161031461082967c2bf5d74c724e53e19896104d5565b610314600f8a900b8a6104d5565b6108566726a8f3c1f21b336e6103146787c57e5da70d3c8f19896104d5565b600f0b90610639565b68015d71f5721242c787906105c9565b60008061089161060b610889610460600f87900b876104d5565b600f0b610b33565b905060006108b56707a1e70f720eca436103146801000bf627fa18841019856104d5565b905060006108d96810aeac93f55267a9a561031468041ed34a2561490236866104d5565b9050600061090e68072c7d592d021fb1db6103146109006808c27b4617f5f800ea886104d5565b610314600f89900b896104d5565b9050600061092e610923600f85900b84610639565b600f86900b906105c9565b979650505050505050565b60006102db826301e18558610799565b60008082600f0b121561095b57600080fd5b6102db604083600f0b901b610b6d565b60006102db82612710610799565b6000600160461b82600f0b1261098e57600080fd5b683fffffffffffffffff1982600f0b12156109ab57506000919050565b6102db608083600f0b700171547652b82fe1777d0ffda0d23a7d1202901d610cde565b6000816000036109dd57600080fd5b60006001600160c01b038411610a085782604085901b81610a0057610a00611a42565b049050610b1f565b60c084811c6401000000008110610a21576020918201911c5b620100008110610a33576010918201911c5b6101008110610a44576008918201911c5b60108110610a54576004918201911c5b60048110610a64576002918201911c5b60028110610a73576001820191505b60bf820360018603901c6001018260ff0387901b81610a9457610a94611a42565b0492506001600160801b03831115610aab57600080fd5b608085901c83026001600160801b038616840260c088901c604089901b82811015610ad7576001820391505b608084901b92900382811015610aee576001820391505b829003608084901c8214610b0457610b04611aae565b888181610b1357610b13611a42565b04870196505050505050505b6001600160801b0381111561026457600080fd5b60008082600f0b13610b4457600080fd5b6080610b4f83611793565b600f0b6fb17217f7d1cf79abc9e3b39803f2f6af02901c9050919050565b600081600003610b7f57506000919050565b816001600160801b8210610b985760809190911c9060401b5b600160401b8210610bae5760409190911c9060201b5b6401000000008210610bc55760209190911c9060101b5b620100008210610bda5760109190911c9060081b5b6101008210610bee5760089190911c9060041b5b60108210610c015760049190911c9060021b5b60088210610c0d5760011b5b6001818581610c1e57610c1e611a42565b048201901c90506001818581610c3657610c36611a42565b048201901c90506001818581610c4e57610c4e611a42565b048201901c90506001818581610c6657610c66611a42565b048201901c90506001818581610c7e57610c7e611a42565b048201901c90506001818581610c9657610c96611a42565b048201901c90506001818581610cae57610cae611a42565b048201901c90506000818581610cc657610cc6611a42565b049050808210610cd65780610630565b509392505050565b6000600160461b82600f0b12610cf357600080fd5b683fffffffffffffffff1982600f0b1215610d1057506000919050565b6001607f1b60006001603f1b8416600f0b1315610d3e5770016a09e667f3bcc908b2fb1366ea957d3e0260801c5b60008367400000000000000016600f0b1315610d6b577001306fe0a31b7152de8d5a46305c85edec0260801c5b60008367200000000000000016600f0b1315610d98577001172b83c7d517adcdf7c8c50eb14a791f0260801c5b60008367100000000000000016600f0b1315610dc55770010b5586cf9890f6298b92b71842a983630260801c5b60008367080000000000000016600f0b1315610df2577001059b0d31585743ae7c548eb68ca417fd0260801c5b60008367040000000000000016600f0b1315610e1f57700102c9a3e778060ee6f7caca4f7a29bde80260801c5b60008367020000000000000016600f0b1315610e4c5770010163da9fb33356d84a66ae336dcdfa3f0260801c5b60008367010000000000000016600f0b1315610e7957700100b1afa5abcbed6129ab13ec11dc95430260801c5b600083668000000000000016600f0b1315610ea55770010058c86da1c09ea1ff19d294cf2f679b0260801c5b600083664000000000000016600f0b1315610ed1577001002c605e2e8cec506d21bfc89a23a00f0260801c5b600083662000000000000016600f0b1315610efd57700100162f3904051fa128bca9c55c31e5df0260801c5b600083661000000000000016600f0b1315610f29577001000b175effdc76ba38e31671ca9397250260801c5b600083660800000000000016600f0b1315610f5557700100058ba01fb9f96d6cacd4b180917c3d0260801c5b600083660400000000000016600f0b1315610f815770010002c5cc37da9491d0985c348c68e7b30260801c5b600083660200000000000016600f0b1315610fad577001000162e525ee054754457d59952920260260801c5b600083660100000000000016600f0b1315610fd95770010000b17255775c040618bf4a4ade83fc0260801c5b6000836580000000000016600f0b1315611004577001000058b91b5bc9ae2eed81e9b7d4cfab0260801c5b6000836540000000000016600f0b131561102f57700100002c5c89d5ec6ca4d7c8acc017b7c90260801c5b6000836520000000000016600f0b131561105a5770010000162e43f4f831060e02d839a9d16d0260801c5b6000836510000000000016600f0b131561108557700100000b1721bcfc99d9f890ea069117630260801c5b6000836508000000000016600f0b13156110b05770010000058b90cf1e6d97f9ca14dbcc16280260801c5b6000836504000000000016600f0b13156110db577001000002c5c863b73f016468f6bac5ca2b0260801c5b6000836502000000000016600f0b131561110657700100000162e430e5a18f6119e3c02282a50260801c5b6000836501000000000016600f0b1315611131577001000000b1721835514b86e6d96efd1bfe0260801c5b60008364800000000016600f0b131561115b57700100000058b90c0b48c6be5df846c5b2ef0260801c5b60008364400000000016600f0b13156111855770010000002c5c8601cc6b9e94213c72737a0260801c5b60008364200000000016600f0b13156111af577001000000162e42fff037df38aa2b219f060260801c5b60008364100000000016600f0b13156111d95770010000000b17217fba9c739aa5819f44f90260801c5b60008364080000000016600f0b1315611203577001000000058b90bfcdee5acd3c1cedc8230260801c5b60008364040000000016600f0b131561122d57700100000002c5c85fe31f35a6a30da1be500260801c5b60008364020000000016600f0b13156112575770010000000162e42ff0999ce3541b9fffcf0260801c5b60008364010000000016600f0b131561128157700100000000b17217f80f4ef5aadda455540260801c5b600083638000000016600f0b13156112aa5770010000000058b90bfbf8479bd5a81b51ad0260801c5b600083634000000016600f0b13156112d3577001000000002c5c85fdf84bd62ae30a74cc0260801c5b600083632000000016600f0b13156112fc57700100000000162e42fefb2fed257559bdaa0260801c5b600083631000000016600f0b1315611325577001000000000b17217f7d5a7716bba4a9ae0260801c5b600083630800000016600f0b131561134e57700100000000058b90bfbe9ddbac5e109cce0260801c5b600083630400000016600f0b13156113775770010000000002c5c85fdf4b15de6f17eb0d0260801c5b600083630200000016600f0b13156113a0577001000000000162e42fefa494f1478fde050260801c5b600083630100000016600f0b13156113c95770010000000000b17217f7d20cf927c8e94c0260801c5b6000836280000016600f0b13156113f1577001000000000058b90bfbe8f71cb4e4b33d0260801c5b6000836240000016600f0b131561141957700100000000002c5c85fdf477b662b269450260801c5b6000836220000016600f0b13156114415770010000000000162e42fefa3ae53369388c0260801c5b6000836210000016600f0b131561146957700100000000000b17217f7d1d351a389d400260801c5b6000836208000016600f0b13156114915770010000000000058b90bfbe8e8b2d3d4ede0260801c5b6000836204000016600f0b13156114b9577001000000000002c5c85fdf4741bea6e77e0260801c5b6000836202000016600f0b13156114e157700100000000000162e42fefa39fe95583c20260801c5b6000836201000016600f0b1315611509577001000000000000b17217f7d1cfb72b45e10260801c5b60008361800016600f0b131561153057700100000000000058b90bfbe8e7cc35c3f00260801c5b60008361400016600f0b13156115575770010000000000002c5c85fdf473e242ea380260801c5b60008361200016600f0b131561157e577001000000000000162e42fefa39f02b772c0260801c5b60008361100016600f0b13156115a55770010000000000000b17217f7d1cf7d83c1a0260801c5b60008361080016600f0b13156115cc577001000000000000058b90bfbe8e7bdcbe2e0260801c5b60008361040016600f0b13156115f357700100000000000002c5c85fdf473dea871f0260801c5b60008361020016600f0b131561161a5770010000000000000162e42fefa39ef44d910260801c5b60008361010016600f0b131561164157700100000000000000b17217f7d1cf79e9490260801c5b600083608016600f0b13156116675770010000000000000058b90bfbe8e7bce5440260801c5b600083604016600f0b131561168d577001000000000000002c5c85fdf473de6eca0260801c5b600083602016600f0b13156116b357700100000000000000162e42fefa39ef366f0260801c5b600083601016600f0b13156116d9577001000000000000000b17217f7d1cf79afa0260801c5b600083600816600f0b13156116ff57700100000000000000058b90bfbe8e7bcd6d0260801c5b600083600416600f0b13156117255770010000000000000002c5c85fdf473de6b20260801c5b600083600216600f0b131561174b577001000000000000000162e42fefa39ef3580260801c5b600083600116600f0b13156117715770010000000000000000b17217f7d1cf79ab0260801c5b600f83810b60401d603f03900b1c60016001607f1b038111156102db57600080fd5b60008082600f0b136117a457600080fd5b6000600f83900b600160401b81126117be576040918201911d5b64010000000081126117d2576020918201911d5b6201000081126117e4576010918201911d5b61010081126117f5576008918201911d5b60108112611805576004918201911d5b60048112611815576002918201911d5b60028112611824576001820191505b603f19820160401b600f85900b607f8490031b6001603f1b5b60008113156118635790800260ff81901c8281029390930192607f011c9060011d61183d565b509095945050505050565b600060208083528351808285015260005b8181101561189b5785810183015185820160400152820161187f565b506000604082860101526040601f19601f8301168501019250505092915050565b600080604083850312156118cf57600080fd5b50508035926020909101359150565b8035600f81900b81146105c457600080fd5b6000806040838503121561190357600080fd5b61190c836118de565b915061191a602084016118de565b90509250929050565b6000806000806080858703121561193957600080fd5b5050823594602084013594506040840135936060013592509050565b60006020828403121561196757600080fd5b5035919050565b60006020828403121561198057600080fd5b610264826118de565b60008060006060848603121561199e57600080fd5b6119a7846118de565b92506119b5602085016118de565b91506119c3604085016118de565b90509250925092565b60008060008060008060c087890312156119e557600080fd5b6119ee876118de565b9860208801359850604088013597606081013597506080810135965060a00135945092505050565b600080600060608486031215611a2b57600080fd5b505081359360208301359350604090920135919050565b634e487b7160e01b600052601260045260246000fd5b600082611a7557634e487b7160e01b600052601260045260246000fd5b500490565b600081600f0b60016001607f1b03198103611aa557634e487b7160e01b600052601160045260246000fd5b60000392915050565b634e487b7160e01b600052600160045260246000fdfea2646970667358221220b51af6782c8b81e26eca1bcc0f6a5dd842c2d758044e8a1618d4bd78685609db64736f6c63430008140033","linkReferences":{}},"methodIdentifiers":{"PRECISION()":"aaf5eb68","getbaseGivenquote(int128,uint256,uint256,uint256,uint256,uint256)":"9706eecf","name()":"06fdde03","scaleFactorbase()":"48103881","scaleFactorquote()":"679cf5ce","set(uint256,uint256)":"1ab06ee5","step0(uint256)":"cb215374","step1(uint256,uint256)":"e5f2cfcb","step2(uint256)":"9b48eda4","step3(int128)":"5eded84c","step4(int128,int128)":"2bf02fbe","step5(int128,int128,int128)":"7b599b03","testStep3(uint256)":"43d76320","testStep4(uint256,uint256,uint256)":"a2e50a2b","testStep5(uint256,uint256,uint256,uint256)":"318f8e64"},"id":49}