{"abi":[{"type":"function","name":"C0","inputs":[],"outputs":[{"name":"","type":"int128","internalType":"int128"}],"stateMutability":"view"},{"type":"function","name":"C0_D","inputs":[],"outputs":[{"name":"","type":"int128","internalType":"int128"}],"stateMutability":"view"},{"type":"function","name":"C1","inputs":[],"outputs":[{"name":"","type":"int128","internalType":"int128"}],"stateMutability":"view"},{"type":"function","name":"C1_D","inputs":[],"outputs":[{"name":"","type":"int128","internalType":"int128"}],"stateMutability":"view"},{"type":"function","name":"C2","inputs":[],"outputs":[{"name":"","type":"int128","internalType":"int128"}],"stateMutability":"view"},{"type":"function","name":"C2_D","inputs":[],"outputs":[{"name":"","type":"int128","internalType":"int128"}],"stateMutability":"view"},{"type":"function","name":"C3","inputs":[],"outputs":[{"name":"","type":"int128","internalType":"int128"}],"stateMutability":"view"},{"type":"function","name":"CDF0","inputs":[],"outputs":[{"name":"","type":"int128","internalType":"int128"}],"stateMutability":"view"},{"type":"function","name":"CDF1","inputs":[],"outputs":[{"name":"","type":"int128","internalType":"int128"}],"stateMutability":"view"},{"type":"function","name":"CDF2","inputs":[],"outputs":[{"name":"","type":"int128","internalType":"int128"}],"stateMutability":"view"},{"type":"function","name":"CDF3","inputs":[],"outputs":[{"name":"","type":"int128","internalType":"int128"}],"stateMutability":"view"},{"type":"function","name":"CDF4","inputs":[],"outputs":[{"name":"","type":"int128","internalType":"int128"}],"stateMutability":"view"},{"type":"function","name":"CDF5","inputs":[],"outputs":[{"name":"","type":"int128","internalType":"int128"}],"stateMutability":"view"},{"type":"function","name":"D0","inputs":[],"outputs":[{"name":"","type":"int128","internalType":"int128"}],"stateMutability":"view"},{"type":"function","name":"D1","inputs":[],"outputs":[{"name":"","type":"int128","internalType":"int128"}],"stateMutability":"view"},{"type":"function","name":"HALF_INT","inputs":[],"outputs":[{"name":"","type":"int128","internalType":"int128"}],"stateMutability":"view"},{"type":"function","name":"HIGH_TAIL","inputs":[],"outputs":[{"name":"","type":"int128","internalType":"int128"}],"stateMutability":"view"},{"type":"function","name":"INVERSE0","inputs":[],"outputs":[{"name":"","type":"int128","internalType":"int128"}],"stateMutability":"view"},{"type":"function","name":"INVERSE1","inputs":[],"outputs":[{"name":"","type":"int128","internalType":"int128"}],"stateMutability":"view"},{"type":"function","name":"INVERSE2","inputs":[],"outputs":[{"name":"","type":"int128","internalType":"int128"}],"stateMutability":"view"},{"type":"function","name":"INVERSE3","inputs":[],"outputs":[{"name":"","type":"int128","internalType":"int128"}],"stateMutability":"view"},{"type":"function","name":"INVERSE4","inputs":[],"outputs":[{"name":"","type":"int128","internalType":"int128"}],"stateMutability":"view"},{"type":"function","name":"LOW_TAIL","inputs":[],"outputs":[{"name":"","type":"int128","internalType":"int128"}],"stateMutability":"view"},{"type":"function","name":"ONE_INT","inputs":[],"outputs":[{"name":"","type":"int128","internalType":"int128"}],"stateMutability":"view"},{"type":"function","name":"TWO_INT","inputs":[],"outputs":[{"name":"","type":"int128","internalType":"int128"}],"stateMutability":"view"},{"type":"error","name":"InverseOutOfBounds","inputs":[{"name":"value","type":"int128","internalType":"int128"}]}],"bytecode":{"object":"0x61035b61003a600b82828239805160001a60731461002d57634e487b7160e01b600052600060045260246000fd5b30600052607381538281f3fe730000000000000000000000000000000000000000301460806040526004361061017d5760003560e01c80638f02fac9116100e8578063c6ca550c116100a1578063cdb591911161007b578063cdb59191146102e5578063edc829ab146102f5578063f738c74e14610305578063f8674ddd1461031557600080fd5b8063c6ca550c146102b4578063c8daa924146102c4578063ccb4d480146102d457600080fd5b80638f02fac914610257578063ac0c039f14610267578063ac5718fb14610276578063b1f891e914610286578063ba98ba8414610295578063bd2aedb3146102a457600080fd5b8063560140631161013a57806356014063146101f85780635f839f83146102085780635ffcb26b146102175780636934cdbe1461022657806373ee9cd7146102365780638b30ff831461024757600080fd5b80630f354d16146101825780631a21ab46146101aa5780631f3ca392146101b95780631fc2044c146101c957806347deec2d146101da5780634900b417146101e9575b600080fd5b6101936802cb2447d36d513dad1981565b604051600f9190910b815260200160405180910390f35b61019367800000000000000081565b6101936810e56d75ce8bce9fae81565b6101936808bb4226952bd69ede1981565b6101936753dd02a4f5ee2e4681565b61019367f99999999999999981565b61019367c2bf5d74c724e53e1981565b6101936721d0a04b0e9b94f181565b6101936726a8f3c1f21b336e81565b61019368015d71f5721242c78781565b6101936801000bf627fa1884101981565b61019368016a09e667f3bcc90881565b6101936802000000000000000081565b61019367066666666666666681565b6101936748d4c730f051a5fd1981565b61019367413c831bb169f87481565b6101936707a1e70f720eca4381565b6101936801000000000000000081565b6101936808c27b4617f5f800ea81565b6101936810aeac93f55267a9a581565b61019368017401c57014c38f131981565b6101936787c57e5da70d3c8f1981565b61019368010fb844255a12d72e81565b61019368072c7d592d021fb1db81565b61019368041ed34a25614902368156fea2646970667358221220cc7b63634f98195d75c45302d17d052c8b7723b5d682e63e9eaa9b86f9eb450764736f6c63430008140033","linkReferences":{}},"methodIdentifiers":{"C0()":"1f3ca392","C0_D()":"c8daa924","C1()":"0f354d16","C1_D()":"f8674ddd","C2()":"1fc2044c","C2_D()":"ba98ba84","C3()":"73ee9cd7","CDF0()":"47deec2d","CDF1()":"b1f891e9","CDF2()":"ac5718fb","CDF3()":"8b30ff83","CDF4()":"ccb4d480","CDF5()":"edc829ab","D0()":"f738c74e","D1()":"c6ca550c","HALF_INT()":"1a21ab46","HIGH_TAIL()":"4900b417","INVERSE0()":"5ffcb26b","INVERSE1()":"cdb59191","INVERSE2()":"6934cdbe","INVERSE3()":"5f839f83","INVERSE4()":"56014063","LOW_TAIL()":"ac0c039f","ONE_INT()":"bd2aedb3","TWO_INT()":"8f02fac9"},"id":28}