{"abi":[{"type":"constructor","inputs":[],"stateMutability":"nonpayable"},{"type":"function","name":"MIN_LIQUIDITY_FACTOR","inputs":[],"outputs":[{"name":"","type":"uint256","internalType":"uint256"}],"stateMutability":"view"},{"type":"function","name":"args","inputs":[],"outputs":[{"name":"factory","type":"address","internalType":"address"},{"name":"quote","type":"address","internalType":"address"},{"name":"base","type":"address","internalType":"address"},{"name":"scaleFactorquote","type":"uint256","internalType":"uint256"},{"name":"scaleFactorbase","type":"uint256","internalType":"uint256"},{"name":"minLiquidity","type":"uint256","internalType":"uint256"}],"stateMutability":"view"},{"type":"function","name":"deploy","inputs":[{"name":"quote","type":"address","internalType":"address"},{"name":"base","type":"address","internalType":"address"}],"outputs":[{"name":"engine","type":"address","internalType":"address"}],"stateMutability":"nonpayable"},{"type":"function","name":"deployer","inputs":[],"outputs":[{"name":"","type":"address","internalType":"address"}],"stateMutability":"view"},{"type":"function","name":"getEngine","inputs":[{"name":"","type":"address","internalType":"address"},{"name":"","type":"address","internalType":"address"}],"outputs":[{"name":"","type":"address","internalType":"address"}],"stateMutability":"view"},{"type":"event","name":"DeployEngine","inputs":[{"name":"from","type":"address","indexed":true,"internalType":"address"},{"name":"quote","type":"address","indexed":true,"internalType":"address"},{"name":"base","type":"address","indexed":true,"internalType":"address"},{"name":"engine","type":"address","indexed":false,"internalType":"address"}],"anonymous":false},{"type":"error","name":"DecimalsError","inputs":[{"name":"decimals","type":"uint256","internalType":"uint256"}]},{"type":"error","name":"DeployedError","inputs":[]},{"type":"error","name":"SameTokenError","inputs":[]},{"type":"error","name":"ZeroAddressError","inputs":[]}],"bytecode":{"object":"0x60a060405234801561001057600080fd5b5033608052608051614633610030600039600061014201526146336000f3fe608060405234801561001057600080fd5b50600436106100575760003560e01c806345d9b6631461005c5780634e9b75b614610077578063545e7c61146100e157806362f7f9181461010c578063d5f394881461013d575b600080fd5b610064600681565b6040519081526020015b60405180910390f35b6001546002546003546004546005546006546100a3956001600160a01b03908116958116941692919086565b604080516001600160a01b039788168152958716602087015293909516928401929092526060830152608082015260a081019190915260c00161006e565b6100f46100ef366004610534565b610164565b6040516001600160a01b03909116815260200161006e565b6100f461011a366004610534565b60006020818152928152604080822090935290815220546001600160a01b031681565b6100f47f000000000000000000000000000000000000000000000000000000000000000081565b6000816001600160a01b0316836001600160a01b03160361019857604051633b0e2de560e21b815260040160405180910390fd5b6001600160a01b03831615806101b557506001600160a01b038216155b156101d357604051633efa09af60e01b815260040160405180910390fd5b6001600160a01b038381166000908152602081815260408083208685168452909152902054161561021757604051634e53fce760e01b815260040160405180910390fd5b61022230848461029a565b6001600160a01b038481166000818152602081815260408083208886168085529083529281902080546001600160a01b03191695871695861790555193845293945092909133917f53debfbd8fbd7a456afa9b03b44ec9c24f35d9b2d62d8713a7906c5b51dcf158910160405180910390a492915050565b6000806000846001600160a01b031663313ce5676040518163ffffffff1660e01b8152600401602060405180830381865afa1580156102dd573d6000803e3d6000fd5b505050506040513d601f19601f820116820180604052508101906103019190610567565b846001600160a01b031663313ce5676040518163ffffffff1660e01b8152600401602060405180830381865afa15801561033f573d6000803e3d6000fd5b505050506040513d601f19601f820116820180604052508101906103639190610567565b60ff16915060ff169150601282118061037c5750600682105b156103a25760405163afaabd8360e01b8152600481018390526024015b60405180910390fd5b60128111806103b15750600681105b156103d25760405163afaabd8360e01b815260048101829052602401610399565b6012828103600a90810a91839003900a60008385116103f157846103f3565b835b6040805160c0810182526001600160a01b038c81168083528c82166020808501829052928d1684860181905260608086018b9052608086018a9052600697889004600a0a60a0909601869052600180546001600160a01b0319908116909517905560028054851684179055600380549094168217909355600499909955600597909755919093558151928301949094528101939093525001604051602081830303815290604052805190602001206040516104ad9061050b565b8190604051809103906000f59050801580156104cd573d6000803e3d6000fd5b50600180546001600160a01b031990811690915560028054821690556003805490911690556000600481905560058190556006559695505050505050565b61406c8061059283390190565b80356001600160a01b038116811461052f57600080fd5b919050565b6000806040838503121561054757600080fd5b61055083610518565b915061055e60208401610518565b90509250929050565b60006020828403121561057957600080fd5b815160ff8116811461058a57600080fd5b939250505056fe61014060405260016000553480156200001757600080fd5b50336001600160a01b0316634e9b75b66040518163ffffffff1660e01b815260040160c060405180830381865afa15801562000057573d6000803e3d6000fd5b505050506040513d601f19601f820116820180604052508101906200007d9190620000c3565b60805260c05260a0526001600160a01b0390811661012052908116610100521660e05262000129565b80516001600160a01b0381168114620000be57600080fd5b919050565b60008060008060008060c08789031215620000dd57600080fd5b620000e887620000a6565b9550620000f860208801620000a6565b94506200010860408801620000a6565b9350606087015192506080870151915060a087015190509295509295509295565b60805160a05160c05160e0516101005161012051613e91620001db6000396000818161032901528181610aa3015281816114f20152611d060152600081816103e801528181610a69015281816116070152611bf30152600061049c0152600081816103b90152818161067d01528181610bca01526113ed0152600081816104e90152818161065c01528181610ba801526113cc01526000818161020d01528181610cbf0152610f670152613e916000f3fe608060405234801561001057600080fd5b506004361061012b5760003560e01c8063999b93af116100ad578063be00763a11610071578063be00763a14610469578063c45a015514610497578063ca28fcd6146104be578063d2957b8f146104d1578063e3c0986a146104e457600080fd5b8063999b93af146103e35780639e48ff5a1461040a5780639f8cfade1461041f578063aaf5eb6814610447578063b5c5f6721461045657600080fd5b80635001f3b5116100f45780635001f3b514610324578063546fecae146103635780636b35bb6b14610389578063886a4eba146103b45780638fbc3ecd146103db57600080fd5b8062bbf1e41461013057806311f99086146101e057806321b77d631461020857806323c5b9521461023d57806338820465146102d0575b600080fd5b61018f61013e36600461390b565b6003602081905260009182526040909120805460018201546002830154938301546004909301546001600160801b0380841695600160801b948590048216959184169490930463ffffffff16929187565b604080516001600160801b0398891681529688166020880152949096169385019390935263ffffffff919091166060840152608083015260a082015260c081019190915260e0015b60405180910390f35b6101f36101ee36600461390b565b61050b565b60405163ffffffff90911681526020016101d7565b61022f7f000000000000000000000000000000000000000000000000000000000000000081565b6040519081526020016101d7565b61029361024b36600461390b565b6001602052600090815260409020546001600160801b0381169063ffffffff600160801b8204811691600160a01b8104821691600160c01b8204811691600160e01b90041685565b604080516001600160801b03909616865263ffffffff9485166020870152928416928501929092528216606084015216608082015260a0016101d7565b6103046102de36600461393b565b6002602052600090815260409020546001600160801b0380821691600160801b90041682565b604080516001600160801b039384168152929091166020830152016101d7565b61034b7f000000000000000000000000000000000000000000000000000000000000000081565b6040516001600160a01b0390911681526020016101d7565b61037661037136600461390b565b610548565b604051600f9190910b81526020016101d7565b61022f610397366004613956565b600460209081526000928352604080842090915290825290205481565b61022f7f000000000000000000000000000000000000000000000000000000000000000081565b61022f607881565b61034b7f000000000000000000000000000000000000000000000000000000000000000081565b61041d6104183660046139c9565b6106cd565b005b61043261042d366004613a31565b610848565b604080519283526020830191909152016101d7565b61022f670de0b6b3a764000081565b61041d610464366004613a53565b6109f7565b61047c610477366004613a9a565b610b1a565b604080519384526020840192909252908201526060016101d7565b61034b7f000000000000000000000000000000000000000000000000000000000000000081565b61041d6104cc366004613b52565b611111565b61022f6104df366004613bfe565b611757565b61022f7f000000000000000000000000000000000000000000000000000000000000000081565b6000805460011461052f57604051635cd4e48360e01b815260040160405180910390fd5b600260005561053d826119d6565b600160005592915050565b6000818152600160209081526040808320815160a08101835290546001600160801b038116825263ffffffff600160801b8204811694830194909452600160a01b81048416928201839052600160c01b8104841660608301819052600160e01b90910490931660808201529183916105c09190613c98565b6000858152600360208181526040808420815160e08101835281546001600160801b038082168352600160801b9182900481169583019590955260018301549485169382019390935263ffffffff9290930482166060840152600281015460808401529283015460a083015260049092015460c0820152929350909182916106539190670de0b6b3a764000090611a8216565b915091506106c37f00000000000000000000000000000000000000000000000000000000000000007f0000000000000000000000000000000000000000000000000000000000000000848488600001516001600160801b0316896020015163ffffffff168963ffffffff16611ae1565b9695505050505050565b6000546001146106f057604051635cd4e48360e01b815260040160405180910390fd5b600260005583158015610701575082155b1561071f576040516381552f0360e01b815260040160405180910390fd5b6001600160a01b0385166000908152600260205260409020610742908585611b2f565b600080851561075657610753611bd9565b91505b841561076757610764611cec565b90505b60405163c536e60560e01b8152339063c536e60590610790908990899089908990600401613ce5565b600060405180830381600087803b1580156107aa57600080fd5b505af11580156107be573d6000803e3d6000fd5b50505050856000146107dc576107dc6107d78784613d05565b611d38565b84156107f4576107f46107ef8683613d05565b611d73565b60408051878152602081018790526001600160a01b0389169133917fdcbc1c05240f31ff3ad067ef1ee35ce4997762752e3a095284754544f4c709d7910160405180910390a3505060016000555050505050565b60008060005460011461086e57604051635cd4e48360e01b815260040160405180910390fd5b600260009081558390036108955760405163e5664db760e01b815260040160405180910390fd5b600084815260036020526040812060018101549091600160801b90910463ffffffff1690036108d757604051631d2ad63f60e01b815260040160405180910390fd5b6040805160e08101825282546001600160801b038082168352600160801b918290048116602084015260018501549081169383019390935263ffffffff92048216606082015260028301546080820152600383015460a0820152600483015460c0820152610947918690611a8216565b3360009081526004602090815260408083208a8452909152812080549396509194508692610976908490613d18565b9091555061098990508184848742611daa565b3360009081526002602052604090206109a3908484611b2f565b6040805184815260208101849052908101859052859033907f59c6598fc34aefe62579a03667748ef83b4682874f311affb26b318095359b0e9060600160405180910390a350600160005590939092509050565b600054600114610a1a57604051635cd4e48360e01b815260040160405180910390fd5b600260005581158015610a2b575080155b15610a49576040516381552f0360e01b815260040160405180910390fd5b610a5560028383611e9c565b508115610a9057610a906001600160a01b037f0000000000000000000000000000000000000000000000000000000000000000168484611f57565b8015610aca57610aca6001600160a01b037f0000000000000000000000000000000000000000000000000000000000000000168483611f57565b60408051838152602081018390526001600160a01b0385169133917ff341246adaac6f497bc2a656f546ab9e182111d630394f0c57c710a59a2cb567910160405180910390a35050600160005550565b60008060008054600114610b4157604051635cd4e48360e01b815260040160405180910390fd5b60026000556040516bffffffffffffffffffffffff193060601b1660208201526fffffffffffffffffffffffffffffffff1960808d901b1660348201526001600160e01b031960e08c811b821660448401528b811b821660488401528a901b16604c8201527f0000000000000000000000000000000000000000000000000000000000000000907f00000000000000000000000000000000000000000000000000000000000000009060500160408051808303601f19018152918152815160209283012060008181526001909352912054909550600160c01b900463ffffffff1615610c4057604051633651818b60e21b815260040160405180910390fd5b629896808c63ffffffff161180610c5d575060018c63ffffffff16105b15610c88576040516387a2c00160e01b815263ffffffff8d1660048201526024015b60405180910390fd5b8c6001600160801b0316600003610cbd5760405163b3f4bc5560e01b81526001600160801b038e166004820152602401610c7f565b7f00000000000000000000000000000000000000000000000000000000000000008811610d005760405163325951a560e01b815260048101899052602401610c7f565b610d1282670de0b6b3a7640000613d41565b891180610d1d575088155b15610d3e57604051636f727c3f60e01b8152600481018a9052602401610c7f565b6127108a63ffffffff161180610d5b57506123288a63ffffffff16105b15610d8157604051637ed91fa560e11b815263ffffffff8b166004820152602401610c7f565b60006040518060a001604052808f6001600160801b031681526020018e63ffffffff1681526020018d63ffffffff168152602001610dbc4290565b63ffffffff1681526020018c63ffffffff168152509050806040015163ffffffff16816060015163ffffffff161115610e085760405163536e15e160e01b815260040160405180910390fd5b600081606001518260400151610e1e9190613c98565b9050610e4d600085858e86600001516001600160801b0316876020015163ffffffff168763ffffffff16612062565b9450670de0b6b3a7640000610e628b8d613d63565b610e6c9190613d41565b9550670de0b6b3a7640000610e818b87613d63565b610e8b9190613d41565b9450851580610e98575084155b15610ec05760405163492d6d1760e01b81526004810187905260248101869052604401610c7f565b6000878152600160209081526040808320855181549387015192870151606088015160808901516001600160801b039093166001600160a01b031990961695909517600160801b63ffffffff958616021767ffffffffffffffff60a01b1916600160a01b9185169190910263ffffffff60c01b191617600160c01b94841694909402939093176001600160e01b0316600160e01b9290931691909102919091179055610f8c7f00000000000000000000000000000000000000000000000000000000000000008c613d18565b3360009081526004602090815260408083208c8452909152812080549293508392909190610fbb908490613d05565b909155505060608301516000898152600360205260409020610fe291899089908f90612138565b600080610fed611bd9565b610ff5611cec565b91509150336001600160a01b031663c171d27e8a8a8f8f6040518563ffffffff1660e01b815260040161102b9493929190613ce5565b600060405180830381600087803b15801561104557600080fd5b505af1158015611059573d6000803e3d6000fd5b5050505061106c89836107d79190613d05565b6110796107ef8983613d05565b60808086015160408088015188516020808b015184516001600160801b03909316835263ffffffff908116918301919091529281018e9052606081018d90529384018790529181169291169033907ff38f2bc2b712352b1d4a9ea95291a1c688835ac9f70a7a9d0aec57712c8b19129060a00160405180910390a4505050505050506001600081905550985098509895505050505050565b60005460011461113457604051635cd4e48360e01b815260040160405180910390fd5b6002600090815586900361115b57604051631411378d60e11b815260040160405180910390fd5b8460000361117c5760405163564b486560e01b815260040160405180910390fd5b60006040518061010001604052808b6001600160a01b031681526020018915158152602001861515815260200185151581526020016111b84290565b63ffffffff1681526020018a815260200188815260200187815250905060006111e48260a001516119d6565b90506111f7607863ffffffff8316613d05565b826080015163ffffffff1611156112215760405163536e15e160e01b815260040160405180910390fd5b60006112308360a00151610548565b60a08085018051600090815260016020908152604080832081519586018252546001600160801b038116865263ffffffff600160801b8204811687850152600160a01b82048116878401908152600160c01b8304821660608901908152600160e01b9093049091166080880152945184526003909252822090519251949550929390916112bc91613c98565b90506000612710846080015163ffffffff168860c001516112dd9190613d63565b6112e79190613d41565b905060008088602001511561133357845461130c9084906001600160801b0316613d05565b855490925061132c908f90600160801b90046001600160801b0316613d18565b905061136c565b8454611349908f906001600160801b0316613d18565b8554909250611369908490600160801b90046001600160801b0316613d05565b90505b60018501546001600160801b031661138c670de0b6b3a764000084613d63565b6113969190613d41565b60018601549092506001600160801b03166113b9670de0b6b3a764000083613d63565b6113c39190613d41565b905060006114337f00000000000000000000000000000000000000000000000000000000000000007f000000000000000000000000000000000000000000000000000000000000000085858b600001516001600160801b03168c6020015163ffffffff168b63ffffffff16611ae1565b905080600f0b88600f0b131561146a57604051630cd4424b60e41b8152600f89810b600483015282900b6024820152604401610c7f565b6114938a602001518b60c001518c60e001518d608001518a6121ff90949392919063ffffffff16565b505050505050508260200151156115ba578260600151156114dd5760e083015183516001600160a01b031660009081526002602052604081206114d892909190611b2f565b611518565b825160e0840151611518916001600160a01b037f00000000000000000000000000000000000000000000000000000000000000001691611f57565b82604001511561153b5760c0830151611535906002906000611e9c565b506116cd565b6000611545611bd9565b60c085015160405163491dc51560e11b8152919250339163923b8a2a91611575916000908b908b90600401613ce5565b600060405180830381600087803b15801561158f57600080fd5b505af11580156115a3573d6000803e3d6000fd5b505050506115358460c00151826107d79190613d05565b8260600151156115f25760e083015183516001600160a01b031660009081526002602052604081206115ed929091611b2f565b61162d565b825160e084015161162d916001600160a01b037f00000000000000000000000000000000000000000000000000000000000000001691611f57565b82604001511561164b5760c083015161153590600290600090611e9c565b6000611655611cec565b60c085015160405163491dc51560e11b8152919250339163923b8a2a9161168691600091908b908b90600401613ce5565b600060405180830381600087803b1580156116a057600080fd5b505af11580156116b4573d6000803e3d6000fd5b505050506116cb8460c00151826107ef9190613d05565b505b8260a0015183600001516001600160a01b0316336001600160a01b03167fe42b42fe878e256d1efbfb2ba292aadeac0228bbaa31f4ef8537522bdfa3ea1986602001518760c001518860e0015160405161173c9392919092151583526020830191909152604082015260600190565b60405180910390a45050600160005550505050505050505050565b6000805460011461177b57604051635cd4e48360e01b815260040160405180910390fd5b600260005585158061178b575084155b156117a9576040516381552f0360e01b815260040160405180910390fd5b600088815260036020526040812060018101549091600160801b90910463ffffffff1690036117eb57604051631d2ad63f60e01b815260040160405180910390fd5b8054600182015442916000916001600160801b039182169161180e91168b613d63565b6118189190613d41565b835460018501549192506000916001600160801b03600160801b90920482169161184391168b613d63565b61184d9190613d41565b905080821061185c578061185e565b815b9450846000036118815760405163e5664db760e01b815260040160405180910390fd5b6001600160a01b038b1660009081526004602090815260408083208f8452909152812080548792906118b4908490613d05565b909155506118c79050848b8b8887612138565b87156118df576118d960028b8b611e9c565b50611971565b6000806118ea611bd9565b6118f2611cec565b6040516302a3517f60e31b81529193509150339063151a8bf890611920908f908f908e908e90600401613ce5565b600060405180830381600087803b15801561193a57600080fd5b505af115801561194e573d6000803e3d6000fd5b505050506119618c836107d79190613d05565b61196e6107ef8c83613d05565b50505b604080518b8152602081018b90529081018690528c906001600160a01b038d169033907f86e4803447f73017bf832b0ac69cb7afa3333a5fa823ec42a9f6cf8d17b50ecc9060600160405180910390a450506001600055509098975050505050505050565b60008181526001602052604081208054600160c01b900463ffffffff168203611a1257604051631d2ad63f60e01b815260040160405180910390fd5b8054429250600160a01b900463ffffffff908116908316811015611a34578092505b815463ffffffff60c01b1916600160c01b63ffffffff85160217825560405184907fd69bdb2831892ad6046f30af0f12362aef46cce34d58ed7ad9b3ef8c44b1b46690600090a25050919050565b6040820151825160009182916001600160801b03918216918291611aa7911686613d63565b611ab19190613d41565b92508085602001516001600160801b031685611acd9190613d63565b611ad79190613d41565b9150509250929050565b600080611af460008a8a8a898989612062565b90506000611b02828a61231e565b90506000611b10888b61231e565b9050611b20600f82900b83612347565b9b9a5050505050505050505050565b8115611b7e57611b3e82612384565b83548490600090611b599084906001600160801b0316613d7a565b92506101000a8154816001600160801b0302191690836001600160801b031602179055505b8015611bd457611b8d81612384565b83548490601090611baf908490600160801b90046001600160801b0316613d7a565b92506101000a8154816001600160801b0302191690836001600160801b031602179055505b505050565b604051306024820152600090819081906001600160a01b037f000000000000000000000000000000000000000000000000000000000000000016906370a0823160e01b906044015b60408051601f198184030181529181526020820180516001600160e01b03166001600160e01b0319909416939093179092529051611c5f9190613d9a565b600060405180830381855afa9150503d8060008114611c9a576040519150601f19603f3d011682016040523d82523d6000602084013e611c9f565b606091505b5091509150811580611cb357508051602014155b15611cd15760405163056a754560e51b815260040160405180910390fd5b80806020019051810190611ce59190613dc9565b9250505090565b604051306024820152600090819081906001600160a01b037f000000000000000000000000000000000000000000000000000000000000000016906370a0823160e01b90604401611c21565b6000611d42611bd9565b905081811015611d6f57604051636c54343560e11b81526004810183905260248101829052604401610c7f565b5050565b6000611d7d611cec565b905081811015611d6f57604051631b1ed24960e11b81526004810183905260248101829052604401610c7f565b611db4858261239e565b611dbd84612384565b85548690600090611dd89084906001600160801b0316613de2565b92506101000a8154816001600160801b0302191690836001600160801b03160217905550611e0583612384565b85548690601090611e27908490600160801b90046001600160801b0316613de2565b92506101000a8154816001600160801b0302191690836001600160801b03160217905550611e5482612384565b600186018054600090611e719084906001600160801b0316613de2565b92506101000a8154816001600160801b0302191690836001600160801b031602179055505050505050565b3360009081526020849052604090208215611efa57611eba83612384565b81548290600090611ed59084906001600160801b0316613de2565b92506101000a8154816001600160801b0302191690836001600160801b031602179055505b8115611f5057611f0982612384565b81548290601090611f2b908490600160801b90046001600160801b0316613de2565b92506101000a8154816001600160801b0302191690836001600160801b031602179055505b9392505050565b604080516001600160a01b038481166024830152604480830185905283518084039091018152606490920183526020820180516001600160e01b031663a9059cbb60e01b1790529151600092839290871691611fb39190613d9a565b6000604051808303816000865af19150503d8060008114611ff0576040519150601f19603f3d011682016040523d82523d6000602084013e611ff5565b606091505b509150915081801561201f57508051158061201f57508080602001905181019061201f9190613e02565b61205b5760405162461bcd60e51b815260206004820152600d60248201526c151c985b9cd9995c8819985a5b609a1b6044820152606401610c7f565b5050505050565b60008061206f858861231e565b9050600061207d878a61231e565b9050600061208f600160401b83612347565b9050841561210b5760006120a38787612433565b905060006120b383600f0b612470565b905060006120c5600f83900b84612347565b905060006120f08f6120e76120dc85600f0b61252a565b600f8b900b906125c7565b600f0b906125fd565b9050612100600f82900b8e612630565b97505050505061212a565b611b20896121218d6120e7600f88900b866125c7565b600f0b90612630565b505050979650505050505050565b612142858261239e565b61214b84612384565b855486906000906121669084906001600160801b0316613d7a565b92506101000a8154816001600160801b0302191690836001600160801b0316021790555061219383612384565b855486906010906121b5908490600160801b90046001600160801b0316613d7a565b92506101000a8154816001600160801b0302191690836001600160801b031602179055506121e282612384565b600186018054600090611e719084906001600160801b0316613d7a565b612209858261239e565b83156122ab5761221883612384565b855486906000906122339084906001600160801b0316613d7a565b92506101000a8154816001600160801b0302191690836001600160801b0316021790555061226082612384565b85548690601090612282908490600160801b90046001600160801b0316613de2565b92506101000a8154816001600160801b0302191690836001600160801b0316021790555061205b565b6122b482612384565b855486906000906122cf9084906001600160801b0316613de2565b92506101000a8154816001600160801b0302191690836001600160801b031602179055506122fc83612384565b85548690601090611e71908490600160801b90046001600160801b0316613d7a565b60008061233383670de0b6b3a7640000613d41565b905061233f8482612655565b949350505050565b6000600f82810b9084900b0360016001607f1b03198112801590612372575060016001607f1b038113155b61237b57600080fd5b90505b92915050565b60006001600160801b0382111561239a57600080fd5b5090565b60018201546000906123bd90600160801b900463ffffffff1683613c98565b905063ffffffff811615611bd457825460028401805463ffffffff9384166001600160801b038085168202909201909255600386018054600160801b94859004831684020190556001860180546004909701805492881690930290910190915563ffffffff60801b199094169290911602179055565b60008061244a6124428461268f565b600f0b61269f565b90506000612457856126c1565b9050612467600f82900b836125c7565b95945050505050565b6000600160401b600f83900b12158061248d5750600082600f0b13155b156124b157604051630e59931d60e31b8152600f83900b6004820152602401610c7f565b67f999999999999999600f83900b138015906124d95750670666666666666666600f83900b12155b156124e75761237e826126cf565b670666666666666666600f83900b12156125045761237e82612776565b600061251c612517600160401b85612347565b612776565b611f5090613e1f565b919050565b600080612544600f84900b68016a09e667f3bcc908612840565b9050600061258261257761256c61255d85600f0b612897565b6753dd02a4f5ee2e46906125c7565b600160401b906125fd565b600160401b90612840565b9050600061259083836128c5565b9050600083600f0b12156125ad576125aa81600f0b612995565b90505b60006106c36125c0600160401b846125fd565b6001603f1b905b6000600f83810b9083900b0260401d60016001607f1b03198112801590612372575060016001607f1b0381131561237b57600080fd5b6000600f83810b9083900b0160016001607f1b03198112801590612372575060016001607f1b0381131561237b57600080fd5b60008061264583670de0b6b3a7640000613d41565b905061233f600f85900b826129ab565b60008160000361266457600080fd5b60006126708484612a16565b905060016001607f1b036001600160801b038216111561237b57600080fd5b600061237e826301e18558612655565b60008082600f0b12156126b157600080fd5b61237e604083600f0b901b612b7b565b600061237e82612710612655565b6000806126e4600f84900b6001603f1b612347565b905060006126f6600f83900b836125c7565b9050600061246761276b61275b6127336721d0a04b0e9b94f16120e761272567c2bf5d74c724e53e19896125c7565b6120e7600f8a900b8a6125c7565b6127526726a8f3c1f21b336e6120e76787c57e5da70d3c8f19896125c7565b600f0b90612840565b68015d71f5721242c787906125fd565b600f85900b906125c7565b600080612798612442612790612577600f87900b876125c7565b600f0b612cec565b905060006127bc6707a1e70f720eca436120e76801000bf627fa18841019856125c7565b905060006127e06810aeac93f55267a9a56120e768041ed34a2561490236866125c7565b9050600061281568072c7d592d021fb1db6120e76128076808c27b4617f5f800ea886125c7565b6120e7600f89900b896125c7565b9050600061283561282a600f85900b84612840565b600f86900b906125fd565b979650505050505050565b600081600f0b60000361285257600080fd5b600082600f0b604085600f0b901b8161286d5761286d613d2b565b05905060016001607f1b03198112801590612372575060016001607f1b0381131561237b57600080fd5b60006001607f1b600f83900b016128ad57600080fd5b600082600f0b126128be578161237e565b5060000390565b60008061291761276b6129076128fc6128eb600f88900b68010fb844255a12d72e6125c7565b68017401c57014c38f1319906125fd565b600f87900b906125c7565b68016a09e667f3bcc908906125fd565b905060006129436129346128fc6748d4c730f051a5fd19856125fd565b67413c831bb169f874906125fd565b905060006106c361298a61297f61297461296c612964600f8c900b8c6125c7565b600f0b612995565b600f0b612d26565b600f86900b906125c7565b600f88900b906125c7565b600160401b90612347565b60006001607f1b600f83900b016128be57600080fd5b6000816000036129bd5750600061237e565b600083600f0b12156129ce57600080fd5b600f83900b6001600160801b038316810260401c90608084901c026001600160c01b038111156129fd57600080fd5b60401b8119811115612a0e57600080fd5b019392505050565b600081600003612a2557600080fd5b60006001600160c01b038411612a505782604085901b81612a4857612a48613d2b565b049050612b67565b60c084811c6401000000008110612a69576020918201911c5b620100008110612a7b576010918201911c5b6101008110612a8c576008918201911c5b60108110612a9c576004918201911c5b60048110612aac576002918201911c5b60028110612abb576001820191505b60bf820360018603901c6001018260ff0387901b81612adc57612adc613d2b565b0492506001600160801b03831115612af357600080fd5b608085901c83026001600160801b038616840260c088901c604089901b82811015612b1f576001820391505b608084901b92900382811015612b36576001820391505b829003608084901c8214612b4c57612b4c613e45565b888181612b5b57612b5b613d2b565b04870196505050505050505b6001600160801b0381111561237b57600080fd5b600081600003612b8d57506000919050565b816001600160801b8210612ba65760809190911c9060401b5b600160401b8210612bbc5760409190911c9060201b5b6401000000008210612bd35760209190911c9060101b5b620100008210612be85760109190911c9060081b5b6101008210612bfc5760089190911c9060041b5b60108210612c0f5760049190911c9060021b5b60088210612c1b5760011b5b6001818581612c2c57612c2c613d2b565b048201901c90506001818581612c4457612c44613d2b565b048201901c90506001818581612c5c57612c5c613d2b565b048201901c90506001818581612c7457612c74613d2b565b048201901c90506001818581612c8c57612c8c613d2b565b048201901c90506001818581612ca457612ca4613d2b565b048201901c90506001818581612cbc57612cbc613d2b565b048201901c90506000818581612cd457612cd4613d2b565b049050808210612ce45780612467565b509392505050565b60008082600f0b13612cfd57600080fd5b6080612d0883612d7b565b600f0b6fb17217f7d1cf79abc9e3b39803f2f6af02901c9050919050565b6000600160461b82600f0b12612d3b57600080fd5b683fffffffffffffffff1982600f0b1215612d5857506000919050565b61237e608083600f0b700171547652b82fe1777d0ffda0d23a7d1202901d612e56565b60008082600f0b13612d8c57600080fd5b6000600f83900b600160401b8112612da6576040918201911d5b6401000000008112612dba576020918201911d5b620100008112612dcc576010918201911d5b6101008112612ddd576008918201911d5b60108112612ded576004918201911d5b60048112612dfd576002918201911d5b60028112612e0c576001820191505b603f19820160401b600f85900b607f8490031b6001603f1b5b6000811315612e4b5790800260ff81901c8281029390930192607f011c9060011d612e25565b509095945050505050565b6000600160461b82600f0b12612e6b57600080fd5b683fffffffffffffffff1982600f0b1215612e8857506000919050565b6001607f1b60006001603f1b8416600f0b1315612eb65770016a09e667f3bcc908b2fb1366ea957d3e0260801c5b60008367400000000000000016600f0b1315612ee3577001306fe0a31b7152de8d5a46305c85edec0260801c5b60008367200000000000000016600f0b1315612f10577001172b83c7d517adcdf7c8c50eb14a791f0260801c5b60008367100000000000000016600f0b1315612f3d5770010b5586cf9890f6298b92b71842a983630260801c5b60008367080000000000000016600f0b1315612f6a577001059b0d31585743ae7c548eb68ca417fd0260801c5b60008367040000000000000016600f0b1315612f9757700102c9a3e778060ee6f7caca4f7a29bde80260801c5b60008367020000000000000016600f0b1315612fc45770010163da9fb33356d84a66ae336dcdfa3f0260801c5b60008367010000000000000016600f0b1315612ff157700100b1afa5abcbed6129ab13ec11dc95430260801c5b600083668000000000000016600f0b131561301d5770010058c86da1c09ea1ff19d294cf2f679b0260801c5b600083664000000000000016600f0b1315613049577001002c605e2e8cec506d21bfc89a23a00f0260801c5b600083662000000000000016600f0b131561307557700100162f3904051fa128bca9c55c31e5df0260801c5b600083661000000000000016600f0b13156130a1577001000b175effdc76ba38e31671ca9397250260801c5b600083660800000000000016600f0b13156130cd57700100058ba01fb9f96d6cacd4b180917c3d0260801c5b600083660400000000000016600f0b13156130f95770010002c5cc37da9491d0985c348c68e7b30260801c5b600083660200000000000016600f0b1315613125577001000162e525ee054754457d59952920260260801c5b600083660100000000000016600f0b13156131515770010000b17255775c040618bf4a4ade83fc0260801c5b6000836580000000000016600f0b131561317c577001000058b91b5bc9ae2eed81e9b7d4cfab0260801c5b6000836540000000000016600f0b13156131a757700100002c5c89d5ec6ca4d7c8acc017b7c90260801c5b6000836520000000000016600f0b13156131d25770010000162e43f4f831060e02d839a9d16d0260801c5b6000836510000000000016600f0b13156131fd57700100000b1721bcfc99d9f890ea069117630260801c5b6000836508000000000016600f0b13156132285770010000058b90cf1e6d97f9ca14dbcc16280260801c5b6000836504000000000016600f0b1315613253577001000002c5c863b73f016468f6bac5ca2b0260801c5b6000836502000000000016600f0b131561327e57700100000162e430e5a18f6119e3c02282a50260801c5b6000836501000000000016600f0b13156132a9577001000000b1721835514b86e6d96efd1bfe0260801c5b60008364800000000016600f0b13156132d357700100000058b90c0b48c6be5df846c5b2ef0260801c5b60008364400000000016600f0b13156132fd5770010000002c5c8601cc6b9e94213c72737a0260801c5b60008364200000000016600f0b1315613327577001000000162e42fff037df38aa2b219f060260801c5b60008364100000000016600f0b13156133515770010000000b17217fba9c739aa5819f44f90260801c5b60008364080000000016600f0b131561337b577001000000058b90bfcdee5acd3c1cedc8230260801c5b60008364040000000016600f0b13156133a557700100000002c5c85fe31f35a6a30da1be500260801c5b60008364020000000016600f0b13156133cf5770010000000162e42ff0999ce3541b9fffcf0260801c5b60008364010000000016600f0b13156133f957700100000000b17217f80f4ef5aadda455540260801c5b600083638000000016600f0b13156134225770010000000058b90bfbf8479bd5a81b51ad0260801c5b600083634000000016600f0b131561344b577001000000002c5c85fdf84bd62ae30a74cc0260801c5b600083632000000016600f0b131561347457700100000000162e42fefb2fed257559bdaa0260801c5b600083631000000016600f0b131561349d577001000000000b17217f7d5a7716bba4a9ae0260801c5b600083630800000016600f0b13156134c657700100000000058b90bfbe9ddbac5e109cce0260801c5b600083630400000016600f0b13156134ef5770010000000002c5c85fdf4b15de6f17eb0d0260801c5b600083630200000016600f0b1315613518577001000000000162e42fefa494f1478fde050260801c5b600083630100000016600f0b13156135415770010000000000b17217f7d20cf927c8e94c0260801c5b6000836280000016600f0b1315613569577001000000000058b90bfbe8f71cb4e4b33d0260801c5b6000836240000016600f0b131561359157700100000000002c5c85fdf477b662b269450260801c5b6000836220000016600f0b13156135b95770010000000000162e42fefa3ae53369388c0260801c5b6000836210000016600f0b13156135e157700100000000000b17217f7d1d351a389d400260801c5b6000836208000016600f0b13156136095770010000000000058b90bfbe8e8b2d3d4ede0260801c5b6000836204000016600f0b1315613631577001000000000002c5c85fdf4741bea6e77e0260801c5b6000836202000016600f0b131561365957700100000000000162e42fefa39fe95583c20260801c5b6000836201000016600f0b1315613681577001000000000000b17217f7d1cfb72b45e10260801c5b60008361800016600f0b13156136a857700100000000000058b90bfbe8e7cc35c3f00260801c5b60008361400016600f0b13156136cf5770010000000000002c5c85fdf473e242ea380260801c5b60008361200016600f0b13156136f6577001000000000000162e42fefa39f02b772c0260801c5b60008361100016600f0b131561371d5770010000000000000b17217f7d1cf7d83c1a0260801c5b60008361080016600f0b1315613744577001000000000000058b90bfbe8e7bdcbe2e0260801c5b60008361040016600f0b131561376b57700100000000000002c5c85fdf473dea871f0260801c5b60008361020016600f0b13156137925770010000000000000162e42fefa39ef44d910260801c5b60008361010016600f0b13156137b957700100000000000000b17217f7d1cf79e9490260801c5b600083608016600f0b13156137df5770010000000000000058b90bfbe8e7bce5440260801c5b600083604016600f0b1315613805577001000000000000002c5c85fdf473de6eca0260801c5b600083602016600f0b131561382b57700100000000000000162e42fefa39ef366f0260801c5b600083601016600f0b1315613851577001000000000000000b17217f7d1cf79afa0260801c5b600083600816600f0b131561387757700100000000000000058b90bfbe8e7bcd6d0260801c5b600083600416600f0b131561389d5770010000000000000002c5c85fdf473de6b20260801c5b600083600216600f0b13156138c3577001000000000000000162e42fefa39ef3580260801c5b600083600116600f0b13156138e95770010000000000000000b17217f7d1cf79ab0260801c5b600f83810b60401d603f03900b1c60016001607f1b0381111561237e57600080fd5b60006020828403121561391d57600080fd5b5035919050565b80356001600160a01b038116811461252557600080fd5b60006020828403121561394d57600080fd5b611f5082613924565b6000806040838503121561396957600080fd5b61397283613924565b946020939093013593505050565b60008083601f84011261399257600080fd5b50813567ffffffffffffffff8111156139aa57600080fd5b6020830191508360208285010111156139c257600080fd5b9250929050565b6000806000806000608086880312156139e157600080fd5b6139ea86613924565b94506020860135935060408601359250606086013567ffffffffffffffff811115613a1457600080fd5b613a2088828901613980565b969995985093965092949392505050565b60008060408385031215613a4457600080fd5b50508035926020909101359150565b600080600060608486031215613a6857600080fd5b613a7184613924565b95602085013595506040909401359392505050565b803563ffffffff8116811461252557600080fd5b60008060008060008060008060e0898b031215613ab657600080fd5b88356001600160801b0381168114613acd57600080fd5b9750613adb60208a01613a86565b9650613ae960408a01613a86565b9550613af760608a01613a86565b94506080890135935060a0890135925060c089013567ffffffffffffffff811115613b2157600080fd5b613b2d8b828c01613980565b999c989b5096995094979396929594505050565b8015158114613b4f57600080fd5b50565b60008060008060008060008060006101008a8c031215613b7157600080fd5b613b7a8a613924565b985060208a0135975060408a0135613b9181613b41565b965060608a0135955060808a0135945060a08a0135613baf81613b41565b935060c08a0135613bbf81613b41565b925060e08a013567ffffffffffffffff811115613bdb57600080fd5b613be78c828d01613980565b915080935050809150509295985092959850929598565b600080600080600080600060c0888a031215613c1957600080fd5b87359650613c2960208901613924565b955060408801359450606088013593506080880135613c4781613b41565b925060a088013567ffffffffffffffff811115613c6357600080fd5b613c6f8a828b01613980565b989b979a50959850939692959293505050565b634e487b7160e01b600052601160045260246000fd5b63ffffffff828116828216039080821115613cb557613cb5613c82565b5092915050565b81835281816020850137506000828201602090810191909152601f909101601f19169091010190565b8481528360208201526060604082015260006106c3606083018486613cbc565b8082018082111561237e5761237e613c82565b8181038181111561237e5761237e613c82565b634e487b7160e01b600052601260045260246000fd5b600082613d5e57634e487b7160e01b600052601260045260246000fd5b500490565b808202811582820484141761237e5761237e613c82565b6001600160801b03818116838216019080821115613cb557613cb5613c82565b6000825160005b81811015613dbb5760208186018101518583015201613da1565b506000920191825250919050565b600060208284031215613ddb57600080fd5b5051919050565b6001600160801b03828116828216039080821115613cb557613cb5613c82565b600060208284031215613e1457600080fd5b815161237b81613b41565b600081600f0b60016001607f1b03198103613e3c57613e3c613c82565b60000392915050565b634e487b7160e01b600052600160045260246000fdfea2646970667358221220819bd2030e3379301d196364383196d22bcd340261077456f5a5e30303b319d864736f6c63430008140033a2646970667358221220dbc41e36df0c4c75a7ed45505a79f0185bf2b1f3eb7861e6debdb3d44af1d2b964736f6c63430008140033","linkReferences":{}},"methodIdentifiers":{"MIN_LIQUIDITY_FACTOR()":"45d9b663","args()":"4e9b75b6","deploy(address,address)":"545e7c61","deployer()":"d5f39488","getEngine(address,address)":"62f7f918"},"id":2}