{"abi":[{"type":"constructor","inputs":[{"name":"engine_","type":"address","internalType":"address"}],"stateMutability":"nonpayable"},{"type":"function","name":"allocate","inputs":[{"name":"poolId","type":"bytes32","internalType":"bytes32"},{"name":"owner","type":"address","internalType":"address"},{"name":"delQuote","type":"uint256","internalType":"uint256"},{"name":"delBase","type":"uint256","internalType":"uint256"},{"name":"data","type":"bytes","internalType":"bytes"}],"outputs":[],"stateMutability":"nonpayable"},{"type":"function","name":"allocateCallback","inputs":[{"name":"delQuote","type":"uint256","internalType":"uint256"},{"name":"delBase","type":"uint256","internalType":"uint256"},{"name":"data","type":"bytes","internalType":"bytes"}],"outputs":[],"stateMutability":"nonpayable"},{"type":"function","name":"allocateFromExternal","inputs":[{"name":"poolId","type":"bytes32","internalType":"bytes32"},{"name":"owner","type":"address","internalType":"address"},{"name":"delQuote","type":"uint256","internalType":"uint256"},{"name":"delBase","type":"uint256","internalType":"uint256"},{"name":"data","type":"bytes","internalType":"bytes"}],"outputs":[],"stateMutability":"nonpayable"},{"type":"function","name":"allocateFromExternalNoBase","inputs":[{"name":"poolId","type":"bytes32","internalType":"bytes32"},{"name":"owner","type":"address","internalType":"address"},{"name":"delQuote","type":"uint256","internalType":"uint256"},{"name":"delBase","type":"uint256","internalType":"uint256"},{"name":"data","type":"bytes","internalType":"bytes"}],"outputs":[],"stateMutability":"nonpayable"},{"type":"function","name":"allocateFromExternalNoQuote","inputs":[{"name":"poolId","type":"bytes32","internalType":"bytes32"},{"name":"owner","type":"address","internalType":"address"},{"name":"delQuote","type":"uint256","internalType":"uint256"},{"name":"delBase","type":"uint256","internalType":"uint256"},{"name":"data","type":"bytes","internalType":"bytes"}],"outputs":[],"stateMutability":"nonpayable"},{"type":"function","name":"allocateFromExternalReentrancy","inputs":[{"name":"poolId","type":"bytes32","internalType":"bytes32"},{"name":"owner","type":"address","internalType":"address"},{"name":"delQuote","type":"uint256","internalType":"uint256"},{"name":"delBase","type":"uint256","internalType":"uint256"},{"name":"data","type":"bytes","internalType":"bytes"}],"outputs":[],"stateMutability":"nonpayable"},{"type":"function","name":"allocateFromMargin","inputs":[{"name":"poolId","type":"bytes32","internalType":"bytes32"},{"name":"owner","type":"address","internalType":"address"},{"name":"delQuote","type":"uint256","internalType":"uint256"},{"name":"delBase","type":"uint256","internalType":"uint256"},{"name":"data","type":"bytes","internalType":"bytes"}],"outputs":[],"stateMutability":"nonpayable"},{"type":"function","name":"base","inputs":[],"outputs":[{"name":"","type":"address","internalType":"address"}],"stateMutability":"view"},{"type":"function","name":"caller","inputs":[],"outputs":[{"name":"","type":"address","internalType":"address"}],"stateMutability":"view"},{"type":"function","name":"create","inputs":[{"name":"strike","type":"uint256","internalType":"uint256"},{"name":"sigma","type":"uint256","internalType":"uint256"},{"name":"maturity","type":"uint256","internalType":"uint256"},{"name":"gamma","type":"uint256","internalType":"uint256"},{"name":"quotePerLp","type":"uint256","internalType":"uint256"},{"name":"delLiquidity","type":"uint256","internalType":"uint256"},{"name":"data","type":"bytes","internalType":"bytes"}],"outputs":[],"stateMutability":"nonpayable"},{"type":"function","name":"createCallback","inputs":[{"name":"delQuote","type":"uint256","internalType":"uint256"},{"name":"delBase","type":"uint256","internalType":"uint256"},{"name":"data","type":"bytes","internalType":"bytes"}],"outputs":[],"stateMutability":"nonpayable"},{"type":"function","name":"deposit","inputs":[{"name":"owner","type":"address","internalType":"address"},{"name":"delQuote","type":"uint256","internalType":"uint256"},{"name":"delBase","type":"uint256","internalType":"uint256"},{"name":"data","type":"bytes","internalType":"bytes"}],"outputs":[],"stateMutability":"nonpayable"},{"type":"function","name":"depositCallback","inputs":[{"name":"delQuote","type":"uint256","internalType":"uint256"},{"name":"delBase","type":"uint256","internalType":"uint256"},{"name":"data","type":"bytes","internalType":"bytes"}],"outputs":[],"stateMutability":"nonpayable"},{"type":"function","name":"depositFail","inputs":[{"name":"owner","type":"address","internalType":"address"},{"name":"delQuote","type":"uint256","internalType":"uint256"},{"name":"delBase","type":"uint256","internalType":"uint256"},{"name":"data","type":"bytes","internalType":"bytes"}],"outputs":[],"stateMutability":"nonpayable"},{"type":"function","name":"depositOnlyBase","inputs":[{"name":"owner","type":"address","internalType":"address"},{"name":"delQuote","type":"uint256","internalType":"uint256"},{"name":"delBase","type":"uint256","internalType":"uint256"},{"name":"data","type":"bytes","internalType":"bytes"}],"outputs":[],"stateMutability":"nonpayable"},{"type":"function","name":"depositOnlyQuote","inputs":[{"name":"owner","type":"address","internalType":"address"},{"name":"delQuote","type":"uint256","internalType":"uint256"},{"name":"delBase","type":"uint256","internalType":"uint256"},{"name":"data","type":"bytes","internalType":"bytes"}],"outputs":[],"stateMutability":"nonpayable"},{"type":"function","name":"depositReentrancy","inputs":[{"name":"owner","type":"address","internalType":"address"},{"name":"delQuote","type":"uint256","internalType":"uint256"},{"name":"delBase","type":"uint256","internalType":"uint256"},{"name":"data","type":"bytes","internalType":"bytes"}],"outputs":[],"stateMutability":"nonpayable"},{"type":"function","name":"engine","inputs":[],"outputs":[{"name":"","type":"address","internalType":"address"}],"stateMutability":"view"},{"type":"function","name":"expect","inputs":[{"name":"errorString","type":"string","internalType":"string"}],"outputs":[],"stateMutability":"nonpayable"},{"type":"function","name":"expectedError","inputs":[],"outputs":[{"name":"","type":"string","internalType":"string"}],"stateMutability":"view"},{"type":"function","name":"getBaseInGivenQuoteOut","inputs":[{"name":"poolId","type":"bytes32","internalType":"bytes32"},{"name":"deltaOut","type":"uint256","internalType":"uint256"}],"outputs":[{"name":"","type":"uint256","internalType":"uint256"}],"stateMutability":"view"},{"type":"function","name":"getBaseOutGivenQuoteIn","inputs":[{"name":"poolId","type":"bytes32","internalType":"bytes32"},{"name":"deltaIn","type":"uint256","internalType":"uint256"}],"outputs":[{"name":"","type":"uint256","internalType":"uint256"}],"stateMutability":"view"},{"type":"function","name":"getCaller","inputs":[],"outputs":[{"name":"","type":"address","internalType":"address"}],"stateMutability":"view"},{"type":"function","name":"getPosition","inputs":[{"name":"poolId","type":"bytes32","internalType":"bytes32"}],"outputs":[{"name":"posid","type":"bytes32","internalType":"bytes32"}],"stateMutability":"view"},{"type":"function","name":"getQuoteInGivenBaseOut","inputs":[{"name":"poolId","type":"bytes32","internalType":"bytes32"},{"name":"deltaOut","type":"uint256","internalType":"uint256"}],"outputs":[{"name":"","type":"uint256","internalType":"uint256"}],"stateMutability":"view"},{"type":"function","name":"getQuoteOutGivenBaseIn","inputs":[{"name":"poolId","type":"bytes32","internalType":"bytes32"},{"name":"deltaIn","type":"uint256","internalType":"uint256"}],"outputs":[{"name":"","type":"uint256","internalType":"uint256"}],"stateMutability":"view"},{"type":"function","name":"name","inputs":[],"outputs":[{"name":"","type":"string","internalType":"string"}],"stateMutability":"pure"},{"type":"function","name":"quote","inputs":[],"outputs":[{"name":"","type":"address","internalType":"address"}],"stateMutability":"view"},{"type":"function","name":"remove","inputs":[{"name":"poolId","type":"bytes32","internalType":"bytes32"},{"name":"delLiquidity","type":"uint256","internalType":"uint256"},{"name":"data","type":"bytes","internalType":"bytes"}],"outputs":[],"stateMutability":"nonpayable"},{"type":"function","name":"removeToExternal","inputs":[{"name":"poolId","type":"bytes32","internalType":"bytes32"},{"name":"delLiquidity","type":"uint256","internalType":"uint256"},{"name":"data","type":"bytes","internalType":"bytes"}],"outputs":[],"stateMutability":"nonpayable"},{"type":"function","name":"removeToMargin","inputs":[{"name":"poolId","type":"bytes32","internalType":"bytes32"},{"name":"delLiquidity","type":"uint256","internalType":"uint256"},{"name":"data","type":"bytes","internalType":"bytes"}],"outputs":[],"stateMutability":"nonpayable"},{"type":"function","name":"scenario","inputs":[],"outputs":[{"name":"","type":"uint8","internalType":"enum Scenarios.Scenario"}],"stateMutability":"view"},{"type":"function","name":"setEngine","inputs":[{"name":"engine_","type":"address","internalType":"address"}],"outputs":[],"stateMutability":"nonpayable"},{"type":"function","name":"swap","inputs":[{"name":"recipient","type":"address","internalType":"address"},{"name":"pid","type":"bytes32","internalType":"bytes32"},{"name":"quoteForBase","type":"bool","internalType":"bool"},{"name":"deltaIn","type":"uint256","internalType":"uint256"},{"name":"deltaOut","type":"uint256","internalType":"uint256"},{"name":"fromMargin","type":"bool","internalType":"bool"},{"name":"toMargin","type":"bool","internalType":"bool"},{"name":"data","type":"bytes","internalType":"bytes"}],"outputs":[],"stateMutability":"nonpayable"},{"type":"function","name":"swapCallback","inputs":[{"name":"delQuote","type":"uint256","internalType":"uint256"},{"name":"delBase","type":"uint256","internalType":"uint256"},{"name":"data","type":"bytes","internalType":"bytes"}],"outputs":[],"stateMutability":"nonpayable"},{"type":"function","name":"withdraw","inputs":[{"name":"delQuote","type":"uint256","internalType":"uint256"},{"name":"delBase","type":"uint256","internalType":"uint256"}],"outputs":[],"stateMutability":"nonpayable"},{"type":"function","name":"withdrawToRecipient","inputs":[{"name":"recipient","type":"address","internalType":"address"},{"name":"delQuote","type":"uint256","internalType":"uint256"},{"name":"delBase","type":"uint256","internalType":"uint256"}],"outputs":[],"stateMutability":"nonpayable"},{"type":"error","name":"InverseOutOfBounds","inputs":[{"name":"value","type":"int128","internalType":"int128"}]}],"bytecode":{"object":"0x60806040526000805460ff191660011790553480156200001e57600080fd5b50604051620047c7380380620047c783398101604081905262000041916200006d565b600080546001600160a01b0390921661010002610100600160a81b03199092169190911790556200009f565b6000602082840312156200008057600080fd5b81516001600160a01b03811681146200009857600080fd5b9392505050565b61471880620000af6000396000f3fe608060405234801561001057600080fd5b50600436106102275760003560e01c80638a363c6711610130578063c22e4049116100b8578063ca28fcd61161007c578063ca28fcd614610512578063f32b05df14610525578063f418bb2f14610538578063fc9c8d391461054b578063ff716a851461055e57600080fd5b8063c22e4049146104cc578063c361a1d5146104d4578063c536e605146104e7578063c765d4611461036f578063c9d4623f146104fa57600080fd5b8063999b93af116100ff578063999b93af1461047a5780639e48ff5a14610482578063ab470f0514610495578063b045aad2146104a6578063c171d27e146104b957600080fd5b80638a363c671461042e5780638e2b2d3b14610441578063923b8a2a146104545780639467bf721461046757600080fd5b806340673de8116101b357806360ff30a31161018257806360ff30a3146103c85780636b78c67a146103db578063749a54b9146103f557806376ba974c146104085780637b83828e1461041b57600080fd5b806340673de81461036f578063441a3e70146103825780634fe0a208146103955780635001f3b5146103a857600080fd5b80631928b3cb116101fa5780631928b3cb146102c257806319b1175f146103235780631a8a7786146103365780633a6a4dec146103495780633ce8d7bf1461035c57600080fd5b806306fdde031461022c5780630e5c7cd9146102645780630e830e4914610279578063151a8bf8146102af575b600080fd5b60408051808201909152600a8152692a32b9ba2937baba32b960b11b60208201525b60405161025b9190613b44565b60405180910390f35b610277610272366004613bb8565b610571565b005b610277610287366004613c2b565b600080546001600160a01b0390921661010002610100600160a81b0319909216919091179055565b6102776102bd366004613c48565b610624565b6103156102d0366004613c9b565b6040516bffffffffffffffffffffffff193060601b16602082015260348101829052600090605401604051602081830303815290604052805190602001209050919050565b60405190815260200161025b565b610277610331366004613cb4565b6108cb565b610277610344366004613cb4565b610974565b610277610357366004613bb8565b61099a565b61027761036a366004613cb4565b6109db565b61027761037d366004613daa565b610a00565b610277610390366004613e0e565b610a80565b6103156103a3366004613e0e565b610b09565b6103b0610ee1565b6040516001600160a01b03909116815260200161025b565b6102776103d6366004613e30565b610f5e565b6000546103e89060ff1681565b60405161025b9190613ec3565b610277610403366004613cb4565b6110de565b610277610416366004613eeb565b611104565b610277610429366004613f34565b611114565b61031561043c366004613e0e565b611195565b61031561044f366004613e0e565b6114df565b610277610462366004613c48565b611887565b610277610475366004613daa565b6119c6565b6103b0611abd565b610277610490366004613cb4565b611b11565b6001546001600160a01b03166103b0565b6102776104b4366004613bb8565b611b5f565b6102776104c7366004613c48565b611b9f565b61024e611c72565b6102776104e2366004613bb8565b611d00565b6102776104f5366004613c48565b611d52565b6000546103b09061010090046001600160a01b031681565b610277610520366004613f77565b611fbb565b610315610533366004613e0e565b61204e565b610277610546366004613bb8565b6123f6565b6001546103b0906001600160a01b031681565b61027761056c366004613bb8565b61241c565b600180546001600160a01b031916331781556000805460039260ff1990911690835b02179055506000805460405163d2957b8f60e01b81526101009091046001600160a01b03169163d2957b8f916105d8918a918a918a918a91908a908a9060040161404e565b6020604051808303816000875af11580156105f7573d6000803e3d6000fd5b505050506040513d601f19601f8201168201806040525081019061061b9190614097565b50505050505050565b6000805460ff16600481111561063c5761063c613ead565b146108c557600061064b611abd565b90506000610657610ee1565b9050600061066d6001546001600160a01b031690565b9050600160005460ff16600481111561068857610688613ead565b0361077a576040516323b872dd60e01b81526001600160a01b038416906323b872dd906106bd90849033908c906004016140b0565b6020604051808303816000875af11580156106dc573d6000803e3d6000fd5b505050506040513d601f19601f8201168201806040525081019061070091906140d4565b506040516323b872dd60e01b81526001600160a01b038316906323b872dd9061073190849033908b906004016140b0565b6020604051808303816000875af1158015610750573d6000803e3d6000fd5b505050506040513d601f19601f8201168201806040525081019061077491906140d4565b506108b4565b600260005460ff16600481111561079357610793613ead565b036107c8576040516323b872dd60e01b81526001600160a01b038416906323b872dd9061073190849033908c906004016140b0565b600260005460ff1660048111156107e1576107e1613ead565b03610816576040516323b872dd60e01b81526001600160a01b038316906323b872dd9061073190849033908b906004016140b0565b600460005460ff16600481111561082f5761082f613ead565b036108b457604080516000808252602082019283905263d2957b8f60e01b909252339163d2957b8f9161086f9190819060019081908390602481016140f1565b6020604051808303816000875af115801561088e573d6000803e3d6000fd5b505050506040513d601f19601f820116820180604052508101906108b29190614097565b505b50506000805460ff19166001179055505b50505050565b600180546001600160a01b031916331781556000805460039260ff1990911690835b0217905550600054604051634f247fad60e11b81526101009091046001600160a01b031690639e48ff5a9061092e9088908890889088908890600401614138565b600060405180830381600087803b15801561094857600080fd5b505af115801561095c573d6000803e3d6000fd5b50506000805460ff1916600117905550505050505050565b600180546001600160a01b031916331781556000805460049260ff1990911690836108ed565b60005460405163d2957b8f60e01b81526101009091046001600160a01b03169063d2957b8f906105d89089908990899089906001908a908a9060040161404e565b600180546001600160a01b03191633178155600080549091829160ff191690826108ed565b600054604051634fc67d6f60e11b815260048101859052602481018490526101009091046001600160a01b031690639f8cfade9060440160408051808303816000875af1158015610a55573d6000803e3d6000fd5b505050506040513d601f19601f82011682018060405250810190610a799190614166565b5050505050565b600180546001600160a01b03191633908117909155600054604051635ae2fb3960e11b81526004810192909252602482018490526044820183905261010090046001600160a01b03169063b5c5f67290606401600060405180830381600087803b158015610aed57600080fd5b505af1158015610b01573d6000803e3d6000fd5b505050505050565b60008054604051622efc7960e21b8152600481018590526101009091046001600160a01b031690829081908190849062bbf1e49060240160e060405180830381865afa158015610b5d573d6000803e3d6000fd5b505050506040513d601f19601f82011682018060405250810190610b8191906141b5565b505050509250925092506000806000806000886001600160a01b03166323c5b9528d6040518263ffffffff1660e01b8152600401610bc191815260200190565b60a060405180830381865afa158015610bde573d6000803e3d6000fd5b505050506040513d601f19601f82011682018060405250810190610c029190614226565b945094509450945094506000896001600160a01b031663546fecae8e6040518263ffffffff1660e01b8152600401610c3c91815260200190565b602060405180830381865afa158015610c59573d6000803e3d6000fd5b505050506040513d601f19601f82011682018060405250810190610c7d919061428b565b90506000876001600160801b03168b6001600160a01b031663aaf5eb686040518163ffffffff1660e01b8152600401602060405180830381865afa158015610cc9573d6000803e3d6000fd5b505050506040513d601f19601f82011682018060405250810190610ced9190614097565b610d008f6001600160801b038e166142c4565b610d0a91906142d7565b610d149190614304565b90506000610e07838d6001600160a01b031663e3c0986a6040518163ffffffff1660e01b8152600401602060405180830381865afa158015610d5a573d6000803e3d6000fd5b505050506040513d601f19601f82011682018060405250810190610d7e9190614097565b8e6001600160a01b031663886a4eba6040518163ffffffff1660e01b8152600401602060405180830381865afa158015610dbc573d6000803e3d6000fd5b505050506040513d601f19601f82011682018060405250810190610de09190614097565b856001600160801b038d1663ffffffff8d16610dfc8c8e614326565b63ffffffff16612442565b905060008a6001600160801b03168d6001600160a01b031663aaf5eb686040518163ffffffff1660e01b8152600401602060405180830381865afa158015610e53573d6000803e3d6000fd5b505050506040513d601f19601f82011682018060405250810190610e779190614097565b610e8a6001600160801b038d16856142d7565b610e949190614304565b610e9e91906142c4565b9050600063ffffffff8616610eb5836127106142d7565b610ebf9190614304565b610eca90600161434a565b9e5050505050505050505050505050505b92915050565b60008060019054906101000a90046001600160a01b03166001600160a01b0316635001f3b56040518163ffffffff1660e01b8152600401602060405180830381865afa158015610f35573d6000803e3d6000fd5b505050506040513d601f19601f82011682018060405250810190610f59919061435d565b905090565b600180546001600160a01b03191633179055600054604051635f003b1d60e11b81526101009091046001600160a01b03169063be00763a90610fb2908b908b908b908b908b908b908b908b9060040161437a565b6060604051808303816000875af1925050508015610fed575060408051601f3d908101601f19168201909252610fea918101906143d5565b60015b6110d0573d80801561101b576040519150601f19603f3d011682016040523d82523d6000602084013e611020565b606091505b508051602082012060408051600481526024810191829052906110459060029061443d565b6040519081900390206020820180516001600160e01b03166001600160e01b0319909216919091178152905190200361109c57600260405162461bcd60e51b815260040161109391906144b3565b60405180910390fd5b60405162461bcd60e51b8152602060048201526009602482015268556e6b6e6f776e282960b81b6044820152606401611093565b5050505b5050505050505050565b600180546001600160a01b031916331781556000805460029260ff1990911690836108ed565b60026111108282614589565b5050565b600180546001600160a01b03191633179055600054604051635ae2fb3960e11b81526001600160a01b03858116600483015260248201859052604482018490526101009092049091169063b5c5f67290606401600060405180830381600087803b15801561118157600080fd5b505af115801561061b573d6000803e3d6000fd5b60008054604051622efc7960e21b8152600481018590526101009091046001600160a01b031690829081908190849062bbf1e49060240160e060405180830381865afa1580156111e9573d6000803e3d6000fd5b505050506040513d601f19601f8201168201806040525081019061120d91906141b5565b505050509250925092506000806000806000886001600160a01b03166323c5b9528d6040518263ffffffff1660e01b815260040161124d91815260200190565b60a060405180830381865afa15801561126a573d6000803e3d6000fd5b505050506040513d601f19601f8201168201806040525081019061128e9190614226565b945094509450945094506000896001600160a01b031663546fecae8e6040518263ffffffff1660e01b81526004016112c891815260200190565b602060405180830381865afa1580156112e5573d6000803e3d6000fd5b505050506040513d601f19601f82011682018060405250810190611309919061428b565b90506000876001600160801b03168b6001600160a01b031663aaf5eb686040518163ffffffff1660e01b8152600401602060405180830381865afa158015611355573d6000803e3d6000fd5b505050506040513d601f19601f820116820180604052508101906113799190614097565b61138c8f6001600160801b038d166142c4565b61139691906142d7565b6113a09190614304565b90506000611493838d6001600160a01b031663e3c0986a6040518163ffffffff1660e01b8152600401602060405180830381865afa1580156113e6573d6000803e3d6000fd5b505050506040513d601f19601f8201168201806040525081019061140a9190614097565b8e6001600160a01b031663886a4eba6040518163ffffffff1660e01b8152600401602060405180830381865afa158015611448573d6000803e3d6000fd5b505050506040513d601f19601f8201168201806040525081019061146c9190614097565b856001600160801b038d1663ffffffff8d166114888c8e614326565b63ffffffff1661251b565b905060008b6001600160801b03168d6001600160a01b031663aaf5eb686040518163ffffffff1660e01b8152600401602060405180830381865afa158015610e53573d6000803e3d6000fd5b60008054604051622efc7960e21b8152600481018590526101009091046001600160a01b031690829081908190849062bbf1e49060240160e060405180830381865afa158015611533573d6000803e3d6000fd5b505050506040513d601f19601f8201168201806040525081019061155791906141b5565b505050509250925092506000806000806000886001600160a01b03166323c5b9528d6040518263ffffffff1660e01b815260040161159791815260200190565b60a060405180830381865afa1580156115b4573d6000803e3d6000fd5b505050506040513d601f19601f820116820180604052508101906115d89190614226565b9450945094509450945060006127108263ffffffff168d6115f991906142d7565b6116039190614304565b604051632a37f65760e11b8152600481018f90529091506000906001600160a01b038c169063546fecae90602401602060405180830381865afa15801561164e573d6000803e3d6000fd5b505050506040513d601f19601f82011682018060405250810190611672919061428b565b90506000886001600160801b03168c6001600160a01b031663aaf5eb686040518163ffffffff1660e01b8152600401602060405180830381865afa1580156116be573d6000803e3d6000fd5b505050506040513d601f19601f820116820180604052508101906116e29190614097565b6116f5856001600160801b038e1661434a565b6116ff91906142d7565b6117099190614304565b905060006117f1838e6001600160a01b031663e3c0986a6040518163ffffffff1660e01b8152600401602060405180830381865afa15801561174f573d6000803e3d6000fd5b505050506040513d601f19601f820116820180604052508101906117739190614097565b8f6001600160a01b031663886a4eba6040518163ffffffff1660e01b8152600401602060405180830381865afa1580156117b1573d6000803e3d6000fd5b505050506040513d601f19601f820116820180604052508101906117d59190614097565b856001600160801b038e1663ffffffff8e166114888d8f614326565b905060008d6001600160a01b031663aaf5eb686040518163ffffffff1660e01b8152600401602060405180830381865afa158015611833573d6000803e3d6000fd5b505050506040513d601f19601f820116820180604052508101906118579190614097565b61186a6001600160801b038d16846142d7565b6118749190614304565b610eca906001600160801b038f166142c4565b6000805460ff16600481111561189f5761189f613ead565b146108c55760006118ae611abd565b905060006118ba610ee1565b905060006118d06001546001600160a01b031690565b9050861561194d576040516323b872dd60e01b81526001600160a01b038416906323b872dd9061190890849033908c906004016140b0565b6020604051808303816000875af1158015611927573d6000803e3d6000fd5b505050506040513d601f19601f8201168201806040525081019061194b91906140d4565b505b851561061b576040516323b872dd60e01b81526001600160a01b038316906323b872dd9061198390849033908b906004016140b0565b6020604051808303816000875af11580156119a2573d6000803e3d6000fd5b505050506040513d601f19601f820116820180604052508101906110d491906140d4565b60008054604051634fc67d6f60e11b81526004810186905260248101859052829161010090046001600160a01b031690639f8cfade9060440160408051808303816000875af1158015611a1d573d6000803e3d6000fd5b505050506040513d601f19601f82011682018060405250810190611a419190614166565b600054604051635ae2fb3960e11b8152336004820152602481018490526044810183905292945090925061010090046001600160a01b03169063b5c5f672906064015b600060405180830381600087803b158015611a9e57600080fd5b505af1158015611ab2573d6000803e3d6000fd5b505050505050505050565b60008060019054906101000a90046001600160a01b03166001600160a01b031663999b93af6040518163ffffffff1660e01b8152600401602060405180830381865afa158015610f35573d6000803e3d6000fd5b600180546001600160a01b03191633179055600054604051634f247fad60e11b81526101009091046001600160a01b031690639e48ff5a90611a849088908890889088908890600401614138565b6000805460405163d2957b8f60e01b81526101009091046001600160a01b03169163d2957b8f916105d8918a918a918a918a91908a908a9060040161404e565b6000611ba9611abd565b90506000611bb5610ee1565b90506000611bcb6001546001600160a01b031690565b6040516323b872dd60e01b81529091506001600160a01b038416906323b872dd90611bfe90849033908c906004016140b0565b6020604051808303816000875af1158015611c1d573d6000803e3d6000fd5b505050506040513d601f19601f82011682018060405250810190611c4191906140d4565b506040516323b872dd60e01b81526001600160a01b038316906323b872dd9061198390849033908b906004016140b0565b60028054611c7f90614403565b80601f0160208091040260200160405190810160405280929190818152602001828054611cab90614403565b8015611cf85780601f10611ccd57610100808354040283529160200191611cf8565b820191906000526020600020905b815481529060010190602001808311611cdb57829003601f168201915b505050505081565b600180546001600160a01b031916331790556000805460405163d2957b8f60e01b81526101009091046001600160a01b03169163d2957b8f916105d8918a918a918a918a91908a908a9060040161404e565b6000805460ff166004811115611d6a57611d6a613ead565b146108c5576000611d79611abd565b90506000611d85610ee1565b90506000611d9b6001546001600160a01b031690565b9050600260005460ff166004811115611db657611db6613ead565b03611e34576040516323b872dd60e01b81526001600160a01b038416906323b872dd90611deb90849033908c906004016140b0565b6020604051808303816000875af1158015611e0a573d6000803e3d6000fd5b505050506040513d601f19601f82011682018060405250810190611e2e91906140d4565b5061061b565b600360005460ff166004811115611e4d57611e4d613ead565b03611e82576040516323b872dd60e01b81526001600160a01b038316906323b872dd90611deb90849033908b906004016140b0565b600160005460ff166004811115611e9b57611e9b613ead565b03611f44576040516323b872dd60e01b81526001600160a01b038416906323b872dd90611ed090849033908c906004016140b0565b6020604051808303816000875af1158015611eef573d6000803e3d6000fd5b505050506040513d601f19601f82011682018060405250810190611f1391906140d4565b506040516323b872dd60e01b81526001600160a01b038316906323b872dd90611deb90849033908b906004016140b0565b600460005460ff166004811115611f5d57611f5d613ead565b0361061b57604051634f247fad60e11b81523390639e48ff5a90611f8d9030908b908b908b908b90600401614138565b600060405180830381600087803b158015611fa757600080fd5b505af11580156110d0573d6000803e3d6000fd5b600180546001600160a01b031916331790556000546040516365147e6b60e11b81526101009091046001600160a01b03169063ca28fcd690612011908c908c908c908c908c908c908c908c908c90600401614649565b600060405180830381600087803b15801561202b57600080fd5b505af115801561203f573d6000803e3d6000fd5b50505050505050505050505050565b60008054604051622efc7960e21b8152600481018590526101009091046001600160a01b031690829081908190849062bbf1e49060240160e060405180830381865afa1580156120a2573d6000803e3d6000fd5b505050506040513d601f19601f820116820180604052508101906120c691906141b5565b505050509250925092506000806000806000886001600160a01b03166323c5b9528d6040518263ffffffff1660e01b815260040161210691815260200190565b60a060405180830381865afa158015612123573d6000803e3d6000fd5b505050506040513d601f19601f820116820180604052508101906121479190614226565b9450945094509450945060006127108263ffffffff168d61216891906142d7565b6121729190614304565b604051632a37f65760e11b8152600481018f90529091506000906001600160a01b038c169063546fecae90602401602060405180830381865afa1580156121bd573d6000803e3d6000fd5b505050506040513d601f19601f820116820180604052508101906121e1919061428b565b90506000886001600160801b03168c6001600160a01b031663aaf5eb686040518163ffffffff1660e01b8152600401602060405180830381865afa15801561222d573d6000803e3d6000fd5b505050506040513d601f19601f820116820180604052508101906122519190614097565b612264856001600160801b038f1661434a565b61226e91906142d7565b6122789190614304565b90506000612360838e6001600160a01b031663e3c0986a6040518163ffffffff1660e01b8152600401602060405180830381865afa1580156122be573d6000803e3d6000fd5b505050506040513d601f19601f820116820180604052508101906122e29190614097565b8f6001600160a01b031663886a4eba6040518163ffffffff1660e01b8152600401602060405180830381865afa158015612320573d6000803e3d6000fd5b505050506040513d601f19601f820116820180604052508101906123449190614097565b856001600160801b038e1663ffffffff8e16610dfc8d8f614326565b905060008d6001600160a01b031663aaf5eb686040518163ffffffff1660e01b8152600401602060405180830381865afa1580156123a2573d6000803e3d6000fd5b505050506040513d601f19601f820116820180604052508101906123c69190614097565b6123d96001600160801b038d16846142d7565b6123e39190614304565b610eca906001600160801b038e166142c4565b600180546001600160a01b031916331781556000805460029260ff199091169083610593565b600180546001600160a01b031916331781556000805460049260ff199091169083610593565b60008061244f85886125c8565b9050600061245d878a6125c8565b9050600061246f600160401b836125f1565b905084156124eb576000612483878761262c565b9050600061249383600f0b612669565b905060006124a5600f83900b846125f1565b905060006124d08f6124c76124bc85600f0b612723565b600f8b900b906127ce565b600f0b90612804565b90506124e0600f82900b8e612837565b97505050505061250d565b61250a896125018d6124c7600f88900b866127ce565b600f0b90612837565b93505b505050979650505050505050565b60008061252885886125c8565b90506000612536858561262c565b90506000612544888a6125c8565b9050600061257661256e856125658f86600f0b6125f190919063ffffffff16565b600f0b9061285c565b600f0b612669565b90506000612588600f83900b85612804565b905060006125a661259b83600f0b612723565b600160401b906125f1565b90506125b6600f82900b8e612837565b9e9d5050505050505050505050505050565b6000806125dd83670de0b6b3a7640000614304565b90506125e984826128b3565b949350505050565b6000600f82810b9084900b0360016001607f1b0319811280159061261c575060016001607f1b038113155b61262557600080fd5b9392505050565b60008061264361263b846128ed565b600f0b6128fd565b905060006126508561291f565b9050612660600f82900b836127ce565b95945050505050565b6000600160401b600f83900b1215806126865750600082600f0b13155b156126aa57604051630e59931d60e31b8152600f83900b6004820152602401611093565b67f999999999999999600f83900b138015906126d25750670666666666666666600f83900b12155b156126e057610edb8261292d565b670666666666666666600f83900b12156126fd57610edb826129cb565b6000612715612710600160401b856125f1565b6129cb565b612625906146a6565b919050565b60008061273d600f84900b68016a09e667f3bcc90861285c565b9050600061277b61277061276561275685600f0b612a95565b6753dd02a4f5ee2e46906127ce565b600160401b90612804565b600160401b9061285c565b905060006127898383612ac3565b9050600083600f0b12156127a6576127a381600f0b612b88565b90505b60006127c46127b9600160401b84612804565b6001603f1b906127ce565b9695505050505050565b6000600f83810b9083900b0260401d60016001607f1b0319811280159061261c575060016001607f1b0381131561262557600080fd5b6000600f83810b9083900b0160016001607f1b0319811280159061261c575060016001607f1b0381131561262557600080fd5b60008061284c83670de0b6b3a7640000614304565b90506125e9600f85900b82612b9e565b600081600f0b60000361286e57600080fd5b600082600f0b604085600f0b901b81612889576128896142ee565b05905060016001607f1b0319811280159061261c575060016001607f1b0381131561262557600080fd5b6000816000036128c257600080fd5b60006128ce8484612c09565b905060016001607f1b036001600160801b038216111561262557600080fd5b6000610edb826301e185586128b3565b60008082600f0b121561290f57600080fd5b610edb604083600f0b901b612d6e565b6000610edb826127106128b3565b600080612942600f84900b6001603f1b6125f1565b90506000612954600f83900b836127ce565b905060006126606129c06129b06129916721d0a04b0e9b94f16124c761298367c2bf5d74c724e53e19896127ce565b6124c7600f8a900b8a6127ce565b6125656726a8f3c1f21b336e6124c76787c57e5da70d3c8f19896127ce565b68015d71f5721242c78790612804565b600f85900b906127ce565b6000806129ed61263b6129e5612770600f87900b876127ce565b600f0b612edf565b90506000612a116707a1e70f720eca436124c76801000bf627fa18841019856127ce565b90506000612a356810aeac93f55267a9a56124c768041ed34a2561490236866127ce565b90506000612a6a68072c7d592d021fb1db6124c7612a5c6808c27b4617f5f800ea886127ce565b6124c7600f89900b896127ce565b90506000612a8a612a7f600f85900b8461285c565b600f86900b90612804565b979650505050505050565b60006001607f1b600f83900b01612aab57600080fd5b600082600f0b12612abc5781610edb565b5060000390565b600080612b156129c0612b05612afa612ae9600f88900b68010fb844255a12d72e6127ce565b68017401c57014c38f131990612804565b600f87900b906127ce565b68016a09e667f3bcc90890612804565b90506000612b41612b32612afa6748d4c730f051a5fd1985612804565b67413c831bb169f87490612804565b905060006127c461259b612b7d612b72612b6a612b62600f8c900b8c6127ce565b600f0b612b88565b600f0b612f19565b600f86900b906127ce565b600f88900b906127ce565b60006001607f1b600f83900b01612abc57600080fd5b600081600003612bb057506000610edb565b600083600f0b1215612bc157600080fd5b600f83900b6001600160801b038316810260401c90608084901c026001600160c01b03811115612bf057600080fd5b60401b8119811115612c0157600080fd5b019392505050565b600081600003612c1857600080fd5b60006001600160c01b038411612c435782604085901b81612c3b57612c3b6142ee565b049050612d5a565b60c084811c6401000000008110612c5c576020918201911c5b620100008110612c6e576010918201911c5b6101008110612c7f576008918201911c5b60108110612c8f576004918201911c5b60048110612c9f576002918201911c5b60028110612cae576001820191505b60bf820360018603901c6001018260ff0387901b81612ccf57612ccf6142ee565b0492506001600160801b03831115612ce657600080fd5b608085901c83026001600160801b038616840260c088901c604089901b82811015612d12576001820391505b608084901b92900382811015612d29576001820391505b829003608084901c8214612d3f57612d3f6146cc565b888181612d4e57612d4e6142ee565b04870196505050505050505b6001600160801b0381111561262557600080fd5b600081600003612d8057506000919050565b816001600160801b8210612d995760809190911c9060401b5b600160401b8210612daf5760409190911c9060201b5b6401000000008210612dc65760209190911c9060101b5b620100008210612ddb5760109190911c9060081b5b6101008210612def5760089190911c9060041b5b60108210612e025760049190911c9060021b5b60088210612e0e5760011b5b6001818581612e1f57612e1f6142ee565b048201901c90506001818581612e3757612e376142ee565b048201901c90506001818581612e4f57612e4f6142ee565b048201901c90506001818581612e6757612e676142ee565b048201901c90506001818581612e7f57612e7f6142ee565b048201901c90506001818581612e9757612e976142ee565b048201901c90506001818581612eaf57612eaf6142ee565b048201901c90506000818581612ec757612ec76142ee565b049050808210612ed75780612660565b509392505050565b60008082600f0b13612ef057600080fd5b6080612efb83612f6e565b600f0b6fb17217f7d1cf79abc9e3b39803f2f6af02901c9050919050565b6000600160461b82600f0b12612f2e57600080fd5b683fffffffffffffffff1982600f0b1215612f4b57506000919050565b610edb608083600f0b700171547652b82fe1777d0ffda0d23a7d1202901d613049565b60008082600f0b13612f7f57600080fd5b6000600f83900b600160401b8112612f99576040918201911d5b6401000000008112612fad576020918201911d5b620100008112612fbf576010918201911d5b6101008112612fd0576008918201911d5b60108112612fe0576004918201911d5b60048112612ff0576002918201911d5b60028112612fff576001820191505b603f19820160401b600f85900b607f8490031b6001603f1b5b600081131561303e5790800260ff81901c8281029390930192607f011c9060011d613018565b509095945050505050565b6000600160461b82600f0b1261305e57600080fd5b683fffffffffffffffff1982600f0b121561307b57506000919050565b6001607f1b60006001603f1b8416600f0b13156130a95770016a09e667f3bcc908b2fb1366ea957d3e0260801c5b60008367400000000000000016600f0b13156130d6577001306fe0a31b7152de8d5a46305c85edec0260801c5b60008367200000000000000016600f0b1315613103577001172b83c7d517adcdf7c8c50eb14a791f0260801c5b60008367100000000000000016600f0b13156131305770010b5586cf9890f6298b92b71842a983630260801c5b60008367080000000000000016600f0b131561315d577001059b0d31585743ae7c548eb68ca417fd0260801c5b60008367040000000000000016600f0b131561318a57700102c9a3e778060ee6f7caca4f7a29bde80260801c5b60008367020000000000000016600f0b13156131b75770010163da9fb33356d84a66ae336dcdfa3f0260801c5b60008367010000000000000016600f0b13156131e457700100b1afa5abcbed6129ab13ec11dc95430260801c5b600083668000000000000016600f0b13156132105770010058c86da1c09ea1ff19d294cf2f679b0260801c5b600083664000000000000016600f0b131561323c577001002c605e2e8cec506d21bfc89a23a00f0260801c5b600083662000000000000016600f0b131561326857700100162f3904051fa128bca9c55c31e5df0260801c5b600083661000000000000016600f0b1315613294577001000b175effdc76ba38e31671ca9397250260801c5b600083660800000000000016600f0b13156132c057700100058ba01fb9f96d6cacd4b180917c3d0260801c5b600083660400000000000016600f0b13156132ec5770010002c5cc37da9491d0985c348c68e7b30260801c5b600083660200000000000016600f0b1315613318577001000162e525ee054754457d59952920260260801c5b600083660100000000000016600f0b13156133445770010000b17255775c040618bf4a4ade83fc0260801c5b6000836580000000000016600f0b131561336f577001000058b91b5bc9ae2eed81e9b7d4cfab0260801c5b6000836540000000000016600f0b131561339a57700100002c5c89d5ec6ca4d7c8acc017b7c90260801c5b6000836520000000000016600f0b13156133c55770010000162e43f4f831060e02d839a9d16d0260801c5b6000836510000000000016600f0b13156133f057700100000b1721bcfc99d9f890ea069117630260801c5b6000836508000000000016600f0b131561341b5770010000058b90cf1e6d97f9ca14dbcc16280260801c5b6000836504000000000016600f0b1315613446577001000002c5c863b73f016468f6bac5ca2b0260801c5b6000836502000000000016600f0b131561347157700100000162e430e5a18f6119e3c02282a50260801c5b6000836501000000000016600f0b131561349c577001000000b1721835514b86e6d96efd1bfe0260801c5b60008364800000000016600f0b13156134c657700100000058b90c0b48c6be5df846c5b2ef0260801c5b60008364400000000016600f0b13156134f05770010000002c5c8601cc6b9e94213c72737a0260801c5b60008364200000000016600f0b131561351a577001000000162e42fff037df38aa2b219f060260801c5b60008364100000000016600f0b13156135445770010000000b17217fba9c739aa5819f44f90260801c5b60008364080000000016600f0b131561356e577001000000058b90bfcdee5acd3c1cedc8230260801c5b60008364040000000016600f0b131561359857700100000002c5c85fe31f35a6a30da1be500260801c5b60008364020000000016600f0b13156135c25770010000000162e42ff0999ce3541b9fffcf0260801c5b60008364010000000016600f0b13156135ec57700100000000b17217f80f4ef5aadda455540260801c5b600083638000000016600f0b13156136155770010000000058b90bfbf8479bd5a81b51ad0260801c5b600083634000000016600f0b131561363e577001000000002c5c85fdf84bd62ae30a74cc0260801c5b600083632000000016600f0b131561366757700100000000162e42fefb2fed257559bdaa0260801c5b600083631000000016600f0b1315613690577001000000000b17217f7d5a7716bba4a9ae0260801c5b600083630800000016600f0b13156136b957700100000000058b90bfbe9ddbac5e109cce0260801c5b600083630400000016600f0b13156136e25770010000000002c5c85fdf4b15de6f17eb0d0260801c5b600083630200000016600f0b131561370b577001000000000162e42fefa494f1478fde050260801c5b600083630100000016600f0b13156137345770010000000000b17217f7d20cf927c8e94c0260801c5b6000836280000016600f0b131561375c577001000000000058b90bfbe8f71cb4e4b33d0260801c5b6000836240000016600f0b131561378457700100000000002c5c85fdf477b662b269450260801c5b6000836220000016600f0b13156137ac5770010000000000162e42fefa3ae53369388c0260801c5b6000836210000016600f0b13156137d457700100000000000b17217f7d1d351a389d400260801c5b6000836208000016600f0b13156137fc5770010000000000058b90bfbe8e8b2d3d4ede0260801c5b6000836204000016600f0b1315613824577001000000000002c5c85fdf4741bea6e77e0260801c5b6000836202000016600f0b131561384c57700100000000000162e42fefa39fe95583c20260801c5b6000836201000016600f0b1315613874577001000000000000b17217f7d1cfb72b45e10260801c5b60008361800016600f0b131561389b57700100000000000058b90bfbe8e7cc35c3f00260801c5b60008361400016600f0b13156138c25770010000000000002c5c85fdf473e242ea380260801c5b60008361200016600f0b13156138e9577001000000000000162e42fefa39f02b772c0260801c5b60008361100016600f0b13156139105770010000000000000b17217f7d1cf7d83c1a0260801c5b60008361080016600f0b1315613937577001000000000000058b90bfbe8e7bdcbe2e0260801c5b60008361040016600f0b131561395e57700100000000000002c5c85fdf473dea871f0260801c5b60008361020016600f0b13156139855770010000000000000162e42fefa39ef44d910260801c5b60008361010016600f0b13156139ac57700100000000000000b17217f7d1cf79e9490260801c5b600083608016600f0b13156139d25770010000000000000058b90bfbe8e7bce5440260801c5b600083604016600f0b13156139f8577001000000000000002c5c85fdf473de6eca0260801c5b600083602016600f0b1315613a1e57700100000000000000162e42fefa39ef366f0260801c5b600083601016600f0b1315613a44577001000000000000000b17217f7d1cf79afa0260801c5b600083600816600f0b1315613a6a57700100000000000000058b90bfbe8e7bcd6d0260801c5b600083600416600f0b1315613a905770010000000000000002c5c85fdf473de6b20260801c5b600083600216600f0b1315613ab6577001000000000000000162e42fefa39ef3580260801c5b600083600116600f0b1315613adc5770010000000000000000b17217f7d1cf79ab0260801c5b600f83810b60401d603f03900b1c60016001607f1b03811115610edb57600080fd5b6000815180845260005b81811015613b2457602081850181015186830182015201613b08565b506000602082860101526020601f19601f83011685010191505092915050565b6020815260006126256020830184613afe565b6001600160a01b0381168114613b6c57600080fd5b50565b60008083601f840112613b8157600080fd5b50813567ffffffffffffffff811115613b9957600080fd5b602083019150836020828501011115613bb157600080fd5b9250929050565b60008060008060008060a08789031215613bd157600080fd5b863595506020870135613be381613b57565b94506040870135935060608701359250608087013567ffffffffffffffff811115613c0d57600080fd5b613c1989828a01613b6f565b979a9699509497509295939492505050565b600060208284031215613c3d57600080fd5b813561262581613b57565b60008060008060608587031215613c5e57600080fd5b8435935060208501359250604085013567ffffffffffffffff811115613c8357600080fd5b613c8f87828801613b6f565b95989497509550505050565b600060208284031215613cad57600080fd5b5035919050565b600080600080600060808688031215613ccc57600080fd5b8535613cd781613b57565b94506020860135935060408601359250606086013567ffffffffffffffff811115613d0157600080fd5b613d0d88828901613b6f565b969995985093965092949392505050565b634e487b7160e01b600052604160045260246000fd5b600067ffffffffffffffff80841115613d4f57613d4f613d1e565b604051601f8501601f19908116603f01168101908282118183101715613d7757613d77613d1e565b81604052809350858152868686011115613d9057600080fd5b858560208301376000602087830101525050509392505050565b600080600060608486031215613dbf57600080fd5b8335925060208401359150604084013567ffffffffffffffff811115613de457600080fd5b8401601f81018613613df557600080fd5b613e0486823560208401613d34565b9150509250925092565b60008060408385031215613e2157600080fd5b50508035926020909101359150565b60008060008060008060008060e0898b031215613e4c57600080fd5b883597506020890135965060408901359550606089013594506080890135935060a0890135925060c089013567ffffffffffffffff811115613e8d57600080fd5b613e998b828c01613b6f565b999c989b5096995094979396929594505050565b634e487b7160e01b600052602160045260246000fd5b6020810160058310613ee557634e487b7160e01b600052602160045260246000fd5b91905290565b600060208284031215613efd57600080fd5b813567ffffffffffffffff811115613f1457600080fd5b8201601f81018413613f2557600080fd5b6125e984823560208401613d34565b600080600060608486031215613f4957600080fd5b8335613f5481613b57565b95602085013595506040909401359392505050565b8015158114613b6c57600080fd5b60008060008060008060008060006101008a8c031215613f9657600080fd5b8935613fa181613b57565b985060208a0135975060408a0135613fb881613f69565b965060608a0135955060808a0135945060a08a0135613fd681613f69565b935060c08a0135613fe681613f69565b925060e08a013567ffffffffffffffff81111561400257600080fd5b61400e8c828d01613b6f565b915080935050809150509295985092959850929598565b81835281816020850137506000828201602090810191909152601f909101601f19169091010190565b87815260018060a01b0387166020820152856040820152846060820152831515608082015260c060a0820152600061408a60c083018486614025565b9998505050505050505050565b6000602082840312156140a957600080fd5b5051919050565b6001600160a01b039384168152919092166020820152604081019190915260600190565b6000602082840312156140e657600080fd5b815161262581613f69565b86815260018060a01b0386166020820152846040820152836060820152821515608082015260c060a0820152600061412c60c0830184613afe565b98975050505050505050565b60018060a01b0386168152846020820152836040820152608060608201526000612a8a608083018486614025565b6000806040838503121561417957600080fd5b505080516020909101519092909150565b80516001600160801b038116811461271e57600080fd5b805163ffffffff8116811461271e57600080fd5b600080600080600080600060e0888a0312156141d057600080fd5b6141d98861418a565b96506141e76020890161418a565b95506141f56040890161418a565b9450614203606089016141a1565b93506080880151925060a0880151915060c0880151905092959891949750929550565b600080600080600060a0868803121561423e57600080fd5b6142478661418a565b9450614255602087016141a1565b9350614263604087016141a1565b9250614271606087016141a1565b915061427f608087016141a1565b90509295509295909350565b60006020828403121561429d57600080fd5b815180600f0b811461262557600080fd5b634e487b7160e01b600052601160045260246000fd5b81810381811115610edb57610edb6142ae565b8082028115828204841417610edb57610edb6142ae565b634e487b7160e01b600052601260045260246000fd5b60008261432157634e487b7160e01b600052601260045260246000fd5b500490565b63ffffffff828116828216039080821115614343576143436142ae565b5092915050565b80820180821115610edb57610edb6142ae565b60006020828403121561436f57600080fd5b815161262581613b57565b6001600160801b0389168152600063ffffffff808a16602084015280891660408401528088166060840152508560808301528460a083015260e060c08301526143c760e083018486614025565b9a9950505050505050505050565b6000806000606084860312156143ea57600080fd5b8351925060208401519150604084015190509250925092565b600181811c9082168061441757607f821691505b60208210810361443757634e487b7160e01b600052602260045260246000fd5b50919050565b600080835461444b81614403565b600182811680156144635760018114614478576144a7565b60ff19841687528215158302870194506144a7565b8760005260208060002060005b8581101561449e5781548a820152908401908201614485565b50505082870194505b50929695505050505050565b60006020808352600084546144c781614403565b808487015260406001808416600081146144e8576001811461450257614530565b60ff1985168984015283151560051b890183019550614530565b896000528660002060005b858110156145285781548b820186015290830190880161450d565b8a0184019650505b509398975050505050505050565b601f82111561458457600081815260208120601f850160051c810160208610156145655750805b601f850160051c820191505b81811015610b0157828155600101614571565b505050565b815167ffffffffffffffff8111156145a3576145a3613d1e565b6145b7816145b18454614403565b8461453e565b602080601f8311600181146145ec57600084156145d45750858301515b600019600386901b1c1916600185901b178555610b01565b600085815260208120601f198616915b8281101561461b578886015182559484019460019091019084016145fc565b50858210156146395787850151600019600388901b60f8161c191681555b5050505050600190811b01905550565b600061010060018060a01b038c1683528a6020840152891515604084015288606084015287608084015286151560a084015285151560c08401528060e08401526146968184018587614025565b9c9b505050505050505050505050565b600081600f0b60016001607f1b031981036146c3576146c36142ae565b60000392915050565b634e487b7160e01b600052600160045260246000fdfea26469706673582212200895879baf03c85c177982b881052180ead1f15a5cd19b71b4b464493133eb5d64736f6c63430008140033","linkReferences":{}},"methodIdentifiers":{"allocate(bytes32,address,uint256,uint256,bytes)":"b045aad2","allocateCallback(uint256,uint256,bytes)":"151a8bf8","allocateFromExternal(bytes32,address,uint256,uint256,bytes)":"c361a1d5","allocateFromExternalNoBase(bytes32,address,uint256,uint256,bytes)":"f418bb2f","allocateFromExternalNoQuote(bytes32,address,uint256,uint256,bytes)":"0e5c7cd9","allocateFromExternalReentrancy(bytes32,address,uint256,uint256,bytes)":"ff716a85","allocateFromMargin(bytes32,address,uint256,uint256,bytes)":"3a6a4dec","base()":"5001f3b5","caller()":"fc9c8d39","create(uint256,uint256,uint256,uint256,uint256,uint256,bytes)":"60ff30a3","createCallback(uint256,uint256,bytes)":"c171d27e","deposit(address,uint256,uint256,bytes)":"9e48ff5a","depositCallback(uint256,uint256,bytes)":"c536e605","depositFail(address,uint256,uint256,bytes)":"3ce8d7bf","depositOnlyBase(address,uint256,uint256,bytes)":"19b1175f","depositOnlyQuote(address,uint256,uint256,bytes)":"749a54b9","depositReentrancy(address,uint256,uint256,bytes)":"1a8a7786","engine()":"c9d4623f","expect(string)":"76ba974c","expectedError()":"c22e4049","getBaseInGivenQuoteOut(bytes32,uint256)":"4fe0a208","getBaseOutGivenQuoteIn(bytes32,uint256)":"f32b05df","getCaller()":"ab470f05","getPosition(bytes32)":"1928b3cb","getQuoteInGivenBaseOut(bytes32,uint256)":"8a363c67","getQuoteOutGivenBaseIn(bytes32,uint256)":"8e2b2d3b","name()":"06fdde03","quote()":"999b93af","remove(bytes32,uint256,bytes)":"c765d461","removeToExternal(bytes32,uint256,bytes)":"9467bf72","removeToMargin(bytes32,uint256,bytes)":"40673de8","scenario()":"6b78c67a","setEngine(address)":"0e830e49","swap(address,bytes32,bool,uint256,uint256,bool,bool,bytes)":"ca28fcd6","swapCallback(uint256,uint256,bytes)":"923b8a2a","withdraw(uint256,uint256)":"441a3e70","withdrawToRecipient(address,uint256,uint256)":"7b83828e"},"id":36}