{"abi":[{"type":"constructor","inputs":[],"stateMutability":"nonpayable"},{"type":"function","name":"PRECISION","inputs":[],"outputs":[{"name":"","type":"uint256","internalType":"uint256"}],"stateMutability":"view"},{"type":"function","name":"cdf","inputs":[{"name":"x","type":"uint256","internalType":"uint256"}],"outputs":[{"name":"","type":"int128","internalType":"int128"}],"stateMutability":"pure"},{"type":"function","name":"cdfX64","inputs":[{"name":"z","type":"int128","internalType":"int128"}],"outputs":[{"name":"","type":"int128","internalType":"int128"}],"stateMutability":"pure"},{"type":"function","name":"icdf","inputs":[{"name":"x","type":"uint256","internalType":"uint256"}],"outputs":[{"name":"y","type":"int128","internalType":"int128"}],"stateMutability":"pure"},{"type":"function","name":"inverseCDF","inputs":[{"name":"x","type":"uint256","internalType":"uint256"}],"outputs":[{"name":"y","type":"int128","internalType":"int128"}],"stateMutability":"pure"},{"type":"function","name":"inverseCDFHighTail","inputs":[],"outputs":[{"name":"y","type":"int128","internalType":"int128"}],"stateMutability":"pure"},{"type":"function","name":"inverseCDFLowTail","inputs":[],"outputs":[{"name":"y","type":"int128","internalType":"int128"}],"stateMutability":"pure"},{"type":"function","name":"signedCDF","inputs":[{"name":"x","type":"uint256","internalType":"uint256"}],"outputs":[{"name":"","type":"int128","internalType":"int128"}],"stateMutability":"pure"},{"type":"function","name":"signedInverseCDF","inputs":[{"name":"x","type":"uint256","internalType":"uint256"}],"outputs":[{"name":"y","type":"int128","internalType":"int128"}],"stateMutability":"pure"},{"type":"error","name":"InverseOutOfBounds","inputs":[{"name":"value","type":"int128","internalType":"int128"}]}],"bytecode":{"object":"0x608060405234801561001057600080fd5b506117aa806100206000396000f3fe608060405234801561001057600080fd5b50600436106100935760003560e01c806399607bd01161006657806399607bd0146100e6578063a4c376c1146100f9578063a85182451461010c578063aaf5eb681461011f578063fecec36a1461013c57600080fd5b80630a2c68d71461009857806316255a25146100b857806354fa95b3146100c057806360042c7e146100d3575b600080fd5b6100a061014f565b604051600f9190910b81526020015b60405180910390f35b6100a0610179565b6100a06100ce3660046116b6565b61018f565b6100a06100e13660046116b6565b6101c2565b6100a06100f43660046116b6565b6101d7565b6100a06101073660046116b6565b6101fa565b6100a061011a3660046116b6565b610208565b61012e670de0b6b3a764000081565b6040519081526020016100af565b6100a061014a3660046116cf565b610226565b60008061016567f9999999999999996001610245565b905061017381600f0b610279565b91505090565b6000806101656706666666666666666001610332565b6000806101a483670de0b6b3a7640000610365565b6101ad906116f2565b90506101bb81600f0b61039f565b9392505050565b6000806101ad83670de0b6b3a7640000610365565b6000806101ec83670de0b6b3a7640000610365565b90506101bb81600f0b610279565b6000806101ec83600161044a565b60008061021d83670de0b6b3a7640000610365565b6101ec906116f2565b6000610231826116f2565b915061023f82600f0b61039f565b92915050565b6000600f83810b9083900b0160016001607f1b03198112801590610270575060016001607f1b038113155b6101bb57600080fd5b6000600160401b600f83900b1215806102965750600082600f0b13155b156102be57604051630e59931d60e31b8152600f83900b600482015260240160405180910390fd5b67f999999999999999600f83900b138015906102e65750670666666666666666600f83900b12155b156102f45761023f82610473565b670666666666666666600f83900b12156103115761023f8261052c565b6000610329610324600160401b85610332565b61052c565b6101bb906116f2565b6000600f82810b9084900b0360016001607f1b03198112801590610270575060016001607f1b038113156101bb57600080fd5b60008160000361037457600080fd5b600061038084846105fe565b905060016001607f1b036001600160801b03821611156101bb57600080fd5b6000806103b9600f84900b68016a09e667f3bcc908610763565b905060006103f76103ec6103e16103d285600f0b6107ba565b6753dd02a4f5ee2e46906107e8565b600160401b90610245565b600160401b90610763565b90506000610405838361081e565b9050600083600f0b12156104225761041f81600f0b6108ee565b90505b6000610440610435600160401b84610245565b6001603f1b906107e8565b9695505050505050565b60008061045f83670de0b6b3a764000061173c565b905061046b8482610365565b949350505050565b600080610488600f84900b6001603f1b610332565b9050600061049a600f83900b836107e8565b905060006105236105186105086104e06721d0a04b0e9b94f16104d76104c967c2bf5d74c724e53e19896107e8565b6104d7600f8a900b8a6107e8565b600f0b90610245565b6104ff6726a8f3c1f21b336e6104d76787c57e5da70d3c8f19896107e8565b600f0b90610763565b68015d71f5721242c78790610245565b600f85900b906107e8565b95945050505050565b60008061055661054e6105466103ec600f87900b876107e8565b600f0b610904565b600f0b61093e565b9050600061057a6707a1e70f720eca436104d76801000bf627fa18841019856107e8565b9050600061059e6810aeac93f55267a9a56104d768041ed34a2561490236866107e8565b905060006105d368072c7d592d021fb1db6104d76105c56808c27b4617f5f800ea886107e8565b6104d7600f89900b896107e8565b905060006105f36105e8600f85900b84610763565b600f86900b90610245565b979650505050505050565b60008160000361060d57600080fd5b60006001600160c01b0384116106385782604085901b8161063057610630611726565b04905061074f565b60c084811c6401000000008110610651576020918201911c5b620100008110610663576010918201911c5b6101008110610674576008918201911c5b60108110610684576004918201911c5b60048110610694576002918201911c5b600281106106a3576001820191505b60bf820360018603901c6001018260ff0387901b816106c4576106c4611726565b0492506001600160801b038311156106db57600080fd5b608085901c83026001600160801b038616840260c088901c604089901b82811015610707576001820391505b608084901b9290038281101561071e576001820391505b829003608084901c82146107345761073461175e565b88818161074357610743611726565b04870196505050505050505b6001600160801b038111156101bb57600080fd5b600081600f0b60000361077557600080fd5b600082600f0b604085600f0b901b8161079057610790611726565b05905060016001607f1b03198112801590610270575060016001607f1b038113156101bb57600080fd5b60006001607f1b600f83900b016107d057600080fd5b600082600f0b126107e1578161023f565b5060000390565b6000600f83810b9083900b0260401d60016001607f1b03198112801590610270575060016001607f1b038113156101bb57600080fd5b600080610870610518610860610855610844600f88900b68010fb844255a12d72e6107e8565b68017401c57014c38f131990610245565b600f87900b906107e8565b68016a09e667f3bcc90890610245565b9050600061089c61088d6108556748d4c730f051a5fd1985610245565b67413c831bb169f87490610245565b905060006104406108e36108d86108cd6108c56108bd600f8c900b8c6107e8565b600f0b6108ee565b600f0b610960565b600f86900b906107e8565b600f88900b906107e8565b600160401b90610332565b60006001607f1b600f83900b016107e157600080fd5b60008082600f0b1361091557600080fd5b6080610920836109b5565b600f0b6fb17217f7d1cf79abc9e3b39803f2f6af02901c9050919050565b60008082600f0b121561095057600080fd5b61023f604083600f0b901b610a90565b6000600160461b82600f0b1261097557600080fd5b683fffffffffffffffff1982600f0b121561099257506000919050565b61023f608083600f0b700171547652b82fe1777d0ffda0d23a7d1202901d610c01565b60008082600f0b136109c657600080fd5b6000600f83900b600160401b81126109e0576040918201911d5b64010000000081126109f4576020918201911d5b620100008112610a06576010918201911d5b6101008112610a17576008918201911d5b60108112610a27576004918201911d5b60048112610a37576002918201911d5b60028112610a46576001820191505b603f19820160401b600f85900b607f8490031b6001603f1b5b6000811315610a855790800260ff81901c8281029390930192607f011c9060011d610a5f565b509095945050505050565b600081600003610aa257506000919050565b816001600160801b8210610abb5760809190911c9060401b5b600160401b8210610ad15760409190911c9060201b5b6401000000008210610ae85760209190911c9060101b5b620100008210610afd5760109190911c9060081b5b6101008210610b115760089190911c9060041b5b60108210610b245760049190911c9060021b5b60088210610b305760011b5b6001818581610b4157610b41611726565b048201901c90506001818581610b5957610b59611726565b048201901c90506001818581610b7157610b71611726565b048201901c90506001818581610b8957610b89611726565b048201901c90506001818581610ba157610ba1611726565b048201901c90506001818581610bb957610bb9611726565b048201901c90506001818581610bd157610bd1611726565b048201901c90506000818581610be957610be9611726565b049050808210610bf95780610523565b509392505050565b6000600160461b82600f0b12610c1657600080fd5b683fffffffffffffffff1982600f0b1215610c3357506000919050565b6001607f1b60006001603f1b8416600f0b1315610c615770016a09e667f3bcc908b2fb1366ea957d3e0260801c5b60008367400000000000000016600f0b1315610c8e577001306fe0a31b7152de8d5a46305c85edec0260801c5b60008367200000000000000016600f0b1315610cbb577001172b83c7d517adcdf7c8c50eb14a791f0260801c5b60008367100000000000000016600f0b1315610ce85770010b5586cf9890f6298b92b71842a983630260801c5b60008367080000000000000016600f0b1315610d15577001059b0d31585743ae7c548eb68ca417fd0260801c5b60008367040000000000000016600f0b1315610d4257700102c9a3e778060ee6f7caca4f7a29bde80260801c5b60008367020000000000000016600f0b1315610d6f5770010163da9fb33356d84a66ae336dcdfa3f0260801c5b60008367010000000000000016600f0b1315610d9c57700100b1afa5abcbed6129ab13ec11dc95430260801c5b600083668000000000000016600f0b1315610dc85770010058c86da1c09ea1ff19d294cf2f679b0260801c5b600083664000000000000016600f0b1315610df4577001002c605e2e8cec506d21bfc89a23a00f0260801c5b600083662000000000000016600f0b1315610e2057700100162f3904051fa128bca9c55c31e5df0260801c5b600083661000000000000016600f0b1315610e4c577001000b175effdc76ba38e31671ca9397250260801c5b600083660800000000000016600f0b1315610e7857700100058ba01fb9f96d6cacd4b180917c3d0260801c5b600083660400000000000016600f0b1315610ea45770010002c5cc37da9491d0985c348c68e7b30260801c5b600083660200000000000016600f0b1315610ed0577001000162e525ee054754457d59952920260260801c5b600083660100000000000016600f0b1315610efc5770010000b17255775c040618bf4a4ade83fc0260801c5b6000836580000000000016600f0b1315610f27577001000058b91b5bc9ae2eed81e9b7d4cfab0260801c5b6000836540000000000016600f0b1315610f5257700100002c5c89d5ec6ca4d7c8acc017b7c90260801c5b6000836520000000000016600f0b1315610f7d5770010000162e43f4f831060e02d839a9d16d0260801c5b6000836510000000000016600f0b1315610fa857700100000b1721bcfc99d9f890ea069117630260801c5b6000836508000000000016600f0b1315610fd35770010000058b90cf1e6d97f9ca14dbcc16280260801c5b6000836504000000000016600f0b1315610ffe577001000002c5c863b73f016468f6bac5ca2b0260801c5b6000836502000000000016600f0b131561102957700100000162e430e5a18f6119e3c02282a50260801c5b6000836501000000000016600f0b1315611054577001000000b1721835514b86e6d96efd1bfe0260801c5b60008364800000000016600f0b131561107e57700100000058b90c0b48c6be5df846c5b2ef0260801c5b60008364400000000016600f0b13156110a85770010000002c5c8601cc6b9e94213c72737a0260801c5b60008364200000000016600f0b13156110d2577001000000162e42fff037df38aa2b219f060260801c5b60008364100000000016600f0b13156110fc5770010000000b17217fba9c739aa5819f44f90260801c5b60008364080000000016600f0b1315611126577001000000058b90bfcdee5acd3c1cedc8230260801c5b60008364040000000016600f0b131561115057700100000002c5c85fe31f35a6a30da1be500260801c5b60008364020000000016600f0b131561117a5770010000000162e42ff0999ce3541b9fffcf0260801c5b60008364010000000016600f0b13156111a457700100000000b17217f80f4ef5aadda455540260801c5b600083638000000016600f0b13156111cd5770010000000058b90bfbf8479bd5a81b51ad0260801c5b600083634000000016600f0b13156111f6577001000000002c5c85fdf84bd62ae30a74cc0260801c5b600083632000000016600f0b131561121f57700100000000162e42fefb2fed257559bdaa0260801c5b600083631000000016600f0b1315611248577001000000000b17217f7d5a7716bba4a9ae0260801c5b600083630800000016600f0b131561127157700100000000058b90bfbe9ddbac5e109cce0260801c5b600083630400000016600f0b131561129a5770010000000002c5c85fdf4b15de6f17eb0d0260801c5b600083630200000016600f0b13156112c3577001000000000162e42fefa494f1478fde050260801c5b600083630100000016600f0b13156112ec5770010000000000b17217f7d20cf927c8e94c0260801c5b6000836280000016600f0b1315611314577001000000000058b90bfbe8f71cb4e4b33d0260801c5b6000836240000016600f0b131561133c57700100000000002c5c85fdf477b662b269450260801c5b6000836220000016600f0b13156113645770010000000000162e42fefa3ae53369388c0260801c5b6000836210000016600f0b131561138c57700100000000000b17217f7d1d351a389d400260801c5b6000836208000016600f0b13156113b45770010000000000058b90bfbe8e8b2d3d4ede0260801c5b6000836204000016600f0b13156113dc577001000000000002c5c85fdf4741bea6e77e0260801c5b6000836202000016600f0b131561140457700100000000000162e42fefa39fe95583c20260801c5b6000836201000016600f0b131561142c577001000000000000b17217f7d1cfb72b45e10260801c5b60008361800016600f0b131561145357700100000000000058b90bfbe8e7cc35c3f00260801c5b60008361400016600f0b131561147a5770010000000000002c5c85fdf473e242ea380260801c5b60008361200016600f0b13156114a1577001000000000000162e42fefa39f02b772c0260801c5b60008361100016600f0b13156114c85770010000000000000b17217f7d1cf7d83c1a0260801c5b60008361080016600f0b13156114ef577001000000000000058b90bfbe8e7bdcbe2e0260801c5b60008361040016600f0b131561151657700100000000000002c5c85fdf473dea871f0260801c5b60008361020016600f0b131561153d5770010000000000000162e42fefa39ef44d910260801c5b60008361010016600f0b131561156457700100000000000000b17217f7d1cf79e9490260801c5b600083608016600f0b131561158a5770010000000000000058b90bfbe8e7bce5440260801c5b600083604016600f0b13156115b0577001000000000000002c5c85fdf473de6eca0260801c5b600083602016600f0b13156115d657700100000000000000162e42fefa39ef366f0260801c5b600083601016600f0b13156115fc577001000000000000000b17217f7d1cf79afa0260801c5b600083600816600f0b131561162257700100000000000000058b90bfbe8e7bcd6d0260801c5b600083600416600f0b13156116485770010000000000000002c5c85fdf473de6b20260801c5b600083600216600f0b131561166e577001000000000000000162e42fefa39ef3580260801c5b600083600116600f0b13156116945770010000000000000000b17217f7d1cf79ab0260801c5b600f83810b60401d603f03900b1c60016001607f1b0381111561023f57600080fd5b6000602082840312156116c857600080fd5b5035919050565b6000602082840312156116e157600080fd5b813580600f0b81146101bb57600080fd5b600081600f0b60016001607f1b0319810361171d57634e487b7160e01b600052601160045260246000fd5b60000392915050565b634e487b7160e01b600052601260045260246000fd5b60008261175957634e487b7160e01b600052601260045260246000fd5b500490565b634e487b7160e01b600052600160045260246000fdfea26469706673582212206f3bdb28eb7f6f5885a06b38f4990e2424bb7d7ed5df9787d1ee8927bbf3d79564736f6c63430008140033","linkReferences":{}},"methodIdentifiers":{"PRECISION()":"aaf5eb68","cdf(uint256)":"60042c7e","cdfX64(int128)":"fecec36a","icdf(uint256)":"a4c376c1","inverseCDF(uint256)":"99607bd0","inverseCDFHighTail()":"0a2c68d7","inverseCDFLowTail()":"16255a25","signedCDF(uint256)":"54fa95b3","signedInverseCDF(uint256)":"a8518245"},"id":48}