{"abi":[{"type":"constructor","inputs":[],"stateMutability":"nonpayable"},{"type":"function","name":"deploy","inputs":[{"name":"quote","type":"address","internalType":"address"},{"name":"base","type":"address","internalType":"address"}],"outputs":[],"stateMutability":"nonpayable"},{"type":"function","name":"factory","inputs":[],"outputs":[{"name":"","type":"address","internalType":"address"}],"stateMutability":"view"},{"type":"function","name":"initialize","inputs":[{"name":"factory_","type":"address","internalType":"address"}],"outputs":[],"stateMutability":"nonpayable"},{"type":"function","name":"name","inputs":[],"outputs":[{"name":"","type":"string","internalType":"string"}],"stateMutability":"pure"}],"bytecode":{"object":"0x608060405234801561001057600080fd5b5061028c806100206000396000f3fe608060405234801561001057600080fd5b506004361061004c5760003560e01c806306fdde0314610051578063545e7c6114610089578063c45a01551461009e578063c4d66de8146100c9575b600080fd5b604080518082018252600d81526c466163746f72794465706c6f7960981b602082015290516100809190610176565b60405180910390f35b61009c6100973660046101dc565b6100f9565b005b6000546100b1906001600160a01b031681565b6040516001600160a01b039091168152602001610080565b61009c6100d7366004610215565b600080546001600160a01b0319166001600160a01b0392909216919091179055565b60005460405163545e7c6160e01b81526001600160a01b03848116600483015283811660248301529091169063545e7c61906044016020604051808303816000875af115801561014d573d6000803e3d6000fd5b505050506040513d601f19601f820116820180604052508101906101719190610239565b505050565b600060208083528351808285015260005b818110156101a357858101830151858201604001528201610187565b506000604082860101526040601f19601f8301168501019250505092915050565b6001600160a01b03811681146101d957600080fd5b50565b600080604083850312156101ef57600080fd5b82356101fa816101c4565b9150602083013561020a816101c4565b809150509250929050565b60006020828403121561022757600080fd5b8135610232816101c4565b9392505050565b60006020828403121561024b57600080fd5b8151610232816101c456fea264697066735822122040ed8fe3a17bbff53b87193f37928e04d95b612e8f96647a1824f890dfd5cdec64736f6c63430008140033","linkReferences":{}},"methodIdentifiers":{"deploy(address,address)":"545e7c61","factory()":"c45a0155","initialize(address)":"c4d66de8","name()":"06fdde03"},"id":45}