{"abi":[{"type":"function","name":"BUFFER","inputs":[],"outputs":[{"name":"","type":"uint256","internalType":"uint256"}],"stateMutability":"view"},{"type":"function","name":"MIN_LIQUIDITY","inputs":[],"outputs":[{"name":"","type":"uint256","internalType":"uint256"}],"stateMutability":"view"},{"type":"function","name":"PRECISION","inputs":[],"outputs":[{"name":"","type":"uint256","internalType":"uint256"}],"stateMutability":"view"},{"type":"function","name":"advanceTime","inputs":[{"name":"by","type":"uint256","internalType":"uint256"}],"outputs":[],"stateMutability":"nonpayable"},{"type":"function","name":"allocate","inputs":[{"name":"poolId","type":"bytes32","internalType":"bytes32"},{"name":"recipient","type":"address","internalType":"address"},{"name":"delQuote","type":"uint256","internalType":"uint256"},{"name":"delBase","type":"uint256","internalType":"uint256"},{"name":"fromMargin","type":"bool","internalType":"bool"},{"name":"data","type":"bytes","internalType":"bytes"}],"outputs":[{"name":"delLiquidity","type":"uint256","internalType":"uint256"}],"stateMutability":"nonpayable"},{"type":"function","name":"base","inputs":[],"outputs":[{"name":"","type":"address","internalType":"address"}],"stateMutability":"view"},{"type":"function","name":"calibrations","inputs":[{"name":"","type":"bytes32","internalType":"bytes32"}],"outputs":[{"name":"strike","type":"uint128","internalType":"uint128"},{"name":"sigma","type":"uint32","internalType":"uint32"},{"name":"maturity","type":"uint32","internalType":"uint32"},{"name":"lastTimestamp","type":"uint32","internalType":"uint32"},{"name":"gamma","type":"uint32","internalType":"uint32"}],"stateMutability":"view"},{"type":"function","name":"create","inputs":[{"name":"strike","type":"uint128","internalType":"uint128"},{"name":"sigma","type":"uint32","internalType":"uint32"},{"name":"maturity","type":"uint32","internalType":"uint32"},{"name":"gamma","type":"uint32","internalType":"uint32"},{"name":"quotePerLp","type":"uint256","internalType":"uint256"},{"name":"delLiquidity","type":"uint256","internalType":"uint256"},{"name":"data","type":"bytes","internalType":"bytes"}],"outputs":[{"name":"poolId","type":"bytes32","internalType":"bytes32"},{"name":"delQuote","type":"uint256","internalType":"uint256"},{"name":"delBase","type":"uint256","internalType":"uint256"}],"stateMutability":"nonpayable"},{"type":"function","name":"deposit","inputs":[{"name":"recipient","type":"address","internalType":"address"},{"name":"delQuote","type":"uint256","internalType":"uint256"},{"name":"delBase","type":"uint256","internalType":"uint256"},{"name":"data","type":"bytes","internalType":"bytes"}],"outputs":[],"stateMutability":"nonpayable"},{"type":"function","name":"factory","inputs":[],"outputs":[{"name":"","type":"address","internalType":"address"}],"stateMutability":"view"},{"type":"function","name":"invariantOf","inputs":[{"name":"poolId","type":"bytes32","internalType":"bytes32"}],"outputs":[{"name":"invariant","type":"int128","internalType":"int128"}],"stateMutability":"view"},{"type":"function","name":"liquidity","inputs":[{"name":"","type":"address","internalType":"address"},{"name":"","type":"bytes32","internalType":"bytes32"}],"outputs":[{"name":"","type":"uint256","internalType":"uint256"}],"stateMutability":"view"},{"type":"function","name":"margins","inputs":[{"name":"","type":"address","internalType":"address"}],"outputs":[{"name":"balanceQuote","type":"uint128","internalType":"uint128"},{"name":"balanceBase","type":"uint128","internalType":"uint128"}],"stateMutability":"view"},{"type":"function","name":"quote","inputs":[],"outputs":[{"name":"","type":"address","internalType":"address"}],"stateMutability":"view"},{"type":"function","name":"remove","inputs":[{"name":"poolId","type":"bytes32","internalType":"bytes32"},{"name":"delLiquidity","type":"uint256","internalType":"uint256"}],"outputs":[{"name":"delQuote","type":"uint256","internalType":"uint256"},{"name":"delBase","type":"uint256","internalType":"uint256"}],"stateMutability":"nonpayable"},{"type":"function","name":"reserves","inputs":[{"name":"","type":"bytes32","internalType":"bytes32"}],"outputs":[{"name":"reserveQuote","type":"uint128","internalType":"uint128"},{"name":"reserveBase","type":"uint128","internalType":"uint128"},{"name":"liquidity","type":"uint128","internalType":"uint128"},{"name":"blockTimestamp","type":"uint32","internalType":"uint32"},{"name":"cumulativeQuote","type":"uint256","internalType":"uint256"},{"name":"cumulativeBase","type":"uint256","internalType":"uint256"},{"name":"cumulativeLiquidity","type":"uint256","internalType":"uint256"}],"stateMutability":"view"},{"type":"function","name":"scaleFactorBase","inputs":[],"outputs":[{"name":"","type":"uint256","internalType":"uint256"}],"stateMutability":"view"},{"type":"function","name":"scaleFactorQuote","inputs":[],"outputs":[{"name":"","type":"uint256","internalType":"uint256"}],"stateMutability":"view"},{"type":"function","name":"setReserves","inputs":[{"name":"poolId","type":"bytes32","internalType":"bytes32"},{"name":"reserveQuote","type":"uint256","internalType":"uint256"},{"name":"reserveBase","type":"uint256","internalType":"uint256"}],"outputs":[],"stateMutability":"nonpayable"},{"type":"function","name":"swap","inputs":[{"name":"recipient","type":"address","internalType":"address"},{"name":"poolId","type":"bytes32","internalType":"bytes32"},{"name":"quoteForBase","type":"bool","internalType":"bool"},{"name":"deltaIn","type":"uint256","internalType":"uint256"},{"name":"deltaOut","type":"uint256","internalType":"uint256"},{"name":"fromMargin","type":"bool","internalType":"bool"},{"name":"toMargin","type":"bool","internalType":"bool"},{"name":"data","type":"bytes","internalType":"bytes"}],"outputs":[],"stateMutability":"nonpayable"},{"type":"function","name":"time","inputs":[],"outputs":[{"name":"","type":"uint256","internalType":"uint256"}],"stateMutability":"view"},{"type":"function","name":"updateLastTimestamp","inputs":[{"name":"poolId","type":"bytes32","internalType":"bytes32"}],"outputs":[{"name":"lastTimestamp","type":"uint32","internalType":"uint32"}],"stateMutability":"nonpayable"},{"type":"function","name":"updateReserves","inputs":[{"name":"poolId","type":"bytes32","internalType":"bytes32"},{"name":"reserveQuote","type":"uint256","internalType":"uint256"}],"outputs":[],"stateMutability":"nonpayable"},{"type":"function","name":"withdraw","inputs":[{"name":"recipient","type":"address","internalType":"address"},{"name":"delQuote","type":"uint256","internalType":"uint256"},{"name":"delBase","type":"uint256","internalType":"uint256"}],"outputs":[],"stateMutability":"nonpayable"},{"type":"event","name":"Allocate","inputs":[{"name":"from","type":"address","indexed":true,"internalType":"address"},{"name":"recipient","type":"address","indexed":true,"internalType":"address"},{"name":"poolId","type":"bytes32","indexed":true,"internalType":"bytes32"},{"name":"delQuote","type":"uint256","indexed":false,"internalType":"uint256"},{"name":"delBase","type":"uint256","indexed":false,"internalType":"uint256"},{"name":"delLiquidity","type":"uint256","indexed":false,"internalType":"uint256"}],"anonymous":false},{"type":"event","name":"Create","inputs":[{"name":"from","type":"address","indexed":true,"internalType":"address"},{"name":"strike","type":"uint128","indexed":false,"internalType":"uint128"},{"name":"sigma","type":"uint32","indexed":false,"internalType":"uint32"},{"name":"maturity","type":"uint32","indexed":true,"internalType":"uint32"},{"name":"gamma","type":"uint32","indexed":true,"internalType":"uint32"},{"name":"delQuote","type":"uint256","indexed":false,"internalType":"uint256"},{"name":"delBase","type":"uint256","indexed":false,"internalType":"uint256"},{"name":"delLiquidity","type":"uint256","indexed":false,"internalType":"uint256"}],"anonymous":false},{"type":"event","name":"Deposit","inputs":[{"name":"from","type":"address","indexed":true,"internalType":"address"},{"name":"recipient","type":"address","indexed":true,"internalType":"address"},{"name":"delQuote","type":"uint256","indexed":false,"internalType":"uint256"},{"name":"delBase","type":"uint256","indexed":false,"internalType":"uint256"}],"anonymous":false},{"type":"event","name":"Remove","inputs":[{"name":"from","type":"address","indexed":true,"internalType":"address"},{"name":"poolId","type":"bytes32","indexed":true,"internalType":"bytes32"},{"name":"delQuote","type":"uint256","indexed":false,"internalType":"uint256"},{"name":"delBase","type":"uint256","indexed":false,"internalType":"uint256"},{"name":"delLiquidity","type":"uint256","indexed":false,"internalType":"uint256"}],"anonymous":false},{"type":"event","name":"Swap","inputs":[{"name":"from","type":"address","indexed":true,"internalType":"address"},{"name":"recipient","type":"address","indexed":true,"internalType":"address"},{"name":"poolId","type":"bytes32","indexed":true,"internalType":"bytes32"},{"name":"quoteForBase","type":"bool","indexed":false,"internalType":"bool"},{"name":"deltaIn","type":"uint256","indexed":false,"internalType":"uint256"},{"name":"deltaOut","type":"uint256","indexed":false,"internalType":"uint256"}],"anonymous":false},{"type":"event","name":"UpdateLastTimestamp","inputs":[{"name":"poolId","type":"bytes32","indexed":true,"internalType":"bytes32"}],"anonymous":false},{"type":"event","name":"Withdraw","inputs":[{"name":"from","type":"address","indexed":true,"internalType":"address"},{"name":"recipient","type":"address","indexed":true,"internalType":"address"},{"name":"delQuote","type":"uint256","indexed":false,"internalType":"uint256"},{"name":"delBase","type":"uint256","indexed":false,"internalType":"uint256"}],"anonymous":false},{"type":"error","name":"BalanceError","inputs":[]},{"type":"error","name":"CalibrationError","inputs":[{"name":"delquote","type":"uint256","internalType":"uint256"},{"name":"delbase","type":"uint256","internalType":"uint256"}]},{"type":"error","name":"DeltaInError","inputs":[]},{"type":"error","name":"DeltaOutError","inputs":[]},{"type":"error","name":"GammaError","inputs":[{"name":"value","type":"uint256","internalType":"uint256"}]},{"type":"error","name":"InvariantError","inputs":[{"name":"invariant","type":"int128","internalType":"int128"},{"name":"nextInvariant","type":"int128","internalType":"int128"}]},{"type":"error","name":"InverseOutOfBounds","inputs":[{"name":"value","type":"int128","internalType":"int128"}]},{"type":"error","name":"LockedError","inputs":[]},{"type":"error","name":"MinLiquidityError","inputs":[{"name":"value","type":"uint256","internalType":"uint256"}]},{"type":"error","name":"PoolDuplicateError","inputs":[]},{"type":"error","name":"PoolExpiredError","inputs":[]},{"type":"error","name":"SigmaError","inputs":[{"name":"value","type":"uint256","internalType":"uint256"}]},{"type":"error","name":"StrikeError","inputs":[{"name":"value","type":"uint256","internalType":"uint256"}]},{"type":"error","name":"UninitializedError","inputs":[]},{"type":"error","name":"ZeroDeltasError","inputs":[]},{"type":"error","name":"ZeroLiquidityError","inputs":[]},{"type":"error","name":"baseBalanceError","inputs":[{"name":"expected","type":"uint256","internalType":"uint256"},{"name":"actual","type":"uint256","internalType":"uint256"}]},{"type":"error","name":"quoteBalanceError","inputs":[{"name":"expected","type":"uint256","internalType":"uint256"},{"name":"actual","type":"uint256","internalType":"uint256"}]},{"type":"error","name":"quotePerLpError","inputs":[{"name":"value","type":"uint256","internalType":"uint256"}]}],"bytecode":{"object":"0x610140604052600160005560016005553480156200001c57600080fd5b50336001600160a01b0316634e9b75b66040518163ffffffff1660e01b815260040160c060405180830381865afa1580156200005c573d6000803e3d6000fd5b505050506040513d601f19601f82011682018060405250810190620000829190620000c8565b60805260c05260a0526001600160a01b0390811661012052908116610100521660e0526200012e565b80516001600160a01b0381168114620000c357600080fd5b919050565b60008060008060008060c08789031215620000e257600080fd5b620000ed87620000ab565b9550620000fd60208801620000ab565b94506200010d60408801620000ab565b9350606087015192506080870151915060a087015190509295509295509295565b60805160a05160c05160e05161010051610120516143fb6200020a6000396000818161038601528181610b8f01528181611520015281816115b801528181611a21015261225e01526000818161044501528181610b55015281816113f60152818161148e01528181611b36015261214b0152600061050a0152600081816104160152818161075d01528181610cad015281816112de015261191c0152600081816105570152818161073c01528181610c8b015281816112bd01526118fb01526000818161027801528181610da2015261104c01526143fb6000f3fe608060405234801561001057600080fd5b50600436106101575760003560e01c80638fbc3ecd116100c3578063be00763a1161007c578063be00763a146104c4578063c0ed31ba146104f2578063c45a015514610505578063ca28fcd61461052c578063d2957b8f1461053f578063e3c0986a1461055257600080fd5b80638fbc3ecd14610438578063999b93af146104405780639e48ff5a146104675780639f8cfade1461047a578063aaf5eb68146104a2578063b5c5f672146104b157600080fd5b806323c5b9521161011557806323c5b9521461029a578063388204651461032d5780635001f3b514610381578063546fecae146103c05780636b35bb6b146103e6578063886a4eba1461041157600080fd5b8062bbf1e41461015c57806307e32f0a1461020c57806311f9908614610221578063140240db1461024957806316ada5471461025c57806321b77d6314610273575b600080fd5b6101bb61016a366004613e49565b6003602081905260009182526040909120805460018201546002830154938301546004909301546001600160801b0380841695600160801b948590048216959184169490930463ffffffff16929187565b604080516001600160801b0398891681529688166020880152949096169385019390935263ffffffff919091166060840152608083015260a082015260c081019190915260e0015b60405180910390f35b61021f61021a366004613e49565b610579565b005b61023461022f366004613e49565b610593565b60405163ffffffff9091168152602001610203565b61021f610257366004613e62565b6105d0565b61026560055481565b604051908152602001610203565b6102657f000000000000000000000000000000000000000000000000000000000000000081565b6102f06102a8366004613e49565b6001602052600090815260409020546001600160801b0381169063ffffffff600160801b8204811691600160a01b8104821691600160c01b8204811691600160e01b90041685565b604080516001600160801b03909616865263ffffffff9485166020870152928416928501929092528216606084015216608082015260a001610203565b61036161033b366004613ea5565b6002602052600090815260409020546001600160801b0380821691600160801b90041682565b604080516001600160801b03938416815292909116602083015201610203565b6103a87f000000000000000000000000000000000000000000000000000000000000000081565b6040516001600160a01b039091168152602001610203565b6103d36103ce366004613e49565b610628565b604051600f9190910b8152602001610203565b6102656103f4366004613ec0565b600460209081526000928352604080842090915290825290205481565b6102657f000000000000000000000000000000000000000000000000000000000000000081565b610265607881565b6103a87f000000000000000000000000000000000000000000000000000000000000000081565b61021f610475366004613f33565b6107ad565b61048d610488366004613f9b565b610928565b60408051928352602083019190915201610203565b610265670de0b6b3a764000081565b61021f6104bf366004613fbd565b610ae3565b6104d76104d2366004614004565b610c06565b60408051938452602084019290925290820152606001610203565b61021f610500366004613f9b565b6111f6565b6103a87f000000000000000000000000000000000000000000000000000000000000000081565b61021f61053a3660046140bc565b61163e565b61026561054d366004614168565b611c86565b6102657f000000000000000000000000000000000000000000000000000000000000000081565b806005600082825461058b9190614202565b909155505050565b600080546001146105b757604051635cd4e48360e01b815260040160405180910390fd5b60026000556105c582611f11565b600160005592915050565b60008381526003602052604090206105e783611fc0565b81546001600160801b0319166001600160801b039190911617815561060b82611fc0565b81546001600160801b03918216600160801b029116179055505050565b6000818152600160209081526040808320815160a08101835290546001600160801b038116825263ffffffff600160801b8204811694830194909452600160a01b81048416928201839052600160c01b8104841660608301819052600160e01b90910490931660808201529183916106a09190614215565b6000858152600360208181526040808420815160e08101835281546001600160801b038082168352600160801b9182900481169583019590955260018301549485169382019390935263ffffffff9290930482166060840152600281015460808401529283015460a083015260049092015460c0820152929350909182916107339190670de0b6b3a764000090611fda16565b915091506107a37f00000000000000000000000000000000000000000000000000000000000000007f0000000000000000000000000000000000000000000000000000000000000000848488600001516001600160801b0316896020015163ffffffff168963ffffffff16612039565b9695505050505050565b6000546001146107d057604051635cd4e48360e01b815260040160405180910390fd5b6002600055831580156107e1575082155b156107ff576040516381552f0360e01b815260040160405180910390fd5b6001600160a01b0385166000908152600260205260409020610822908585612087565b600080851561083657610833612131565b91505b841561084757610844612244565b90505b60405163c536e60560e01b8152339063c536e60590610870908990899089908990600401614262565b600060405180830381600087803b15801561088a57600080fd5b505af115801561089e573d6000803e3d6000fd5b50505050856000146108bc576108bc6108b78784614202565b612290565b84156108d4576108d46108cf8683614202565b6122cb565b60408051878152602081018790526001600160a01b0389169133917fdcbc1c05240f31ff3ad067ef1ee35ce4997762752e3a095284754544f4c709d7910160405180910390a3505060016000555050505050565b60008060005460011461094e57604051635cd4e48360e01b815260040160405180910390fd5b600260009081558390036109755760405163e5664db760e01b815260040160405180910390fd5b600084815260036020526040812060018101549091600160801b90910463ffffffff1690036109b757604051631d2ad63f60e01b815260040160405180910390fd5b6040805160e08101825282546001600160801b038082168352600160801b918290048116602084015260018501549081169383019390935263ffffffff92048216606082015260028301546080820152600383015460a0820152600483015460c0820152610a27918690611fda16565b3360009081526004602090815260408083208a8452909152812080549396509194508692610a56908490614282565b90915550610a759050838386610a6b60055490565b8593929190612302565b336000908152600260205260409020610a8f908484612087565b6040805184815260208101849052908101859052859033907f59c6598fc34aefe62579a03667748ef83b4682874f311affb26b318095359b0e9060600160405180910390a350600160005590939092509050565b600054600114610b0657604051635cd4e48360e01b815260040160405180910390fd5b600260005581158015610b17575080155b15610b35576040516381552f0360e01b815260040160405180910390fd5b610b41600283836123f4565b508115610b7c57610b7c6001600160a01b037f00000000000000000000000000000000000000000000000000000000000000001684846124af565b8015610bb657610bb66001600160a01b037f00000000000000000000000000000000000000000000000000000000000000001684836124af565b60408051838152602081018390526001600160a01b0385169133917ff341246adaac6f497bc2a656f546ab9e182111d630394f0c57c710a59a2cb567910160405180910390a35050600160005550565b60008060008054600114610c2d57604051635cd4e48360e01b815260040160405180910390fd5b60026000556040516bffffffffffffffffffffffff193060601b1660208201526001600160801b031960808d901b1660348201526001600160e01b031960e08c811b821660448401528b811b821660488401528a901b16604c8201527f0000000000000000000000000000000000000000000000000000000000000000907f00000000000000000000000000000000000000000000000000000000000000009060500160408051808303601f19018152918152815160209283012060008181526001909352912054909550600160c01b900463ffffffff1615610d2357604051633651818b60e21b815260040160405180910390fd5b629896808c63ffffffff161180610d40575060018c63ffffffff16105b15610d6b576040516387a2c00160e01b815263ffffffff8d1660048201526024015b60405180910390fd5b8c6001600160801b0316600003610da05760405163b3f4bc5560e01b81526001600160801b038e166004820152602401610d62565b7f00000000000000000000000000000000000000000000000000000000000000008811610de35760405163325951a560e01b815260048101899052602401610d62565b610df582670de0b6b3a76400006142ab565b891180610e00575088155b15610e2157604051636f727c3f60e01b8152600481018a9052602401610d62565b6127108a63ffffffff161180610e3e57506123288a63ffffffff16105b15610e6457604051637ed91fa560e11b815263ffffffff8b166004820152602401610d62565b60006040518060a001604052808f6001600160801b031681526020018e63ffffffff1681526020018d63ffffffff168152602001610ea160055490565b63ffffffff1681526020018c63ffffffff168152509050806040015163ffffffff16816060015163ffffffff161115610eed5760405163536e15e160e01b815260040160405180910390fd5b600081606001518260400151610f039190614215565b9050610f32600085858e86600001516001600160801b0316876020015163ffffffff168763ffffffff166125ba565b9450670de0b6b3a7640000610f478b8d6142cd565b610f5191906142ab565b9550670de0b6b3a7640000610f668b876142cd565b610f7091906142ab565b9450851580610f7d575084155b15610fa55760405163492d6d1760e01b81526004810187905260248101869052604401610d62565b6000878152600160209081526040808320855181549387015192870151606088015160808901516001600160801b039093166001600160a01b031990961695909517600160801b63ffffffff958616021767ffffffffffffffff60a01b1916600160a01b9185169190910263ffffffff60c01b191617600160c01b94841694909402939093176001600160e01b0316600160e01b92909316919091029190911790556110717f00000000000000000000000000000000000000000000000000000000000000008c614282565b3360009081526004602090815260408083208c84529091528120805492935083929091906110a0908490614202565b9091555050606083015160008981526003602052604090206110c791899089908f90612690565b6000806110d2612131565b6110da612244565b91509150336001600160a01b031663c171d27e8a8a8f8f6040518563ffffffff1660e01b81526004016111109493929190614262565b600060405180830381600087803b15801561112a57600080fd5b505af115801561113e573d6000803e3d6000fd5b5050505061115189836108b79190614202565b61115e6108cf8983614202565b60808086015160408088015188516020808b015184516001600160801b03909316835263ffffffff908116918301919091529281018e9052606081018d90529384018790529181169291169033907ff38f2bc2b712352b1d4a9ea95291a1c688835ac9f70a7a9d0aec57712c8b19129060a00160405180910390a4505050505050506001600081905550985098509895505050505050565b600082815260036020908152604080832060018352818420825160a08101845290546001600160801b03808216835263ffffffff600160801b808404821697850197909752600160a01b8304811695840195909552600160c01b820485166060840152600160e01b90910490931660808201528154919490938284169392049091169061128287610628565b905061128d86611fc0565b8560000160006101000a8154816001600160801b0302191690836001600160801b031602179055506000611336827f00000000000000000000000000000000000000000000000000000000000000007f00000000000000000000000000000000000000000000000000000000000000008a89600001516001600160801b03168a6020015163ffffffff168b606001518c6040015161132b9190614215565b63ffffffff166125ba565b905061134181611fc0565b86546001600160801b03918216600160801b908102918316828117808b5592841617929104166000868311611377576000611381565b6113818784614282565b9050600087841161139b576113968489614282565b61139e565b60005b905060008784116113b05760006113ba565b6113ba8885614282565b905060008885116113d4576113cf858a614282565b6113d7565b60005b60405163a9059cbb60e01b8152336004820152602481018590529091507f00000000000000000000000000000000000000000000000000000000000000006001600160a01b03169063a9059cbb906044016020604051808303816000875af1158015611447573d6000803e3d6000fd5b505050506040513d601f19601f8201168201806040525081019061146b91906142e4565b506040516323b872dd60e01b8152336004820152306024820152604481018590527f00000000000000000000000000000000000000000000000000000000000000006001600160a01b0316906323b872dd906064016020604051808303816000875af11580156114df573d6000803e3d6000fd5b505050506040513d601f19601f8201168201806040525081019061150391906142e4565b5060405163a9059cbb60e01b8152336004820152602481018290527f00000000000000000000000000000000000000000000000000000000000000006001600160a01b03169063a9059cbb906044016020604051808303816000875af1158015611571573d6000803e3d6000fd5b505050506040513d601f19601f8201168201806040525081019061159591906142e4565b506040516323b872dd60e01b8152336004820152306024820152604481018390527f00000000000000000000000000000000000000000000000000000000000000006001600160a01b0316906323b872dd906064016020604051808303816000875af1158015611609573d6000803e3d6000fd5b505050506040513d601f19601f8201168201806040525081019061162d91906142e4565b505050505050505050505050505050565b60005460011461166157604051635cd4e48360e01b815260040160405180910390fd5b6002600090815586900361168857604051631411378d60e11b815260040160405180910390fd5b846000036116a95760405163564b486560e01b815260040160405180910390fd5b60006040518061010001604052808b6001600160a01b031681526020018915158152602001861515815260200185151581526020016116e760055490565b63ffffffff1681526020018a815260200188815260200187815250905060006117138260a00151611f11565b9050611726607863ffffffff8316614202565b826080015163ffffffff1611156117505760405163536e15e160e01b815260040160405180910390fd5b600061175f8360a00151610628565b60a08085018051600090815260016020908152604080832081519586018252546001600160801b038116865263ffffffff600160801b8204811687850152600160a01b82048116878401908152600160c01b8304821660608901908152600160e01b9093049091166080880152945184526003909252822090519251949550929390916117eb91614215565b90506000612710846080015163ffffffff168860c0015161180c91906142cd565b61181691906142ab565b905060008088602001511561186257845461183b9084906001600160801b0316614202565b855490925061185b908f90600160801b90046001600160801b0316614282565b905061189b565b8454611878908f906001600160801b0316614282565b8554909250611898908490600160801b90046001600160801b0316614202565b90505b60018501546001600160801b03166118bb670de0b6b3a7640000846142cd565b6118c591906142ab565b60018601549092506001600160801b03166118e8670de0b6b3a7640000836142cd565b6118f291906142ab565b905060006119627f00000000000000000000000000000000000000000000000000000000000000007f000000000000000000000000000000000000000000000000000000000000000085858b600001516001600160801b03168c6020015163ffffffff168b63ffffffff16612039565b905080600f0b88600f0b131561199957604051630cd4424b60e41b8152600f89810b600483015282900b6024820152604401610d62565b6119c28a602001518b60c001518c60e001518d608001518a61275790949392919063ffffffff16565b50505050505050826020015115611ae957826060015115611a0c5760e083015183516001600160a01b03166000908152600260205260408120611a0792909190612087565b611a47565b825160e0840151611a47916001600160a01b037f000000000000000000000000000000000000000000000000000000000000000016916124af565b826040015115611a6a5760c0830151611a649060029060006123f4565b50611bfc565b6000611a74612131565b60c085015160405163491dc51560e11b8152919250339163923b8a2a91611aa4916000908b908b90600401614262565b600060405180830381600087803b158015611abe57600080fd5b505af1158015611ad2573d6000803e3d6000fd5b50505050611a648460c00151826108b79190614202565b826060015115611b215760e083015183516001600160a01b03166000908152600260205260408120611b1c929091612087565b611b5c565b825160e0840151611b5c916001600160a01b037f000000000000000000000000000000000000000000000000000000000000000016916124af565b826040015115611b7a5760c0830151611a64906002906000906123f4565b6000611b84612244565b60c085015160405163491dc51560e11b8152919250339163923b8a2a91611bb591600091908b908b90600401614262565b600060405180830381600087803b158015611bcf57600080fd5b505af1158015611be3573d6000803e3d6000fd5b50505050611bfa8460c00151826108cf9190614202565b505b8260a0015183600001516001600160a01b0316336001600160a01b03167fe42b42fe878e256d1efbfb2ba292aadeac0228bbaa31f4ef8537522bdfa3ea1986602001518760c001518860e00151604051611c6b9392919092151583526020830191909152604082015260600190565b60405180910390a45050600160005550505050505050505050565b60008054600114611caa57604051635cd4e48360e01b815260040160405180910390fd5b6002600055851580611cba575084155b15611cd8576040516381552f0360e01b815260040160405180910390fd5b600088815260036020526040812060018101549091600160801b90910463ffffffff169003611d1a57604051631d2ad63f60e01b815260040160405180910390fd5b6000611d2560055490565b825460018401549192506000916001600160801b0391821691611d4991168b6142cd565b611d5391906142ab565b835460018501549192506000916001600160801b03600160801b909204821691611d7e91168b6142cd565b611d8891906142ab565b9050808210611d975780611d99565b815b945084600003611dbc5760405163e5664db760e01b815260040160405180910390fd5b6001600160a01b038b1660009081526004602090815260408083208f845290915281208054879290611def908490614202565b90915550611e029050848b8b8887612690565b8715611e1a57611e1460028b8b6123f4565b50611eac565b600080611e25612131565b611e2d612244565b6040516302a3517f60e31b81529193509150339063151a8bf890611e5b908f908f908e908e90600401614262565b600060405180830381600087803b158015611e7557600080fd5b505af1158015611e89573d6000803e3d6000fd5b50505050611e9c8c836108b79190614202565b611ea96108cf8c83614202565b50505b604080518b8152602081018b90529081018690528c906001600160a01b038d169033907f86e4803447f73017bf832b0ac69cb7afa3333a5fa823ec42a9f6cf8d17b50ecc9060600160405180910390a450506001600055509098975050505050505050565b60008181526001602052604081208054600160c01b900463ffffffff168203611f4d57604051631d2ad63f60e01b815260040160405180910390fd5b600554815490925063ffffffff600160a01b9091048116908316811015611f72578092505b815463ffffffff60c01b1916600160c01b63ffffffff85160217825560405184907fd69bdb2831892ad6046f30af0f12362aef46cce34d58ed7ad9b3ef8c44b1b46690600090a25050919050565b60006001600160801b03821115611fd657600080fd5b5090565b6040820151825160009182916001600160801b03918216918291611fff9116866142cd565b61200991906142ab565b92508085602001516001600160801b03168561202591906142cd565b61202f91906142ab565b9150509250929050565b60008061204c60008a8a8a8989896125ba565b9050600061205a828a612876565b90506000612068888b612876565b9050612078600f82900b8361289f565b9b9a5050505050505050505050565b81156120d65761209682611fc0565b835484906000906120b19084906001600160801b0316614301565b92506101000a8154816001600160801b0302191690836001600160801b031602179055505b801561212c576120e581611fc0565b83548490601090612107908490600160801b90046001600160801b0316614301565b92506101000a8154816001600160801b0302191690836001600160801b031602179055505b505050565b604051306024820152600090819081906001600160a01b037f000000000000000000000000000000000000000000000000000000000000000016906370a0823160e01b906044015b60408051601f198184030181529181526020820180516001600160e01b03166001600160e01b03199094169390931790925290516121b79190614321565b600060405180830381855afa9150503d80600081146121f2576040519150601f19603f3d011682016040523d82523d6000602084013e6121f7565b606091505b509150915081158061220b57508051602014155b156122295760405163056a754560e51b815260040160405180910390fd5b8080602001905181019061223d9190614350565b9250505090565b604051306024820152600090819081906001600160a01b037f000000000000000000000000000000000000000000000000000000000000000016906370a0823160e01b90604401612179565b600061229a612131565b9050818110156122c757604051636c54343560e11b81526004810183905260248101829052604401610d62565b5050565b60006122d5612244565b9050818110156122c757604051631b1ed24960e11b81526004810183905260248101829052604401610d62565b61230c85826128dc565b61231584611fc0565b855486906000906123309084906001600160801b0316614369565b92506101000a8154816001600160801b0302191690836001600160801b0316021790555061235d83611fc0565b8554869060109061237f908490600160801b90046001600160801b0316614369565b92506101000a8154816001600160801b0302191690836001600160801b031602179055506123ac82611fc0565b6001860180546000906123c99084906001600160801b0316614369565b92506101000a8154816001600160801b0302191690836001600160801b031602179055505050505050565b33600090815260208490526040902082156124525761241283611fc0565b8154829060009061242d9084906001600160801b0316614369565b92506101000a8154816001600160801b0302191690836001600160801b031602179055505b81156124a85761246182611fc0565b81548290601090612483908490600160801b90046001600160801b0316614369565b92506101000a8154816001600160801b0302191690836001600160801b031602179055505b9392505050565b604080516001600160a01b038481166024830152604480830185905283518084039091018152606490920183526020820180516001600160e01b031663a9059cbb60e01b179052915160009283929087169161250b9190614321565b6000604051808303816000865af19150503d8060008114612548576040519150601f19603f3d011682016040523d82523d6000602084013e61254d565b606091505b509150915081801561257757508051158061257757508080602001905181019061257791906142e4565b6125b35760405162461bcd60e51b815260206004820152600d60248201526c151c985b9cd9995c8819985a5b609a1b6044820152606401610d62565b5050505050565b6000806125c78588612876565b905060006125d5878a612876565b905060006125e7600160401b8361289f565b905084156126635760006125fb8787612971565b9050600061260b83600f0b6129ae565b9050600061261d600f83900b8461289f565b905060006126488f61263f61263485600f0b612a68565b600f8b900b90612b05565b600f0b90612b3b565b9050612658600f82900b8e612b6e565b975050505050612682565b612078896126798d61263f600f88900b86612b05565b600f0b90612b6e565b505050979650505050505050565b61269a85826128dc565b6126a384611fc0565b855486906000906126be9084906001600160801b0316614301565b92506101000a8154816001600160801b0302191690836001600160801b031602179055506126eb83611fc0565b8554869060109061270d908490600160801b90046001600160801b0316614301565b92506101000a8154816001600160801b0302191690836001600160801b0316021790555061273a82611fc0565b6001860180546000906123c99084906001600160801b0316614301565b61276185826128dc565b83156128035761277083611fc0565b8554869060009061278b9084906001600160801b0316614301565b92506101000a8154816001600160801b0302191690836001600160801b031602179055506127b882611fc0565b855486906010906127da908490600160801b90046001600160801b0316614369565b92506101000a8154816001600160801b0302191690836001600160801b031602179055506125b3565b61280c82611fc0565b855486906000906128279084906001600160801b0316614369565b92506101000a8154816001600160801b0302191690836001600160801b0316021790555061285483611fc0565b855486906010906123c9908490600160801b90046001600160801b0316614301565b60008061288b83670de0b6b3a76400006142ab565b90506128978482612b93565b949350505050565b6000600f82810b9084900b0360016001607f1b031981128015906128ca575060016001607f1b038113155b6128d357600080fd5b90505b92915050565b60018201546000906128fb90600160801b900463ffffffff1683614215565b905063ffffffff81161561212c57825460028401805463ffffffff9384166001600160801b038085168202909201909255600386018054600160801b94859004831684020190556001860180546004909701805492881690930290910190915563ffffffff60801b199094169290911602179055565b60008061298861298084612bcd565b600f0b612bdd565b9050600061299585612bff565b90506129a5600f82900b83612b05565b95945050505050565b6000600160401b600f83900b1215806129cb5750600082600f0b13155b156129ef57604051630e59931d60e31b8152600f83900b6004820152602401610d62565b67f999999999999999600f83900b13801590612a175750670666666666666666600f83900b12155b15612a25576128d682612c0d565b670666666666666666600f83900b1215612a42576128d682612cb4565b6000612a5a612a55600160401b8561289f565b612cb4565b6124a890614389565b919050565b600080612a82600f84900b68016a09e667f3bcc908612d7e565b90506000612ac0612ab5612aaa612a9b85600f0b612dd5565b6753dd02a4f5ee2e4690612b05565b600160401b90612b3b565b600160401b90612d7e565b90506000612ace8383612e03565b9050600083600f0b1215612aeb57612ae881600f0b612ed3565b90505b60006107a3612afe600160401b84612b3b565b6001603f1b905b6000600f83810b9083900b0260401d60016001607f1b031981128015906128ca575060016001607f1b038113156128d357600080fd5b6000600f83810b9083900b0160016001607f1b031981128015906128ca575060016001607f1b038113156128d357600080fd5b600080612b8383670de0b6b3a76400006142ab565b9050612897600f85900b82612ee9565b600081600003612ba257600080fd5b6000612bae8484612f54565b905060016001607f1b036001600160801b03821611156128d357600080fd5b60006128d6826301e18558612b93565b60008082600f0b1215612bef57600080fd5b6128d6604083600f0b901b6130b9565b60006128d682612710612b93565b600080612c22600f84900b6001603f1b61289f565b90506000612c34600f83900b83612b05565b905060006129a5612ca9612c99612c716721d0a04b0e9b94f161263f612c6367c2bf5d74c724e53e1989612b05565b61263f600f8a900b8a612b05565b612c906726a8f3c1f21b336e61263f6787c57e5da70d3c8f1989612b05565b600f0b90612d7e565b68015d71f5721242c78790612b3b565b600f85900b90612b05565b600080612cd6612980612cce612ab5600f87900b87612b05565b600f0b61322a565b90506000612cfa6707a1e70f720eca4361263f6801000bf627fa1884101985612b05565b90506000612d1e6810aeac93f55267a9a561263f68041ed34a256149023686612b05565b90506000612d5368072c7d592d021fb1db61263f612d456808c27b4617f5f800ea88612b05565b61263f600f89900b89612b05565b90506000612d73612d68600f85900b84612d7e565b600f86900b90612b3b565b979650505050505050565b600081600f0b600003612d9057600080fd5b600082600f0b604085600f0b901b81612dab57612dab614295565b05905060016001607f1b031981128015906128ca575060016001607f1b038113156128d357600080fd5b60006001607f1b600f83900b01612deb57600080fd5b600082600f0b12612dfc57816128d6565b5060000390565b600080612e55612ca9612e45612e3a612e29600f88900b68010fb844255a12d72e612b05565b68017401c57014c38f131990612b3b565b600f87900b90612b05565b68016a09e667f3bcc90890612b3b565b90506000612e81612e72612e3a6748d4c730f051a5fd1985612b3b565b67413c831bb169f87490612b3b565b905060006107a3612ec8612ebd612eb2612eaa612ea2600f8c900b8c612b05565b600f0b612ed3565b600f0b613264565b600f86900b90612b05565b600f88900b90612b05565b600160401b9061289f565b60006001607f1b600f83900b01612dfc57600080fd5b600081600003612efb575060006128d6565b600083600f0b1215612f0c57600080fd5b600f83900b6001600160801b038316810260401c90608084901c026001600160c01b03811115612f3b57600080fd5b60401b8119811115612f4c57600080fd5b019392505050565b600081600003612f6357600080fd5b60006001600160c01b038411612f8e5782604085901b81612f8657612f86614295565b0490506130a5565b60c084811c6401000000008110612fa7576020918201911c5b620100008110612fb9576010918201911c5b6101008110612fca576008918201911c5b60108110612fda576004918201911c5b60048110612fea576002918201911c5b60028110612ff9576001820191505b60bf820360018603901c6001018260ff0387901b8161301a5761301a614295565b0492506001600160801b0383111561303157600080fd5b608085901c83026001600160801b038616840260c088901c604089901b8281101561305d576001820391505b608084901b92900382811015613074576001820391505b829003608084901c821461308a5761308a6143af565b88818161309957613099614295565b04870196505050505050505b6001600160801b038111156128d357600080fd5b6000816000036130cb57506000919050565b816001600160801b82106130e45760809190911c9060401b5b600160401b82106130fa5760409190911c9060201b5b64010000000082106131115760209190911c9060101b5b6201000082106131265760109190911c9060081b5b610100821061313a5760089190911c9060041b5b6010821061314d5760049190911c9060021b5b600882106131595760011b5b600181858161316a5761316a614295565b048201901c9050600181858161318257613182614295565b048201901c9050600181858161319a5761319a614295565b048201901c905060018185816131b2576131b2614295565b048201901c905060018185816131ca576131ca614295565b048201901c905060018185816131e2576131e2614295565b048201901c905060018185816131fa576131fa614295565b048201901c9050600081858161321257613212614295565b04905080821061322257806129a5565b509392505050565b60008082600f0b1361323b57600080fd5b6080613246836132b9565b600f0b6fb17217f7d1cf79abc9e3b39803f2f6af02901c9050919050565b6000600160461b82600f0b1261327957600080fd5b683fffffffffffffffff1982600f0b121561329657506000919050565b6128d6608083600f0b700171547652b82fe1777d0ffda0d23a7d1202901d613394565b60008082600f0b136132ca57600080fd5b6000600f83900b600160401b81126132e4576040918201911d5b64010000000081126132f8576020918201911d5b62010000811261330a576010918201911d5b610100811261331b576008918201911d5b6010811261332b576004918201911d5b6004811261333b576002918201911d5b6002811261334a576001820191505b603f19820160401b600f85900b607f8490031b6001603f1b5b60008113156133895790800260ff81901c8281029390930192607f011c9060011d613363565b509095945050505050565b6000600160461b82600f0b126133a957600080fd5b683fffffffffffffffff1982600f0b12156133c657506000919050565b6001607f1b60006001603f1b8416600f0b13156133f45770016a09e667f3bcc908b2fb1366ea957d3e0260801c5b60008367400000000000000016600f0b1315613421577001306fe0a31b7152de8d5a46305c85edec0260801c5b60008367200000000000000016600f0b131561344e577001172b83c7d517adcdf7c8c50eb14a791f0260801c5b60008367100000000000000016600f0b131561347b5770010b5586cf9890f6298b92b71842a983630260801c5b60008367080000000000000016600f0b13156134a8577001059b0d31585743ae7c548eb68ca417fd0260801c5b60008367040000000000000016600f0b13156134d557700102c9a3e778060ee6f7caca4f7a29bde80260801c5b60008367020000000000000016600f0b13156135025770010163da9fb33356d84a66ae336dcdfa3f0260801c5b60008367010000000000000016600f0b131561352f57700100b1afa5abcbed6129ab13ec11dc95430260801c5b600083668000000000000016600f0b131561355b5770010058c86da1c09ea1ff19d294cf2f679b0260801c5b600083664000000000000016600f0b1315613587577001002c605e2e8cec506d21bfc89a23a00f0260801c5b600083662000000000000016600f0b13156135b357700100162f3904051fa128bca9c55c31e5df0260801c5b600083661000000000000016600f0b13156135df577001000b175effdc76ba38e31671ca9397250260801c5b600083660800000000000016600f0b131561360b57700100058ba01fb9f96d6cacd4b180917c3d0260801c5b600083660400000000000016600f0b13156136375770010002c5cc37da9491d0985c348c68e7b30260801c5b600083660200000000000016600f0b1315613663577001000162e525ee054754457d59952920260260801c5b600083660100000000000016600f0b131561368f5770010000b17255775c040618bf4a4ade83fc0260801c5b6000836580000000000016600f0b13156136ba577001000058b91b5bc9ae2eed81e9b7d4cfab0260801c5b6000836540000000000016600f0b13156136e557700100002c5c89d5ec6ca4d7c8acc017b7c90260801c5b6000836520000000000016600f0b13156137105770010000162e43f4f831060e02d839a9d16d0260801c5b6000836510000000000016600f0b131561373b57700100000b1721bcfc99d9f890ea069117630260801c5b6000836508000000000016600f0b13156137665770010000058b90cf1e6d97f9ca14dbcc16280260801c5b6000836504000000000016600f0b1315613791577001000002c5c863b73f016468f6bac5ca2b0260801c5b6000836502000000000016600f0b13156137bc57700100000162e430e5a18f6119e3c02282a50260801c5b6000836501000000000016600f0b13156137e7577001000000b1721835514b86e6d96efd1bfe0260801c5b60008364800000000016600f0b131561381157700100000058b90c0b48c6be5df846c5b2ef0260801c5b60008364400000000016600f0b131561383b5770010000002c5c8601cc6b9e94213c72737a0260801c5b60008364200000000016600f0b1315613865577001000000162e42fff037df38aa2b219f060260801c5b60008364100000000016600f0b131561388f5770010000000b17217fba9c739aa5819f44f90260801c5b60008364080000000016600f0b13156138b9577001000000058b90bfcdee5acd3c1cedc8230260801c5b60008364040000000016600f0b13156138e357700100000002c5c85fe31f35a6a30da1be500260801c5b60008364020000000016600f0b131561390d5770010000000162e42ff0999ce3541b9fffcf0260801c5b60008364010000000016600f0b131561393757700100000000b17217f80f4ef5aadda455540260801c5b600083638000000016600f0b13156139605770010000000058b90bfbf8479bd5a81b51ad0260801c5b600083634000000016600f0b1315613989577001000000002c5c85fdf84bd62ae30a74cc0260801c5b600083632000000016600f0b13156139b257700100000000162e42fefb2fed257559bdaa0260801c5b600083631000000016600f0b13156139db577001000000000b17217f7d5a7716bba4a9ae0260801c5b600083630800000016600f0b1315613a0457700100000000058b90bfbe9ddbac5e109cce0260801c5b600083630400000016600f0b1315613a2d5770010000000002c5c85fdf4b15de6f17eb0d0260801c5b600083630200000016600f0b1315613a56577001000000000162e42fefa494f1478fde050260801c5b600083630100000016600f0b1315613a7f5770010000000000b17217f7d20cf927c8e94c0260801c5b6000836280000016600f0b1315613aa7577001000000000058b90bfbe8f71cb4e4b33d0260801c5b6000836240000016600f0b1315613acf57700100000000002c5c85fdf477b662b269450260801c5b6000836220000016600f0b1315613af75770010000000000162e42fefa3ae53369388c0260801c5b6000836210000016600f0b1315613b1f57700100000000000b17217f7d1d351a389d400260801c5b6000836208000016600f0b1315613b475770010000000000058b90bfbe8e8b2d3d4ede0260801c5b6000836204000016600f0b1315613b6f577001000000000002c5c85fdf4741bea6e77e0260801c5b6000836202000016600f0b1315613b9757700100000000000162e42fefa39fe95583c20260801c5b6000836201000016600f0b1315613bbf577001000000000000b17217f7d1cfb72b45e10260801c5b60008361800016600f0b1315613be657700100000000000058b90bfbe8e7cc35c3f00260801c5b60008361400016600f0b1315613c0d5770010000000000002c5c85fdf473e242ea380260801c5b60008361200016600f0b1315613c34577001000000000000162e42fefa39f02b772c0260801c5b60008361100016600f0b1315613c5b5770010000000000000b17217f7d1cf7d83c1a0260801c5b60008361080016600f0b1315613c82577001000000000000058b90bfbe8e7bdcbe2e0260801c5b60008361040016600f0b1315613ca957700100000000000002c5c85fdf473dea871f0260801c5b60008361020016600f0b1315613cd05770010000000000000162e42fefa39ef44d910260801c5b60008361010016600f0b1315613cf757700100000000000000b17217f7d1cf79e9490260801c5b600083608016600f0b1315613d1d5770010000000000000058b90bfbe8e7bce5440260801c5b600083604016600f0b1315613d43577001000000000000002c5c85fdf473de6eca0260801c5b600083602016600f0b1315613d6957700100000000000000162e42fefa39ef366f0260801c5b600083601016600f0b1315613d8f577001000000000000000b17217f7d1cf79afa0260801c5b600083600816600f0b1315613db557700100000000000000058b90bfbe8e7bcd6d0260801c5b600083600416600f0b1315613ddb5770010000000000000002c5c85fdf473de6b20260801c5b600083600216600f0b1315613e01577001000000000000000162e42fefa39ef3580260801c5b600083600116600f0b1315613e275770010000000000000000b17217f7d1cf79ab0260801c5b600f83810b60401d603f03900b1c60016001607f1b038111156128d657600080fd5b600060208284031215613e5b57600080fd5b5035919050565b600080600060608486031215613e7757600080fd5b505081359360208301359350604090920135919050565b80356001600160a01b0381168114612a6357600080fd5b600060208284031215613eb757600080fd5b6124a882613e8e565b60008060408385031215613ed357600080fd5b613edc83613e8e565b946020939093013593505050565b60008083601f840112613efc57600080fd5b50813567ffffffffffffffff811115613f1457600080fd5b602083019150836020828501011115613f2c57600080fd5b9250929050565b600080600080600060808688031215613f4b57600080fd5b613f5486613e8e565b94506020860135935060408601359250606086013567ffffffffffffffff811115613f7e57600080fd5b613f8a88828901613eea565b969995985093965092949392505050565b60008060408385031215613fae57600080fd5b50508035926020909101359150565b600080600060608486031215613fd257600080fd5b613fdb84613e8e565b95602085013595506040909401359392505050565b803563ffffffff81168114612a6357600080fd5b60008060008060008060008060e0898b03121561402057600080fd5b88356001600160801b038116811461403757600080fd5b975061404560208a01613ff0565b965061405360408a01613ff0565b955061406160608a01613ff0565b94506080890135935060a0890135925060c089013567ffffffffffffffff81111561408b57600080fd5b6140978b828c01613eea565b999c989b5096995094979396929594505050565b80151581146140b957600080fd5b50565b60008060008060008060008060006101008a8c0312156140db57600080fd5b6140e48a613e8e565b985060208a0135975060408a01356140fb816140ab565b965060608a0135955060808a0135945060a08a0135614119816140ab565b935060c08a0135614129816140ab565b925060e08a013567ffffffffffffffff81111561414557600080fd5b6141518c828d01613eea565b915080935050809150509295985092959850929598565b600080600080600080600060c0888a03121561418357600080fd5b8735965061419360208901613e8e565b9550604088013594506060880135935060808801356141b1816140ab565b925060a088013567ffffffffffffffff8111156141cd57600080fd5b6141d98a828b01613eea565b989b979a50959850939692959293505050565b634e487b7160e01b600052601160045260246000fd5b808201808211156128d6576128d66141ec565b63ffffffff828116828216039080821115614232576142326141ec565b5092915050565b81835281816020850137506000828201602090810191909152601f909101601f19169091010190565b8481528360208201526060604082015260006107a3606083018486614239565b818103818111156128d6576128d66141ec565b634e487b7160e01b600052601260045260246000fd5b6000826142c857634e487b7160e01b600052601260045260246000fd5b500490565b80820281158282048414176128d6576128d66141ec565b6000602082840312156142f657600080fd5b81516128d3816140ab565b6001600160801b03818116838216019080821115614232576142326141ec565b6000825160005b818110156143425760208186018101518583015201614328565b506000920191825250919050565b60006020828403121561436257600080fd5b5051919050565b6001600160801b03828116828216039080821115614232576142326141ec565b600081600f0b60016001607f1b031981036143a6576143a66141ec565b60000392915050565b634e487b7160e01b600052600160045260246000fdfea2646970667358221220e6aa4f6648fdf165e713d4d03c97cd8cc91cb2d7b99c1f357c255acac284eca364736f6c63430008140033","linkReferences":{}},"methodIdentifiers":{"BUFFER()":"8fbc3ecd","MIN_LIQUIDITY()":"21b77d63","PRECISION()":"aaf5eb68","advanceTime(uint256)":"07e32f0a","allocate(bytes32,address,uint256,uint256,bool,bytes)":"d2957b8f","base()":"5001f3b5","calibrations(bytes32)":"23c5b952","create(uint128,uint32,uint32,uint32,uint256,uint256,bytes)":"be00763a","deposit(address,uint256,uint256,bytes)":"9e48ff5a","factory()":"c45a0155","invariantOf(bytes32)":"546fecae","liquidity(address,bytes32)":"6b35bb6b","margins(address)":"38820465","quote()":"999b93af","remove(bytes32,uint256)":"9f8cfade","reserves(bytes32)":"00bbf1e4","scaleFactorBase()":"886a4eba","scaleFactorQuote()":"e3c0986a","setReserves(bytes32,uint256,uint256)":"140240db","swap(address,bytes32,bool,uint256,uint256,bool,bool,bytes)":"ca28fcd6","time()":"16ada547","updateLastTimestamp(bytes32)":"11f99086","updateReserves(bytes32,uint256)":"c0ed31ba","withdraw(address,uint256,uint256)":"b5c5f672"},"id":44}