{"abi":[{"type":"constructor","inputs":[{"name":"name_","type":"string","internalType":"string"},{"name":"symbol_","type":"string","internalType":"string"},{"name":"decimals_","type":"uint8","internalType":"uint8"}],"stateMutability":"nonpayable"},{"type":"function","name":"allowance","inputs":[{"name":"owner","type":"address","internalType":"address"},{"name":"spender","type":"address","internalType":"address"}],"outputs":[{"name":"","type":"uint256","internalType":"uint256"}],"stateMutability":"view"},{"type":"function","name":"approve","inputs":[{"name":"spender","type":"address","internalType":"address"},{"name":"amount","type":"uint256","internalType":"uint256"}],"outputs":[{"name":"","type":"bool","internalType":"bool"}],"stateMutability":"nonpayable"},{"type":"function","name":"balanceOf","inputs":[{"name":"account","type":"address","internalType":"address"}],"outputs":[{"name":"","type":"uint256","internalType":"uint256"}],"stateMutability":"view"},{"type":"function","name":"burn","inputs":[{"name":"to","type":"address","internalType":"address"},{"name":"wad","type":"uint256","internalType":"uint256"}],"outputs":[],"stateMutability":"nonpayable"},{"type":"function","name":"decimals","inputs":[],"outputs":[{"name":"","type":"uint8","internalType":"uint8"}],"stateMutability":"view"},{"type":"function","name":"decreaseAllowance","inputs":[{"name":"spender","type":"address","internalType":"address"},{"name":"subtractedValue","type":"uint256","internalType":"uint256"}],"outputs":[{"name":"","type":"bool","internalType":"bool"}],"stateMutability":"nonpayable"},{"type":"function","name":"increaseAllowance","inputs":[{"name":"spender","type":"address","internalType":"address"},{"name":"addedValue","type":"uint256","internalType":"uint256"}],"outputs":[{"name":"","type":"bool","internalType":"bool"}],"stateMutability":"nonpayable"},{"type":"function","name":"mint","inputs":[{"name":"to","type":"address","internalType":"address"},{"name":"wad","type":"uint256","internalType":"uint256"}],"outputs":[],"stateMutability":"nonpayable"},{"type":"function","name":"name","inputs":[],"outputs":[{"name":"","type":"string","internalType":"string"}],"stateMutability":"view"},{"type":"function","name":"setDecimals","inputs":[{"name":"decimals_","type":"uint8","internalType":"uint8"}],"outputs":[],"stateMutability":"nonpayable"},{"type":"function","name":"symbol","inputs":[],"outputs":[{"name":"","type":"string","internalType":"string"}],"stateMutability":"view"},{"type":"function","name":"totalSupply","inputs":[],"outputs":[{"name":"","type":"uint256","internalType":"uint256"}],"stateMutability":"view"},{"type":"function","name":"transfer","inputs":[{"name":"recipient","type":"address","internalType":"address"},{"name":"amount","type":"uint256","internalType":"uint256"}],"outputs":[{"name":"","type":"bool","internalType":"bool"}],"stateMutability":"nonpayable"},{"type":"function","name":"transferFrom","inputs":[{"name":"sender","type":"address","internalType":"address"},{"name":"recipient","type":"address","internalType":"address"},{"name":"amount","type":"uint256","internalType":"uint256"}],"outputs":[{"name":"","type":"bool","internalType":"bool"}],"stateMutability":"nonpayable"},{"type":"event","name":"Approval","inputs":[{"name":"owner","type":"address","indexed":true,"internalType":"address"},{"name":"spender","type":"address","indexed":true,"internalType":"address"},{"name":"value","type":"uint256","indexed":false,"internalType":"uint256"}],"anonymous":false},{"type":"event","name":"Transfer","inputs":[{"name":"from","type":"address","indexed":true,"internalType":"address"},{"name":"to","type":"address","indexed":true,"internalType":"address"},{"name":"value","type":"uint256","indexed":false,"internalType":"uint256"}],"anonymous":false}],"bytecode":{"object":"0x60806040523480156200001157600080fd5b5060405162000eef38038062000eef833981016040819052620000349162000134565b600362000042848262000248565b50600462000051838262000248565b506005805460ff191660ff9290921691909117905550620003149050565b634e487b7160e01b600052604160045260246000fd5b600082601f8301126200009757600080fd5b81516001600160401b0380821115620000b457620000b46200006f565b604051601f8301601f19908116603f01168101908282118183101715620000df57620000df6200006f565b81604052838152602092508683858801011115620000fc57600080fd5b600091505b8382101562000120578582018301518183018401529082019062000101565b600093810190920192909252949350505050565b6000806000606084860312156200014a57600080fd5b83516001600160401b03808211156200016257600080fd5b620001708783880162000085565b945060208601519150808211156200018757600080fd5b50620001968682870162000085565b925050604084015160ff81168114620001ae57600080fd5b809150509250925092565b600181811c90821680620001ce57607f821691505b602082108103620001ef57634e487b7160e01b600052602260045260246000fd5b50919050565b601f8211156200024357600081815260208120601f850160051c810160208610156200021e5750805b601f850160051c820191505b818110156200023f578281556001016200022a565b5050505b505050565b81516001600160401b038111156200026457620002646200006f565b6200027c81620002758454620001b9565b84620001f5565b602080601f831160018114620002b457600084156200029b5750858301515b600019600386901b1c1916600185901b1785556200023f565b600085815260208120601f198616915b82811015620002e557888601518255948401946001909101908401620002c4565b5085821015620003045787850151600019600388901b60f8161c191681555b5050505050600190811b01905550565b610bcb80620003246000396000f3fe608060405234801561001057600080fd5b50600436106100ea5760003560e01c806370a082311161008c5780639dc29fac116100665780639dc29fac146101f1578063a457c2d714610204578063a9059cbb14610217578063dd62ed3e1461022a57600080fd5b806370a082311461019c5780637a1395aa146101c557806395d89b41146101e957600080fd5b806323b872dd116100c857806323b872dd14610142578063313ce56714610155578063395093511461017457806340c10f191461018757600080fd5b806306fdde03146100ef578063095ea7b31461010d57806318160ddd14610130575b600080fd5b6100f7610263565b60405161010491906109d7565b60405180910390f35b61012061011b366004610a41565b6102f1565b6040519015158152602001610104565b6002545b604051908152602001610104565b610120610150366004610a6b565b610308565b6005546101629060ff1681565b60405160ff9091168152602001610104565b610120610182366004610a41565b6103b7565b61019a610195366004610a41565b6103f3565b005b6101346101aa366004610aa7565b6001600160a01b031660009081526020819052604090205490565b61019a6101d3366004610ac9565b6005805460ff191660ff92909216919091179055565b6100f7610401565b61019a6101ff366004610a41565b61040e565b610120610212366004610a41565b610418565b610120610225366004610a41565b6104b1565b610134610238366004610aec565b6001600160a01b03918216600090815260016020908152604080832093909416825291909152205490565b6003805461027090610b1f565b80601f016020809104026020016040519081016040528092919081815260200182805461029c90610b1f565b80156102e95780601f106102be576101008083540402835291602001916102e9565b820191906000526020600020905b8154815290600101906020018083116102cc57829003601f168201915b505050505081565b60006102fe3384846104be565b5060015b92915050565b60006103158484846105e3565b6001600160a01b03841660009081526001602090815260408083203384529091529020548281101561039f5760405162461bcd60e51b815260206004820152602860248201527f45524332303a207472616e7366657220616d6f756e74206578636565647320616044820152676c6c6f77616e636560c01b60648201526084015b60405180910390fd5b6103ac85338584036104be565b506001949350505050565b3360008181526001602090815260408083206001600160a01b038716845290915281205490916102fe9185906103ee908690610b6f565b6104be565b6103fd82826107b2565b5050565b6004805461027090610b1f565b6103fd8282610891565b3360009081526001602090815260408083206001600160a01b03861684529091528120548281101561049a5760405162461bcd60e51b815260206004820152602560248201527f45524332303a2064656372656173656420616c6c6f77616e63652062656c6f77604482015264207a65726f60d81b6064820152608401610396565b6104a733858584036104be565b5060019392505050565b60006102fe3384846105e3565b6001600160a01b0383166105205760405162461bcd60e51b8152602060048201526024808201527f45524332303a20617070726f76652066726f6d20746865207a65726f206164646044820152637265737360e01b6064820152608401610396565b6001600160a01b0382166105815760405162461bcd60e51b815260206004820152602260248201527f45524332303a20617070726f766520746f20746865207a65726f206164647265604482015261737360f01b6064820152608401610396565b6001600160a01b0383811660008181526001602090815260408083209487168084529482529182902085905590518481527f8c5be1e5ebec7d5bd14f71427d1e84f3dd0314c0f7b2291e5b200ac8c7c3b92591015b60405180910390a3505050565b6001600160a01b0383166106475760405162461bcd60e51b815260206004820152602560248201527f45524332303a207472616e736665722066726f6d20746865207a65726f206164604482015264647265737360d81b6064820152608401610396565b6001600160a01b0382166106a95760405162461bcd60e51b815260206004820152602360248201527f45524332303a207472616e7366657220746f20746865207a65726f206164647260448201526265737360e81b6064820152608401610396565b6001600160a01b038316600090815260208190526040902054818110156107215760405162461bcd60e51b815260206004820152602660248201527f45524332303a207472616e7366657220616d6f756e7420657863656564732062604482015265616c616e636560d01b6064820152608401610396565b6001600160a01b03808516600090815260208190526040808220858503905591851681529081208054849290610758908490610b6f565b92505081905550826001600160a01b0316846001600160a01b03167fddf252ad1be2c89b69c2b068fc378daa952ba7f163c4a11628f55a4df523b3ef846040516107a491815260200190565b60405180910390a350505050565b6001600160a01b0382166108085760405162461bcd60e51b815260206004820152601f60248201527f45524332303a206d696e7420746f20746865207a65726f2061646472657373006044820152606401610396565b806002600082825461081a9190610b6f565b90915550506001600160a01b03821660009081526020819052604081208054839290610847908490610b6f565b90915550506040518181526001600160a01b038316906000907fddf252ad1be2c89b69c2b068fc378daa952ba7f163c4a11628f55a4df523b3ef9060200160405180910390a35050565b6001600160a01b0382166108f15760405162461bcd60e51b815260206004820152602160248201527f45524332303a206275726e2066726f6d20746865207a65726f206164647265736044820152607360f81b6064820152608401610396565b6001600160a01b038216600090815260208190526040902054818110156109655760405162461bcd60e51b815260206004820152602260248201527f45524332303a206275726e20616d6f756e7420657863656564732062616c616e604482015261636560f01b6064820152608401610396565b6001600160a01b0383166000908152602081905260408120838303905560028054849290610994908490610b82565b90915550506040518281526000906001600160a01b038516907fddf252ad1be2c89b69c2b068fc378daa952ba7f163c4a11628f55a4df523b3ef906020016105d6565b600060208083528351808285015260005b81811015610a04578581018301518582016040015282016109e8565b506000604082860101526040601f19601f8301168501019250505092915050565b80356001600160a01b0381168114610a3c57600080fd5b919050565b60008060408385031215610a5457600080fd5b610a5d83610a25565b946020939093013593505050565b600080600060608486031215610a8057600080fd5b610a8984610a25565b9250610a9760208501610a25565b9150604084013590509250925092565b600060208284031215610ab957600080fd5b610ac282610a25565b9392505050565b600060208284031215610adb57600080fd5b813560ff81168114610ac257600080fd5b60008060408385031215610aff57600080fd5b610b0883610a25565b9150610b1660208401610a25565b90509250929050565b600181811c90821680610b3357607f821691505b602082108103610b5357634e487b7160e01b600052602260045260246000fd5b50919050565b634e487b7160e01b600052601160045260246000fd5b8082018082111561030257610302610b59565b8181038181111561030257610302610b5956fea26469706673582212208018b6aa9b2de8b16fcd71387a2635a87b628ff0d95fe5b978a70e8f45e3e2a664736f6c63430008140033","linkReferences":{}},"methodIdentifiers":{"allowance(address,address)":"dd62ed3e","approve(address,uint256)":"095ea7b3","balanceOf(address)":"70a08231","burn(address,uint256)":"9dc29fac","decimals()":"313ce567","decreaseAllowance(address,uint256)":"a457c2d7","increaseAllowance(address,uint256)":"39509351","mint(address,uint256)":"40c10f19","name()":"06fdde03","setDecimals(uint8)":"7a1395aa","symbol()":"95d89b41","totalSupply()":"18160ddd","transfer(address,uint256)":"a9059cbb","transferFrom(address,address,uint256)":"23b872dd"},"id":37}