{"abi":[{"type":"function","name":"PERCENTAGE","inputs":[],"outputs":[{"name":"","type":"uint256","internalType":"uint256"}],"stateMutability":"pure"},{"type":"function","name":"PRECISION","inputs":[],"outputs":[{"name":"","type":"uint256","internalType":"uint256"}],"stateMutability":"pure"},{"type":"function","name":"YEAR","inputs":[],"outputs":[{"name":"","type":"uint256","internalType":"uint256"}],"stateMutability":"pure"},{"type":"function","name":"calcInvariant","inputs":[{"name":"reserveQuote","type":"uint256","internalType":"uint256"},{"name":"reserveBase","type":"uint256","internalType":"uint256"},{"name":"strike","type":"uint256","internalType":"uint256"},{"name":"sigma","type":"uint256","internalType":"uint256"},{"name":"tau","type":"uint256","internalType":"uint256"}],"outputs":[{"name":"invariant","type":"int128","internalType":"int128"}],"stateMutability":"view"},{"type":"function","name":"getBaseGivenQuote","inputs":[{"name":"invariantLast","type":"int128","internalType":"int128"},{"name":"reserveQuote","type":"uint256","internalType":"uint256"},{"name":"strike","type":"uint256","internalType":"uint256"},{"name":"sigma","type":"uint256","internalType":"uint256"},{"name":"tau","type":"uint256","internalType":"uint256"}],"outputs":[{"name":"reserveBase","type":"int128","internalType":"int128"}],"stateMutability":"view"},{"type":"function","name":"getProportionalVolatility","inputs":[{"name":"sigma","type":"uint256","internalType":"uint256"},{"name":"tau","type":"uint256","internalType":"uint256"}],"outputs":[{"name":"vol","type":"int128","internalType":"int128"}],"stateMutability":"pure"},{"type":"function","name":"scaleFactorBase","inputs":[],"outputs":[{"name":"","type":"uint256","internalType":"uint256"}],"stateMutability":"view"},{"type":"function","name":"scaleFactorQuote","inputs":[],"outputs":[{"name":"","type":"uint256","internalType":"uint256"}],"stateMutability":"view"},{"type":"function","name":"set","inputs":[{"name":"prec0","type":"uint256","internalType":"uint256"},{"name":"prec1","type":"uint256","internalType":"uint256"}],"outputs":[],"stateMutability":"nonpayable"},{"type":"error","name":"InverseOutOfBounds","inputs":[{"name":"value","type":"int128","internalType":"int128"}]}],"bytecode":{"object":"0x608060405234801561001057600080fd5b50611948806100206000396000f3fe608060405234801561001057600080fd5b50600436106100935760003560e01c806383914540116100665780638391454014610103578063886a4eba1461010d578063aaf5eb6814610116578063b25f1db114610124578063e3c0986a1461013757600080fd5b80631ab06ee514610098578063293315f2146100b3578063374eb2bc146100ca5780633bcd260f146100f0575b600080fd5b6100b16100a63660046117e9565b600091909155600155565b005b6127105b6040519081526020015b60405180910390f35b6100dd6100d83660046117e9565b610140565b604051600f9190910b81526020016100c1565b6100dd6100fe36600461180b565b610153565b6301e185586100b7565b6100b760015481565b670de0b6b3a76400006100b7565b6100dd610132366004611855565b61017e565b6100b760005481565b600061014c8383610193565b9392505050565b600061017460015461016e886000546001548a8a8a8a6101d0565b906102a9565b9695505050505050565b600061017460005460015488888888886102d2565b6000806101aa6101a284610311565b600f0b610327565b905060006101b785610349565b90506101c7600f82900b83610357565b95945050505050565b6000806101dd85886102a9565b905060006101eb878a6102a9565b905060006101fd600160401b8361038e565b905084156102795760006102118787610193565b9050600061022183600f0b6103c1565b90506000610233600f83900b8461038e565b9050600061025e8f61025561024a85600f0b61047a565b600f8b900b90610357565b600f0b9061051b565b905061026e600f82900b8e61054e565b97505050505061029b565b6102988961028f8d610255600f88900b86610357565b600f0b9061054e565b93505b505050979650505050505050565b6000806102be83670de0b6b3a76400006118a6565b90506102ca8482610573565b949350505050565b6000806102e560008a8a8a8989896101d0565b905060006102f3828a6102a9565b90506000610301888b6102a9565b9050610298600f82900b8361038e565b6000610321826301e18558610573565b92915050565b60008082600f0b121561033957600080fd5b610321604083600f0b901b6105ad565b600061032182612710610573565b6000600f83810b9083900b0260401d60016001607f1b03198112801590610385575060016001607f1b038113155b61014c57600080fd5b6000600f82810b9084900b0360016001607f1b03198112801590610385575060016001607f1b0381131561014c57600080fd5b6000600160401b600f83900b1215806103de5750600082600f0b13155b1561040657604051630e59931d60e31b8152600f83900b600482015260240160405180910390fd5b67f999999999999999600f83900b1380159061042e5750670666666666666666600f83900b12155b1561043c576103218261071e565b670666666666666666600f83900b121561045957610321826107c5565b600061047161046c600160401b8561038e565b6107c5565b61014c906118c8565b600080610494600f84900b68016a09e667f3bcc90861088f565b905060006104d26104c76104bc6104ad85600f0b6108e6565b6753dd02a4f5ee2e4690610357565b600160401b9061051b565b600160401b9061088f565b905060006104e08383610914565b9050600083600f0b12156104fd576104fa81600f0b6109e4565b90505b6000610174610510600160401b8461051b565b6001603f1b90610357565b6000600f83810b9083900b0160016001607f1b03198112801590610385575060016001607f1b0381131561014c57600080fd5b60008061056383670de0b6b3a76400006118a6565b90506102ca600f85900b826109fa565b60008160000361058257600080fd5b600061058e8484610a65565b905060016001607f1b036001600160801b038216111561014c57600080fd5b6000816000036105bf57506000919050565b816001600160801b82106105d85760809190911c9060401b5b600160401b82106105ee5760409190911c9060201b5b64010000000082106106055760209190911c9060101b5b62010000821061061a5760109190911c9060081b5b610100821061062e5760089190911c9060041b5b601082106106415760049190911c9060021b5b6008821061064d5760011b5b600181858161065e5761065e611890565b048201901c9050600181858161067657610676611890565b048201901c9050600181858161068e5761068e611890565b048201901c905060018185816106a6576106a6611890565b048201901c905060018185816106be576106be611890565b048201901c905060018185816106d6576106d6611890565b048201901c905060018185816106ee576106ee611890565b048201901c9050600081858161070657610706611890565b04905080821061071657806101c7565b509392505050565b600080610733600f84900b6001603f1b61038e565b90506000610745600f83900b83610357565b905060006101c76107ba6107aa6107826721d0a04b0e9b94f161025561077467c2bf5d74c724e53e1989610357565b610255600f8a900b8a610357565b6107a16726a8f3c1f21b336e6102556787c57e5da70d3c8f1989610357565b600f0b9061088f565b68015d71f5721242c7879061051b565b600f85900b90610357565b6000806107e76101a26107df6104c7600f87900b87610357565b600f0b610bca565b9050600061080b6707a1e70f720eca436102556801000bf627fa1884101985610357565b9050600061082f6810aeac93f55267a9a561025568041ed34a256149023686610357565b9050600061086468072c7d592d021fb1db6102556108566808c27b4617f5f800ea88610357565b610255600f89900b89610357565b90506000610884610879600f85900b8461088f565b600f86900b9061051b565b979650505050505050565b600081600f0b6000036108a157600080fd5b600082600f0b604085600f0b901b816108bc576108bc611890565b05905060016001607f1b03198112801590610385575060016001607f1b0381131561014c57600080fd5b60006001607f1b600f83900b016108fc57600080fd5b600082600f0b1261090d5781610321565b5060000390565b6000806109666107ba61095661094b61093a600f88900b68010fb844255a12d72e610357565b68017401c57014c38f13199061051b565b600f87900b90610357565b68016a09e667f3bcc9089061051b565b9050600061099261098361094b6748d4c730f051a5fd198561051b565b67413c831bb169f8749061051b565b905060006101746109d96109ce6109c36109bb6109b3600f8c900b8c610357565b600f0b6109e4565b600f0b610c04565b600f86900b90610357565b600f88900b90610357565b600160401b9061038e565b60006001607f1b600f83900b0161090d57600080fd5b600081600003610a0c57506000610321565b600083600f0b1215610a1d57600080fd5b600f83900b6001600160801b038316810260401c90608084901c026001600160c01b03811115610a4c57600080fd5b60401b8119811115610a5d57600080fd5b019392505050565b600081600003610a7457600080fd5b60006001600160c01b038411610a9f5782604085901b81610a9757610a97611890565b049050610bb6565b60c084811c6401000000008110610ab8576020918201911c5b620100008110610aca576010918201911c5b6101008110610adb576008918201911c5b60108110610aeb576004918201911c5b60048110610afb576002918201911c5b60028110610b0a576001820191505b60bf820360018603901c6001018260ff0387901b81610b2b57610b2b611890565b0492506001600160801b03831115610b4257600080fd5b608085901c83026001600160801b038616840260c088901c604089901b82811015610b6e576001820391505b608084901b92900382811015610b85576001820391505b829003608084901c8214610b9b57610b9b6118fc565b888181610baa57610baa611890565b04870196505050505050505b6001600160801b0381111561014c57600080fd5b60008082600f0b13610bdb57600080fd5b6080610be683610c59565b600f0b6fb17217f7d1cf79abc9e3b39803f2f6af02901c9050919050565b6000600160461b82600f0b12610c1957600080fd5b683fffffffffffffffff1982600f0b1215610c3657506000919050565b610321608083600f0b700171547652b82fe1777d0ffda0d23a7d1202901d610d34565b60008082600f0b13610c6a57600080fd5b6000600f83900b600160401b8112610c84576040918201911d5b6401000000008112610c98576020918201911d5b620100008112610caa576010918201911d5b6101008112610cbb576008918201911d5b60108112610ccb576004918201911d5b60048112610cdb576002918201911d5b60028112610cea576001820191505b603f19820160401b600f85900b607f8490031b6001603f1b5b6000811315610d295790800260ff81901c8281029390930192607f011c9060011d610d03565b509095945050505050565b6000600160461b82600f0b12610d4957600080fd5b683fffffffffffffffff1982600f0b1215610d6657506000919050565b6001607f1b60006001603f1b8416600f0b1315610d945770016a09e667f3bcc908b2fb1366ea957d3e0260801c5b60008367400000000000000016600f0b1315610dc1577001306fe0a31b7152de8d5a46305c85edec0260801c5b60008367200000000000000016600f0b1315610dee577001172b83c7d517adcdf7c8c50eb14a791f0260801c5b60008367100000000000000016600f0b1315610e1b5770010b5586cf9890f6298b92b71842a983630260801c5b60008367080000000000000016600f0b1315610e48577001059b0d31585743ae7c548eb68ca417fd0260801c5b60008367040000000000000016600f0b1315610e7557700102c9a3e778060ee6f7caca4f7a29bde80260801c5b60008367020000000000000016600f0b1315610ea25770010163da9fb33356d84a66ae336dcdfa3f0260801c5b60008367010000000000000016600f0b1315610ecf57700100b1afa5abcbed6129ab13ec11dc95430260801c5b600083668000000000000016600f0b1315610efb5770010058c86da1c09ea1ff19d294cf2f679b0260801c5b600083664000000000000016600f0b1315610f27577001002c605e2e8cec506d21bfc89a23a00f0260801c5b600083662000000000000016600f0b1315610f5357700100162f3904051fa128bca9c55c31e5df0260801c5b600083661000000000000016600f0b1315610f7f577001000b175effdc76ba38e31671ca9397250260801c5b600083660800000000000016600f0b1315610fab57700100058ba01fb9f96d6cacd4b180917c3d0260801c5b600083660400000000000016600f0b1315610fd75770010002c5cc37da9491d0985c348c68e7b30260801c5b600083660200000000000016600f0b1315611003577001000162e525ee054754457d59952920260260801c5b600083660100000000000016600f0b131561102f5770010000b17255775c040618bf4a4ade83fc0260801c5b6000836580000000000016600f0b131561105a577001000058b91b5bc9ae2eed81e9b7d4cfab0260801c5b6000836540000000000016600f0b131561108557700100002c5c89d5ec6ca4d7c8acc017b7c90260801c5b6000836520000000000016600f0b13156110b05770010000162e43f4f831060e02d839a9d16d0260801c5b6000836510000000000016600f0b13156110db57700100000b1721bcfc99d9f890ea069117630260801c5b6000836508000000000016600f0b13156111065770010000058b90cf1e6d97f9ca14dbcc16280260801c5b6000836504000000000016600f0b1315611131577001000002c5c863b73f016468f6bac5ca2b0260801c5b6000836502000000000016600f0b131561115c57700100000162e430e5a18f6119e3c02282a50260801c5b6000836501000000000016600f0b1315611187577001000000b1721835514b86e6d96efd1bfe0260801c5b60008364800000000016600f0b13156111b157700100000058b90c0b48c6be5df846c5b2ef0260801c5b60008364400000000016600f0b13156111db5770010000002c5c8601cc6b9e94213c72737a0260801c5b60008364200000000016600f0b1315611205577001000000162e42fff037df38aa2b219f060260801c5b60008364100000000016600f0b131561122f5770010000000b17217fba9c739aa5819f44f90260801c5b60008364080000000016600f0b1315611259577001000000058b90bfcdee5acd3c1cedc8230260801c5b60008364040000000016600f0b131561128357700100000002c5c85fe31f35a6a30da1be500260801c5b60008364020000000016600f0b13156112ad5770010000000162e42ff0999ce3541b9fffcf0260801c5b60008364010000000016600f0b13156112d757700100000000b17217f80f4ef5aadda455540260801c5b600083638000000016600f0b13156113005770010000000058b90bfbf8479bd5a81b51ad0260801c5b600083634000000016600f0b1315611329577001000000002c5c85fdf84bd62ae30a74cc0260801c5b600083632000000016600f0b131561135257700100000000162e42fefb2fed257559bdaa0260801c5b600083631000000016600f0b131561137b577001000000000b17217f7d5a7716bba4a9ae0260801c5b600083630800000016600f0b13156113a457700100000000058b90bfbe9ddbac5e109cce0260801c5b600083630400000016600f0b13156113cd5770010000000002c5c85fdf4b15de6f17eb0d0260801c5b600083630200000016600f0b13156113f6577001000000000162e42fefa494f1478fde050260801c5b600083630100000016600f0b131561141f5770010000000000b17217f7d20cf927c8e94c0260801c5b6000836280000016600f0b1315611447577001000000000058b90bfbe8f71cb4e4b33d0260801c5b6000836240000016600f0b131561146f57700100000000002c5c85fdf477b662b269450260801c5b6000836220000016600f0b13156114975770010000000000162e42fefa3ae53369388c0260801c5b6000836210000016600f0b13156114bf57700100000000000b17217f7d1d351a389d400260801c5b6000836208000016600f0b13156114e75770010000000000058b90bfbe8e8b2d3d4ede0260801c5b6000836204000016600f0b131561150f577001000000000002c5c85fdf4741bea6e77e0260801c5b6000836202000016600f0b131561153757700100000000000162e42fefa39fe95583c20260801c5b6000836201000016600f0b131561155f577001000000000000b17217f7d1cfb72b45e10260801c5b60008361800016600f0b131561158657700100000000000058b90bfbe8e7cc35c3f00260801c5b60008361400016600f0b13156115ad5770010000000000002c5c85fdf473e242ea380260801c5b60008361200016600f0b13156115d4577001000000000000162e42fefa39f02b772c0260801c5b60008361100016600f0b13156115fb5770010000000000000b17217f7d1cf7d83c1a0260801c5b60008361080016600f0b1315611622577001000000000000058b90bfbe8e7bdcbe2e0260801c5b60008361040016600f0b131561164957700100000000000002c5c85fdf473dea871f0260801c5b60008361020016600f0b13156116705770010000000000000162e42fefa39ef44d910260801c5b60008361010016600f0b131561169757700100000000000000b17217f7d1cf79e9490260801c5b600083608016600f0b13156116bd5770010000000000000058b90bfbe8e7bce5440260801c5b600083604016600f0b13156116e3577001000000000000002c5c85fdf473de6eca0260801c5b600083602016600f0b131561170957700100000000000000162e42fefa39ef366f0260801c5b600083601016600f0b131561172f577001000000000000000b17217f7d1cf79afa0260801c5b600083600816600f0b131561175557700100000000000000058b90bfbe8e7bcd6d0260801c5b600083600416600f0b131561177b5770010000000000000002c5c85fdf473de6b20260801c5b600083600216600f0b13156117a1577001000000000000000162e42fefa39ef3580260801c5b600083600116600f0b13156117c75770010000000000000000b17217f7d1cf79ab0260801c5b600f83810b60401d603f03900b1c60016001607f1b0381111561032157600080fd5b600080604083850312156117fc57600080fd5b50508035926020909101359150565b600080600080600060a0868803121561182357600080fd5b853580600f0b811461183457600080fd5b97602087013597506040870135966060810135965060800135945092505050565b600080600080600060a0868803121561186d57600080fd5b505083359560208501359550604085013594606081013594506080013592509050565b634e487b7160e01b600052601260045260246000fd5b6000826118c357634e487b7160e01b600052601260045260246000fd5b500490565b600081600f0b60016001607f1b031981036118f357634e487b7160e01b600052601160045260246000fd5b60000392915050565b634e487b7160e01b600052600160045260246000fdfea264697066735822122004f277cb8c2684b268d316720f7c7ebacd366f077847b69136d1be7e97caf20364736f6c63430008140033","linkReferences":{}},"methodIdentifiers":{"PERCENTAGE()":"293315f2","PRECISION()":"aaf5eb68","YEAR()":"83914540","calcInvariant(uint256,uint256,uint256,uint256,uint256)":"b25f1db1","getBaseGivenQuote(int128,uint256,uint256,uint256,uint256)":"3bcd260f","getProportionalVolatility(uint256,uint256)":"374eb2bc","scaleFactorBase()":"886a4eba","scaleFactorQuote()":"e3c0986a","set(uint256,uint256)":"1ab06ee5"},"id":51}