{"abi":[{"type":"constructor","inputs":[],"stateMutability":"nonpayable"},{"type":"function","name":"_blockTimestamp","inputs":[],"outputs":[{"name":"blockTimestamp","type":"uint32","internalType":"uint32"}],"stateMutability":"view"},{"type":"function","name":"beforeEach","inputs":[{"name":"name","type":"string","internalType":"string"},{"name":"timestamp_","type":"uint256","internalType":"uint256"},{"name":"reserveQuote","type":"uint256","internalType":"uint256"},{"name":"reserveBase","type":"uint256","internalType":"uint256"}],"outputs":[],"stateMutability":"nonpayable"},{"type":"function","name":"res","inputs":[],"outputs":[{"name":"","type":"tuple","internalType":"struct Reserve.Data","components":[{"name":"reserveQuote","type":"uint128","internalType":"uint128"},{"name":"reserveBase","type":"uint128","internalType":"uint128"},{"name":"liquidity","type":"uint128","internalType":"uint128"},{"name":"blockTimestamp","type":"uint32","internalType":"uint32"},{"name":"cumulativeQuote","type":"uint256","internalType":"uint256"},{"name":"cumulativeBase","type":"uint256","internalType":"uint256"},{"name":"cumulativeLiquidity","type":"uint256","internalType":"uint256"}]}],"stateMutability":"view"},{"type":"function","name":"reserveId","inputs":[],"outputs":[{"name":"","type":"bytes32","internalType":"bytes32"}],"stateMutability":"view"},{"type":"function","name":"reserves","inputs":[{"name":"","type":"bytes32","internalType":"bytes32"}],"outputs":[{"name":"reserveQuote","type":"uint128","internalType":"uint128"},{"name":"reserveBase","type":"uint128","internalType":"uint128"},{"name":"liquidity","type":"uint128","internalType":"uint128"},{"name":"blockTimestamp","type":"uint32","internalType":"uint32"},{"name":"cumulativeQuote","type":"uint256","internalType":"uint256"},{"name":"cumulativeBase","type":"uint256","internalType":"uint256"},{"name":"cumulativeLiquidity","type":"uint256","internalType":"uint256"}],"stateMutability":"view"},{"type":"function","name":"shouldAllocate","inputs":[{"name":"resId","type":"bytes32","internalType":"bytes32"},{"name":"delQuote","type":"uint256","internalType":"uint256"},{"name":"delBase","type":"uint256","internalType":"uint256"},{"name":"delLiquidity","type":"uint256","internalType":"uint256"}],"outputs":[{"name":"","type":"tuple","internalType":"struct Reserve.Data","components":[{"name":"reserveQuote","type":"uint128","internalType":"uint128"},{"name":"reserveBase","type":"uint128","internalType":"uint128"},{"name":"liquidity","type":"uint128","internalType":"uint128"},{"name":"blockTimestamp","type":"uint32","internalType":"uint32"},{"name":"cumulativeQuote","type":"uint256","internalType":"uint256"},{"name":"cumulativeBase","type":"uint256","internalType":"uint256"},{"name":"cumulativeLiquidity","type":"uint256","internalType":"uint256"}]}],"stateMutability":"nonpayable"},{"type":"function","name":"shouldRemove","inputs":[{"name":"resId","type":"bytes32","internalType":"bytes32"},{"name":"delQuote","type":"uint256","internalType":"uint256"},{"name":"delBase","type":"uint256","internalType":"uint256"},{"name":"delLiquidity","type":"uint256","internalType":"uint256"}],"outputs":[{"name":"","type":"tuple","internalType":"struct Reserve.Data","components":[{"name":"reserveQuote","type":"uint128","internalType":"uint128"},{"name":"reserveBase","type":"uint128","internalType":"uint128"},{"name":"liquidity","type":"uint128","internalType":"uint128"},{"name":"blockTimestamp","type":"uint32","internalType":"uint32"},{"name":"cumulativeQuote","type":"uint256","internalType":"uint256"},{"name":"cumulativeBase","type":"uint256","internalType":"uint256"},{"name":"cumulativeLiquidity","type":"uint256","internalType":"uint256"}]}],"stateMutability":"nonpayable"},{"type":"function","name":"shouldSwap","inputs":[{"name":"resId","type":"bytes32","internalType":"bytes32"},{"name":"addXRemoveY","type":"bool","internalType":"bool"},{"name":"deltaIn","type":"uint256","internalType":"uint256"},{"name":"deltaOut","type":"uint256","internalType":"uint256"}],"outputs":[{"name":"","type":"tuple","internalType":"struct Reserve.Data","components":[{"name":"reserveQuote","type":"uint128","internalType":"uint128"},{"name":"reserveBase","type":"uint128","internalType":"uint128"},{"name":"liquidity","type":"uint128","internalType":"uint128"},{"name":"blockTimestamp","type":"uint32","internalType":"uint32"},{"name":"cumulativeQuote","type":"uint256","internalType":"uint256"},{"name":"cumulativeBase","type":"uint256","internalType":"uint256"},{"name":"cumulativeLiquidity","type":"uint256","internalType":"uint256"}]}],"stateMutability":"nonpayable"},{"type":"function","name":"shouldUpdate","inputs":[{"name":"resId","type":"bytes32","internalType":"bytes32"}],"outputs":[{"name":"","type":"tuple","internalType":"struct Reserve.Data","components":[{"name":"reserveQuote","type":"uint128","internalType":"uint128"},{"name":"reserveBase","type":"uint128","internalType":"uint128"},{"name":"liquidity","type":"uint128","internalType":"uint128"},{"name":"blockTimestamp","type":"uint32","internalType":"uint32"},{"name":"cumulativeQuote","type":"uint256","internalType":"uint256"},{"name":"cumulativeBase","type":"uint256","internalType":"uint256"},{"name":"cumulativeLiquidity","type":"uint256","internalType":"uint256"}]}],"stateMutability":"nonpayable"},{"type":"function","name":"step","inputs":[{"name":"timestep","type":"uint256","internalType":"uint256"}],"outputs":[],"stateMutability":"nonpayable"},{"type":"function","name":"timestamp","inputs":[],"outputs":[{"name":"","type":"uint256","internalType":"uint256"}],"stateMutability":"view"},{"type":"function","name":"update","inputs":[{"name":"resId","type":"bytes32","internalType":"bytes32"},{"name":"Quote","type":"uint256","internalType":"uint256"},{"name":"Base","type":"uint256","internalType":"uint256"},{"name":"liquidity","type":"uint256","internalType":"uint256"},{"name":"blockTimestamp","type":"uint32","internalType":"uint32"}],"outputs":[{"name":"","type":"tuple","internalType":"struct Reserve.Data","components":[{"name":"reserveQuote","type":"uint128","internalType":"uint128"},{"name":"reserveBase","type":"uint128","internalType":"uint128"},{"name":"liquidity","type":"uint128","internalType":"uint128"},{"name":"blockTimestamp","type":"uint32","internalType":"uint32"},{"name":"cumulativeQuote","type":"uint256","internalType":"uint256"},{"name":"cumulativeBase","type":"uint256","internalType":"uint256"},{"name":"cumulativeLiquidity","type":"uint256","internalType":"uint256"}]}],"stateMutability":"nonpayable"}],"bytecode":{"object":"0x608060405234801561001057600080fd5b50610cf9806100206000396000f3fe608060405234801561001057600080fd5b50600436106100b35760003560e01c8063c63aa3e711610071578063c63aa3e71461022c578063dd7798e714610244578063e9efec0214610257578063ea8d1f0a1461026a578063edf6168014610273578063efbb26b31461028657600080fd5b8062bbf1e4146100b85780633a1cde751461016757806368de29331461017c5780636f10e285146101fa5780638f47a68714610202578063b80777ea14610215575b600080fd5b6101166100c6366004610a43565b6002602081905260009182526040909120805460018201549282015460038301546004909301546001600160801b0380841695600160801b948590048216959181169463ffffffff910416929187565b604080516001600160801b0398891681529688166020880152949096169385019390935263ffffffff919091166060840152608083015260a082015260c081019190915260e0015b60405180910390f35b61017a610175366004610a43565b610299565b005b61018f61018a366004610a43565b6102b8565b60405161015e9190600060e0820190506001600160801b038084511683528060208501511660208401528060408501511660408401525063ffffffff60608401511660608301526080830151608083015260a083015160a083015260c083015160c083015292915050565b61018f610359565b61018f610210366004610a5c565b6103dd565b61021e60005481565b60405190815260200161015e565b60005460405163ffffffff909116815260200161015e565b61018f610252366004610a5c565b610487565b61017a610265366004610aa4565b6104b5565b61021e60015481565b61018f610281366004610b69565b61059c565b61018f610294366004610bab565b6105ca565b8063ffffffff166000808282546102b09190610c17565b909155505050565b6102c0610a07565b6102e06102cc60005490565b600084815260026020526040902090610672565b50600090815260026020818152604092839020835160e08101855281546001600160801b038082168352600160801b918290048116948301949094526001830154938416958201959095529390910463ffffffff166060840152908101546080830152600381015460a08301526004015460c082015290565b610361610a07565b5060018054600090815260026020818152604092839020835160e08101855281546001600160801b038082168352600160801b91829004811694830194909452958201549283169481019490945293900463ffffffff1660608301528201546080820152600382015460a082015260049091015460c082015290565b6103e5610a07565b61040b8484846103f460005490565b60008a81526002602052604090209392919061070e565b50505060009182525060026020818152604092839020835160e08101855281546001600160801b038082168352600160801b918290048116948301949094526001830154938416958201959095529390910463ffffffff166060840152908101546080830152600381015460a08301526004015460c082015290565b61048f610a07565b61040b84848461049e60005490565b60008a815260026020526040902093929190610800565b60008381556040516104cb908690602001610c30565b60408051808303601f190181528282528051602091820120600181815560e0850184526001600160801b039788168552958716828501908152671bc16d674ec8000085850190815263ffffffff998a166060870190815260006080880181815260a0890182815260c08a018381529683526002978890529790912097519351938b16600160801b948c16850217885591519887018054915199909a166001600160a01b0319909116179790991602959095179095559451938101939093555091516003820155905160049091015550565b6105a4610a07565b61040b8484846105b360005490565b60008a8152600260205260409020939291906108c7565b6105d2610a07565b50600094855260026020818152604096879020918201869055600382018590556004820184905560018201805463ffffffff60801b198116600160801b63ffffffff9687168102918217938490558a5160e081018c5295546001600160801b0380821688529082900481169587019590955291841693169290921797830197909752909504166060850152608084019290925260a083015260c082015290565b600182015460009061069190600160801b900463ffffffff1683610c5f565b905063ffffffff81161561070957825460028401805463ffffffff8481166001600160801b038086168202909301909355600387018054600160801b958690048416850201905560018701805460048901805494821690950290930190935563ffffffff60801b199091169085169092029190911790555b505050565b6107188582610672565b610721846109ed565b8554869060009061073c9084906001600160801b0316610c83565b92506101000a8154816001600160801b0302191690836001600160801b03160217905550610769836109ed565b8554869060109061078b908490600160801b90046001600160801b0316610c83565b92506101000a8154816001600160801b0302191690836001600160801b031602179055506107b8826109ed565b6001860180546000906107d59084906001600160801b0316610c83565b92506101000a8154816001600160801b0302191690836001600160801b031602179055505050505050565b61080a8582610672565b610813846109ed565b8554869060009061082e9084906001600160801b0316610ca3565b92506101000a8154816001600160801b0302191690836001600160801b0316021790555061085b836109ed565b8554869060109061087d908490600160801b90046001600160801b0316610ca3565b92506101000a8154816001600160801b0302191690836001600160801b031602179055506108aa826109ed565b6001860180546000906107d59084906001600160801b0316610ca3565b6108d18582610672565b8315610973576108e0836109ed565b855486906000906108fb9084906001600160801b0316610c83565b92506101000a8154816001600160801b0302191690836001600160801b03160217905550610928826109ed565b8554869060109061094a908490600160801b90046001600160801b0316610ca3565b92506101000a8154816001600160801b0302191690836001600160801b031602179055506109e6565b61097c826109ed565b855486906000906109979084906001600160801b0316610ca3565b92506101000a8154816001600160801b0302191690836001600160801b031602179055506109c4836109ed565b855486906010906107d5908490600160801b90046001600160801b0316610c83565b5050505050565b60006001600160801b03821115610a0357600080fd5b5090565b6040805160e081018252600080825260208201819052918101829052606081018290526080810182905260a0810182905260c081019190915290565b600060208284031215610a5557600080fd5b5035919050565b60008060008060808587031215610a7257600080fd5b5050823594602084013594506040840135936060013592509050565b634e487b7160e01b600052604160045260246000fd5b60008060008060808587031215610aba57600080fd5b843567ffffffffffffffff80821115610ad257600080fd5b818701915087601f830112610ae657600080fd5b813581811115610af857610af8610a8e565b604051601f8201601f19908116603f01168101908382118183101715610b2057610b20610a8e565b816040528281528a6020848701011115610b3957600080fd5b82602086016020830137600060209382018401529a91890135995050604088013597606001359650945050505050565b60008060008060808587031215610b7f57600080fd5b8435935060208501358015158114610b9657600080fd5b93969395505050506040820135916060013590565b600080600080600060a08688031215610bc357600080fd5b85359450602086013593506040860135925060608601359150608086013563ffffffff81168114610bf357600080fd5b809150509295509295909350565b634e487b7160e01b600052601160045260246000fd5b80820180821115610c2a57610c2a610c01565b92915050565b6000825160005b81811015610c515760208186018101518583015201610c37565b506000920191825250919050565b63ffffffff828116828216039080821115610c7c57610c7c610c01565b5092915050565b6001600160801b03818116838216019080821115610c7c57610c7c610c01565b6001600160801b03828116828216039080821115610c7c57610c7c610c0156fea264697066735822122032c5cd88dcd82858fba39a385693b79dbcecb4f04fb5fbfc7bdb40debc1e714b64736f6c63430008140033","linkReferences":{}},"methodIdentifiers":{"_blockTimestamp()":"c63aa3e7","beforeEach(string,uint256,uint256,uint256)":"e9efec02","res()":"6f10e285","reserveId()":"ea8d1f0a","reserves(bytes32)":"00bbf1e4","shouldAllocate(bytes32,uint256,uint256,uint256)":"8f47a687","shouldRemove(bytes32,uint256,uint256,uint256)":"dd7798e7","shouldSwap(bytes32,bool,uint256,uint256)":"edf61680","shouldUpdate(bytes32)":"68de2933","step(uint256)":"3a1cde75","timestamp()":"b80777ea","update(bytes32,uint256,uint256,uint256,uint32)":"efbb26b3"},"id":52}