{"abi":[{"type":"function","name":"margin","inputs":[],"outputs":[{"name":"","type":"tuple","internalType":"struct Margin.Data","components":[{"name":"balanceQuote","type":"uint128","internalType":"uint128"},{"name":"balanceBase","type":"uint128","internalType":"uint128"}]}],"stateMutability":"view"},{"type":"function","name":"margins","inputs":[{"name":"","type":"address","internalType":"address"}],"outputs":[{"name":"balanceQuote","type":"uint128","internalType":"uint128"},{"name":"balanceBase","type":"uint128","internalType":"uint128"}],"stateMutability":"view"},{"type":"function","name":"shouldDeposit","inputs":[{"name":"delQuote","type":"uint256","internalType":"uint256"},{"name":"delBase","type":"uint256","internalType":"uint256"}],"outputs":[{"name":"","type":"tuple","internalType":"struct Margin.Data","components":[{"name":"balanceQuote","type":"uint128","internalType":"uint128"},{"name":"balanceBase","type":"uint128","internalType":"uint128"}]}],"stateMutability":"nonpayable"},{"type":"function","name":"shouldWithdraw","inputs":[{"name":"delQuote","type":"uint256","internalType":"uint256"},{"name":"delBase","type":"uint256","internalType":"uint256"}],"outputs":[{"name":"","type":"tuple","internalType":"struct Margin.Data","components":[{"name":"balanceQuote","type":"uint128","internalType":"uint128"},{"name":"balanceBase","type":"uint128","internalType":"uint128"}]}],"stateMutability":"nonpayable"}],"bytecode":{"object":"0x608060405234801561001057600080fd5b506105b2806100206000396000f3fe608060405234801561001057600080fd5b506004361061004c5760003560e01c80631aac89e61461005157806338820465146100905780638f76691a146100e4578063d6e79d861461012b575b600080fd5b61006461005f366004610498565b61013e565b6040805182516001600160801b0390811682526020938401511692810192909252015b60405180910390f35b6100c461009e3660046104ba565b6000602081905290815260409020546001600160801b0380821691600160801b90041682565b604080516001600160801b03938416815292909116602083015201610087565b604080518082018252600080825260209182018190523381528082528290208251808401909352546001600160801b038082168452600160801b9091041690820152610064565b610064610139366004610498565b61026c565b6040805180820190915260008082526020820152336000908152602081905260408120546001600160801b0380821692600160801b9092041690610183908686610319565b336000908152602081905260409020815481546fffffffffffffffffffffffffffffffff19166001600160801b0391821690811783559254600160801b90819004821602808417909255908116909117906101e190879085166104f9565b10156101ef576101ef61050c565b336000908152602081905260409020546001600160801b03600160801b90910481169061021f90869084166104f9565b101561022d5761022d61050c565b505033600090815260208181526040918290208251808401909352546001600160801b038082168452600160801b909104169082015290505b92915050565b604080518082019091526000808252602082015233600090815260208190526040902080546001600160801b0380821692600160801b90920416906102b29086866103d4565b336000908152602081905260409020546001600160801b03908116906102db9087908516610522565b10156102e9576102e961050c565b336000908152602081905260409020546001600160801b03600160801b90910481169061021f9086908416610522565b3360009081526020849052604090208215610377576103378361047e565b815482906000906103529084906001600160801b0316610535565b92506101000a8154816001600160801b0302191690836001600160801b031602179055505b81156103cd576103868261047e565b815482906010906103a8908490600160801b90046001600160801b0316610535565b92506101000a8154816001600160801b0302191690836001600160801b031602179055505b9392505050565b8115610423576103e38261047e565b835484906000906103fe9084906001600160801b031661055c565b92506101000a8154816001600160801b0302191690836001600160801b031602179055505b8015610479576104328161047e565b83548490601090610454908490600160801b90046001600160801b031661055c565b92506101000a8154816001600160801b0302191690836001600160801b031602179055505b505050565b60006001600160801b0382111561049457600080fd5b5090565b600080604083850312156104ab57600080fd5b50508035926020909101359150565b6000602082840312156104cc57600080fd5b81356001600160a01b03811681146103cd57600080fd5b634e487b7160e01b600052601160045260246000fd5b81810381811115610266576102666104e3565b634e487b7160e01b600052600160045260246000fd5b80820180821115610266576102666104e3565b6001600160801b03828116828216039080821115610555576105556104e3565b5092915050565b6001600160801b03818116838216019080821115610555576105556104e356fea2646970667358221220a9a67bda9aee943507d66dcecb34ecb19d95d16a5b7babac22859e7086ac813164736f6c63430008140033","linkReferences":{}},"methodIdentifiers":{"margin()":"8f76691a","margins(address)":"38820465","shouldDeposit(uint256,uint256)":"d6e79d86","shouldWithdraw(uint256,uint256)":"1aac89e6"},"id":50}